:020000022000DC
:1070000000000420197202000172020003720200E3
:1070100005720200077202000972020000000000FF
:107020000000000000000000000000000B720200E1
:107030000D720200000000000F72020011720200C7
:10704000A1B602001372020075BC020013720200A6
:1070500013720200137202006DBB02001372020071
:107060001372020013720200137202001372020004
:1070700013720200137202001372020013720200F4
:1070800013720200E5E9020013720200137202009B
:107090001372020013720200FD1803001372020043
:1070A00013720200137202001372020013720200C4
:1070B00013720200137202000000000000000000C2
:1070C00013720200137202001372020013720200A4
:1070D0001372020013720200137202001372020094
:1070E000137202001372020013720200000000000B
:1070F0000000000013720200000000001372020082
:10710000000000000000000000000000000000007F
:10711000000000000000000000000000000000006F
:10712000000000000000000000000000000000005F
:10713000000000000000000000000000000000004F
:10714000000000000000000000000000000000003F
:10715000000000000000000000000000000000002F
:10716000000000000000000000000000000000001F
:10717000000000000000000000000000000000000F
:1071800000000000000000000000000000000000FF
:1071900000000000000000000000000000000000EF
:1071A00000000000000000000000000000000000DF
:1071B00000000000000000000000000000000000CF
:1071C00000000000000000000000000000000000BF
:1071D00000000000000000000000000000000000AF
:1071E000000000000000000000000000000000009F
:1071F000000000000000000000000000000000008F
:10720000FEE7FEE7FEE7FEE7FEE7FEE7FEE7FEE756
:10721000FEE7FEE700F002B8FFF7FCBF0F484FF0B3
:107220000701884385460E4880470E48016841F4AF
:1072300070010160BFF34F8FBFF36F8F00F01AB87A
:1072400009480A490A4A884207D0521A05D00378E9
:1072500001300B700131013AF9D170470000042070
:107260001982020088ED00E048290300C81D0020B3
:10727000C81D0020314932480A1A02D00722914322
:107280008D46304930480A1A06D00722914381F3CF
:107290000988022282F314882C482D492D4A00F0D7
:1072A0003CF82D482D492E4A00F037F82D482E493C
:1072B0002E4A00F032F82E482E492F4A00F02DF8C1
:1072C0002E482F492F4A00F028F82F482F49304ADE
:1072D00000F023F82F483049304A00F01EF83048BB
:1072E0003049002200F024F82F483049002200F0F5
:1072F0001FF82F4A90471F481F49884205D002684F
:10730000043003B4904703BCF7E700208646EC4600
:1073100000200021274A9047FEE7884207D0521AF2
:1073200005D0037801300B700131013AF9D1704773
:10733000884202D002700130FAE770470000042052
:1073400000E0032000000420000004203443030078
:10735000C81D002060240020B8730200B87302002A
:10736000FC27030034430300C81D0020C81D002073
:10737000482903004829030048290300482903003D
:10738000482903004829030048290300482903002D
:1073900034430300CC490300602400206024002013
:1073A00060240020D02E0020D02E0020D02E0020DF
:0873B000417202001D7C020085
:1073B80075DF704700BF184676DF704700BF184674
:1073C8008FDF704700BF184600B583B00190019B5E
:1073D8001B68184600F07EF80346002B04D10B49C1
:1073E8004FF4F67000F09EF8019B1B681F2B02D823
:1073F8004FF0A04306E0019B1B6803F01F02019BAE
:107408001A60034B184603B05DF804FB48290300D3
:107418000003005000B585B00190084611461A4691
:1074280003468DF803300B468DF8023013468DF86D
:10743800013001AB1846FFF7C7FF03909DF8032002
:107448009DF802305B001A439DF801309B001A43F7
:107458009DF818301B0242EA03019DF81C301B04FA
:10746800019A1943039B02F5E07243F8221000BF0A
:1074780005B05DF804FB00B585B0039000230193C7
:10748800002300930023012201210398FFF7C2FF84
:1074980000BF05B05DF804FB00B585B0019001ABF5
:1074A8001846FFF791FF0390019B012202FA03F3AC
:1074B8001946039800F004F800BF05B05DF804FB16
:1074C80082B001900091019B009AC3F8082500BF83
:1074D80002B0704784B00190019B5B0902930023BE
:1074E8000393029B002B03D0029B012B04D007E0DF
:1074F8004FF0FF33039303E04FF6FF73039300BF8E
:10750800019B03F01F030193039A019B22FA03F3E3
:1075180003F00103002B14BF01230023DBB218463C
:1075280004B0704700B583B003460091ADF806304B
:10753800BDF80630009A1946034806F019F900BF4D
:1075480003B05DF804FB00BFEFBEADDE00B583B04D
:107558000190044A8421019806F00AF900BF03B09B
:107568005DF804FB7029030008B51620FFF783FFB8
:107578001620FFF791FF1920FFF77DFF1920FFF76D
:107588008BFF2420FFF777FF2420FFF785FF00BF3C
:1075980008BD000000B583B0084803F059FA01900F
:1075A800019B0093009B002B04D0054AA221009860
:1075B80006F0DEF800BF03B05DF804FB602400208D
:1075C8007029030000B585B001900091009B1B78DD
:1075D800022B24D0022B2EDC002B01D0012B2AE019
:1075E800009B5988009B0E331A46154803F074FC1B
:1075F8000390039B0293029B002B04D0114AB421F1
:10760800029806F0B5F8104A104BD31ADB081B0491
:1076180043F003030E49184609F022FB0BE00A4A1F
:107628000A4BD31ADB081B0443F003030949184625
:1076380009F016FB00BF00BF05B05DF804FB00BFF2
:10764800C8240020702903006C2803004428030084
:10765800B0290300C029030000B58BB00190009148
:10766800019B04330693019B1B883B2B62DC102B88
:10767800C0F2E280103B2B2B00F2DE8001A252F810
:1076880023F000BF437702007D77020041780200B3
:1076980041780200417802004178020041780200F6
:1076A80041780200417802004178020041780200E6
:1076B80041780200417802004178020041780200D6
:1076C8009977020041780200C177020041780200F0
:1076D80041780200417802004178020041780200B6
:1076E80041780200417802004178020041780200A6
:1076F8004178020041780200417802004178020096
:107708004178020041780200417802004178020085
:107718004178020041780200417802004178020075
:107728004178020041780200417802004178020065
:10773800F5770200562B6CD07EE0474A474BD31AA8
:10774800DB081B0443F003034549184609F088FA8F
:10775800069B1B881946434801F01AFF0990099BAC
:107768000393039B002B69D03F4AD921039805F066
:10777800FFFF63E0384A394BD31ADB081B0443F098
:1077880003033A49184609F06BFAFFF703FF5EE076
:10779800069B1A88069B043319461046FFF708FE15
:1077A8000990099B0493049B002B49D02E4AF7218A
:1077B800049805F0DDFF43E000238DF8083000232E
:1077C8008DF80930019B9B8802AA11461846FFF7DD
:1077D800F7FD0990099B0893089B002B32D0224A99
:1077E80040F20311089805F0C3FF2BE0019B9B882A
:1077F80013211846FFF7E0FD0990099B0793079BA3
:10780800002B21D0184A4FF48671079805F0B0FF75
:107818001AE0019B9B8813211846FFF7CDFD0990BC
:10782800099B0593059B002B10D00F4A40F21511B8
:10783800059805F09DFF09E000BF08E000BF06E0DD
:1078480000BF04E000BF02E000BF00E000BF00BFCF
:107858000BB05DF804FB00BF6C280300442803004C
:10786800D4290300C81D002070290300E029030063
:1078780000B587B001AB0C22002118460AF010FCB5
:107888000D4B01930D4B02930D4B039301AB19461E
:107898000C4803F025FA0590059B0493049B002BE4
:1078A80005D0094A40F22B11049805F061FF00BF8A
:1078B80007B05DF804FB00BFCD75020055750200E6
:1078C8009C230020C82400207029030000B587B03D
:1078D80009F08EFF0590059B0493049B002B05D0AF
:1078E800164A4FF49C71049805F042FF0023019357
:1078F80001AB194601200AF033F80590059B039364
:10790800039B002B05D00D4A4FF49F71039805F097
:107918002FFF01AB18460AF015F90590059B029355
:10792800029B002B05D0054A4FF4A171029805F07F
:107938001FFF00BF07B05DF804FB00BF70290300FC
:1079480000B585B00190019B1B78052B0ED1019BDA
:107958005B680393039B0293029B002B08D0074AA2
:107968004FF4B571029805F003FF01E000BF00E095
:1079780000BF00BF05B05DF804FB00BF702903001D
:1079880000B583B001900199034803F015F900BFD1
:1079980003B05DF804FB00BFC824002000B583B025
:1079A80001900E4B1B781A460D490E480AF065FCEB
:1079B80014220C490C4803F027FA084B1B780133B2
:1079C800DAB2064B1A70054B1B78FF2B02D1034B1A
:1079D80001221A7000BF03B05DF804FBE423002005
:1079E800F0290300D0230020C824002000B585B06A
:1079F8006B460822002118460AF052FB0B4B0093F5
:107A08000B4B01936B46184601F0FEFC0390039B59
:107A18000293029B002B05D0064A40F2AF11029850
:107A280005F0A6FE00BF05B05DF804FB89790200E9
:107A38009C2300207029030000B583B04FF48041D7
:107A4800002008F037FE0190019B0093009B002B5B
:107A580005D0064A4FF4DC71009805F089FE08F05D
:107A6800BFFD00BF03B05DF804FB00BF7029030031
:107A780000B585B006F02CFA0390039B0293029B95
:107A8800002B05D00D4A40F2C311029805F070FE94
:107A98000B4A01210B4806F059FA0390039B019306
:107AA800019B002B05D0054A40F2C911019805F049
:107AB8005FFE00BF05B05DF804FB00BF702903003E
:107AC800A5790200342A030000B583B00B4B0022CD
:107AD8004FF44041184606F073FA0190019B009359
:107AE800009B002B05D0064A40F2D511009805F0FE
:107AF8003FFE00BF03B05DF804FB00BFB0230020C9
:107B08007029030000B583B008F040F80190019B8C
:107B18000093009B002B05D0044A4FF4EF710098A6
:107B280005F026FE00BF03B05DF804FB70290300D2
:107B380000B589B06B461022002118460AF0B0FA49
:107B480001238DF8043001238DF80C306B461B4A55
:107B580019461B4802F021FF0790079B0693069BD6
:107B6800002B05D0174A40F2ED11069805F000FEEB
:107B780000220121124802F09FFD0790079B059300
:107B8800059B002B05D00F4A40F2F111059805F02E
:107B9800EFFD0D4A00210A4802F06BFD0790079B94
:107BA8000493049B002B05D0064A4FF4FA710498FD
:107BB80005F0DEFD00BF09B05DF804FB497902005D
:107BC8006024002070290300382A030000B583B020
:107BD8000021094801F08AFF0190019B0093009B56
:107BE800002B05D0054A40F2FD11009805F0C0FDB4
:107BF80000BF03B05DF804FBE024002070290300F7
:107C080008B509F09FF80346002BFAD107F0D4FF16
:107C180000BF08BD08B5FFF70FFFFFF729FFFFF703
:107C2800A3FCFFF76FFFFFF751FEFFF781FFFFF798
:107C3800CDFFFFF7DBFEFFF71BFE094A094BD31AFE
:107C4800DB081B0443F003030749184609F008F84A
:107C5800FFF7A0FCFFF738FFFFF7D2FFFCE700BFF4
:107C68006C28030044280300F829030084B001901D
:107C78000B468DF8033013468DF80230002303932A
:107C8800019B032B3CD89DF80230012B0BD19DF8AA
:107C98000330012B04D1019BDBB20E33DBB200E0D1
:107CA80000238DF802309DF80330022B0FD0022BF1
:107CB80023DC002B16D0012B1FD11449019A13463F
:107CC8005B0013440B449DF802201A701AE00F4918
:107CD800019A13465B0013440B4401339DF80220BC
:107CE8001A700FE00949019A13465B0013440B44CC
:107CF80002339DF802201A7004E00723039301E081
:107D080007230393039B184604B07047802600207E
:107D180000B583B0012200210020FFF7A7FF0190E2
:107D2800019B002B04D0019B072B01D0019B1CE079
:107D3800072202210120FFF799FF0190019B002BE8
:107D480004D0019B072B01D0019B0EE004220221E5
:107D58000020FFF78BFF0190019B002B04D0019BB3
:107D6800072B01D0019B00E00023184603B05DF803
:107D780004FB00B583B0012202210020FFF776FF43
:107D88000190019B002B04D0019B072B01D0019B84
:107D98001CE0072202210120FFF768FF0190019BE8
:107DA800002B04D0019B072B01D0019B0EE00A2277
:107DB80000210020FFF75AFF0190019B002B04D0FF
:107DC800019B072B01D0019B00E00023184603B05C
:107DD8005DF804FB00B585B001900091019B1B88FC
:107DE800102B02D0112B18D02FE01A4B1B68002B38
:107DF8000DD1FFF78DFF0390039B002B07D0164B87
:107E08001B68002B03D0144B1B6803989847114B31
:107E18001B6801330F4A136017E00E4B1B68013BC8
:107E28000C4A13600B4B1B68002B0DD1FFF7A1FF09
:107E38000390039B002B07D0074B1B68002B03D034
:107E4800054B1B680398984700BF00BF05B05DF855
:107E580004FB00BF902600208C260020BFF34F8F24
:107E680000BF064BDB6803F4E0620449044B13438C
:107E7800CB60BFF34F8F00BF00BFFDE700ED00E010
:107E88000400FA0582B0164B1B680193154B1B685A
:107E98000093019B082B1FD1009B052B1AD801A228
:107EA80052F823F0C57E0200C97E0200CD7E020092
:107EB800D17E0200D57E0200D97E020001230CE0AB
:107EC80001230AE0012308E0012306E0012304E07E
:107ED800012302E0012300E00023184602B07047A6
:107EE800300100103401001082B0164B1B6801935A
:107EF800154B1B680093019B082B1FD1009B052B7A
:107F08001AD801A252F823F0297F02002D7F02001F
:107F1800317F0200357F0200397F02003D7F020079
:107F280001230CE001230AE0012308E0012306E015
:107F3800012304E0012302E0012300E000231846A6
:107F480002B07047300100103401001082B0164BA7
:107F58001B680193154B1B680093019B082B1FD1CD
:107F6800009B052B1AD801A252F823F08D7F02003E
:107F7800917F0200957F0200997F02009D7F020099
:107F8800A17F020001230CE000230AE0002308E09F
:107F9800002306E0002304E0002302E0002300E0C1
:107FA8000023184602B07047300100103401001059
:107FB80082B0164B1B680193154B1B680093019BFD
:107FC800082B1FD1009B052B1AD801A252F823F0C9
:107FD800F17F0200F57F0200F97F0200FD7F0200B9
:107FE800018002000580020001230CE000230AE062
:107FF800002308E0002306E0002304E0002302E059
:10800800002300E00023184602B07047300100103A
:108018003401001082B0164B1B680193154B1B6886
:108028000093019B082B1FD1009B052B1AD801A296
:1080380052F823F055800200598002005D8002004A
:1080480061800200658002006980020001230CE063
:1080580000230AE0002308E0002306E0002304E0F0
:10806800002302E0002300E00023184602B0704716
:10807800300100103401001082B0164B1B680193C8
:10808800154B1B680093019B082B1FD1009B052BE8
:108098001AD801A252F823F0B9800200BD8002006C
:1080A800C1800200C5800200C9800200CD800200A4
:1080B80001230CE000230AE0002308E0002306E087
:1080C800002304E0002302E0002300E00023184618
:1080D80002B07047300100103401001082B0164B16
:1080E8001B680193154B1B680093019B082B1FD13C
:1080F800009B052B1AD801A252F823F01D8102001B
:108108002181020025810200298102002D810200BF
:108118003181020001230CE001230AE0012308E079
:10812800012306E0012304E0012302E0012300E02B
:108138000023184602B070473001001034010010C7
:1081480082B0164B1B680193154B1B680093019B6B
:10815800082B1FD1009B052B1AD801A252F823F037
:108168008181020085810200898102008D810200DF
:10817800918102009581020000230CE000230AE0AF
:10818800002308E0002306E0012304E0012302E0C5
:10819800012300E00023184602B0704730010010A8
:1081A8003401001008B5FFF7CBFF0346002B07D0BA
:1081B8004FF010234FF08042D3F80832C2F85835F8
:1081C80000BF08BD00BF044BD3F80034002BFAD021
:1081D80000BF00BF704700BF00E0014000B583B09A
:1081E8000190054A019BC2F80435FFF7EBFF00BF79
:1081F80003B05DF804FB00BF00E00140024B034AF6
:108208001A6000BF704700BFE82300200090D00329
:1082180008B5FFF737FE0346002B0ED04FF080431A
:108228000022C3F80C214FF080430022C3F810212C
:108238004FF080430022C3F83825FFF755FE034668
:10824800002B76D04FF08053734AD3F80434C2F829
:1082580020354FF08053704AD3F80834C2F82435DB
:108268004FF080536C4AD3F80C34C2F828354FF0DD
:108278008053694AD3F81034C2F82C354FF0805334
:10828800654AD3F81434C2F830354FF08053624A47
:10829800D3F81834C2F834354FF080535E4AD3F817
:1082A8001C34C2F840354FF080535B4AD3F8203471
:1082B800C2F844354FF08053574AD3F82434C2F8F3
:1082C80048354FF08053544AD3F82834C2F84C3517
:1082D8004FF08053504AD3F82C34C2F850354FF041
:1082E80080534D4AD3F83034C2F854354FF0805398
:1082F800494AD3F83434C2F860354FF08053464ABF
:10830800D3F83834C2F864354FF08053424AD3F872
:108318003C34C2F868354FF080533F4AD3F84034B4
:10832800C2F86C354FF080533B4AD3F84434C2F856
:108338007035FFF70BFE0346002B02D0374B384A47
:108348001A60FFF735FE0346002B03D0354BFB229E
:10835800C3F81825FFF75EFE0346002B0AD0324B00
:108368001B6823F00F02314B1B6803F00F032E49E3
:1083780013430B60FFF780FE0346002B03D02C4B02
:108388004FF400721A60FFF7A9FE0346002B0DD0C8
:108398004FF08043D3F8003403F00103002B05D0DD
:1083A8004FF080436FF00102C3F80024214BD3F84B
:1083B8008830204A43F47003C2F88830BFF34F8FE7
:1083C80000BFBFF36F8F00BFFFF7ECFE4FF0102325
:1083D800D3F80032002B05DB4FF01023D3F804321A
:1083E800002B15DA0120FFF7F9FE4FF010231222B7
:1083F800C3F80022FFF7E6FE4FF010231222C3F85D
:108408000422FFF7DFFE0020FFF7E8FEFFF726FD56
:10841800FFF7F4FE00BF08BD00C000408C560040C6
:108428004881030000F00040E40E004058020010AC
:108438004096024000ED00E086B0039001921A4693
:108448000B46ADF80A3013468DF80930039B002B14
:1084580002D0019B002B01D100235CE00023ADF882
:1084680016300CE0BDF81630039A13441B789AB204
:10847800BDF8163013449BB20133ADF81630BDF881
:1084880016305A1CBDF80A309A420FDA019B1B8835
:10849800BDF816209A42E5D3BDF816300133039A89
:1084A80013441B789DF809209A42DBD1BDF81620A9
:1084B800BDF80A309A4201D300232CE0BDF81630EB
:1084C8000233ADF81430BDF81630039A13441B7804
:1084D800002B08D0BDF81630039A13441B789BB2C2
:1084E800013B9BB200E00023ADF81230BDF812301A
:1084F800002B08D0BDF81420BDF812301A44BDF87E
:108508000A309A4201DD002305E0019BBDF81420E2
:108518001A80BDF81230184606B0704700B589B009
:1085280003900B460192ADF80A300023ADF81630DF
:10853800019B002B01D100232DE00DF11602BDF89F
:108548000A1009230398FFF777FF0346ADF81E309A
:10855800BDF816301A46039B13440693BDF816302F
:10856800002B17D0BDF81E30002B13D0019809F04E
:1085780031FD0246BDF81E309A420BD1BDF81E30BF
:108588001A460699019809F0BBFD0346002B01D154
:10859800012300E00023184609B05DF804FB30B55C
:1085A8008FB00190009100230293009B002B1AD0FA
:1085B80000230D9314E06B460D99184606F04FFB07
:1085C8000346002B09D0029B5A1C02920D9A92B2C4
:1085D8005B0038336B4423F82C2C0D9B01330D932F
:1085E8000D9B132BE7D9019B1D4602AC0FCC0FC581
:1085F8000FCC0FC594E8070085E8070001980FB075
:1086080030BD000000B583B00346ADF80630BDF8B4
:108618000630132B01D900230CE0BDF806301946AB
:10862800064806F0EBFABDF806301946044806F08D
:10863800E5FA0123184603B05DF804FB9C260020E8
:108648009826002000B585B00346ADF80630002313
:1086580003930DE0039B9B00094A13440433BDF8C0
:1086680006201146184606F0E1FA039B01330393EE
:10867800039B1D2BEED900BF00BF05B05DF804FBBE
:108688009426002000B583B00346ADF80630BDF847
:1086980006301946034806F0C9FA00BF03B05DF872
:1086A80004FB00BF9C26002030B59BB0184B9B688C
:1086B800DB431893164B5A6818AB1146184606F058
:1086C8002DFB189A6B4611461846FFF768FF0DAC4C
:1086D8006D460FCD0FC40FCD0FC495E8070084E891
:1086E8000700002319930BE0199B5B0068336B4468
:1086F80033F8303C1846FFF7A5FF199B013319934F
:108708000D9B199A9A42EFD300BF00BF1BB030BD32
:108718009426002000B583B001900B46ADF80230D6
:1087280013468DF801309DF80130002B06D0BDF8B6
:1087380002301946019806F061FA05E0BDF80230EA
:108748001946019806F072FA00BF03B05DF804FB01
:1087580000B585B001900091019B9B88ADF80E3063
:10876800019B1B88103B0A2B00F2888001A252F85B
:1087780023F000BFA9870200E58702008588020070
:1087880085880200858802008588020085880200A5
:1087980085880200858802004F880200F187020060
:1087A800FFF782FFBDF80E301846FFF72BFF034690
:1087B80083F00103DBB2002B05D0324AF0210420FC
:1087C80004F0D6FF57E0019BDB7B022B53D1BDF8A9
:1087D8000E3019462C4806F011FA4CE0BDF80E3060
:1087E8001846FFF74FFF49E0019B1B7AC3F30313B9
:1087F800DBB28DF80D309DF80D30032B8CBF0123B3
:108808000023DAB2BDF80E3019462048FFF782FF80
:108818009DF80D30022B8CBF01230023DAB2BDF87E
:108828000E3019461A48FFF775FF9DF80D30012BD9
:108838008CBF01230023DAB2BDF80E301946154863
:10884800FFF768FF1AE0019B1B7A002B15D1019BEB
:108858005B7AC3F3C003DBB2002B14BF01230023F0
:108868008DF80C309DF80C20BDF80E3019460748DD
:10887800FFF750FF01E000BF00E000BF00BF05B0F8
:108888005DF804FB402A0300A0260020AC26002047
:10889800A8260020A426002084B00190002303937A
:1088A80016E0104A039B9B0013449A78019B9B781F
:1088B8009A420AD10B4A039B32F82320019B1B885A
:1088C8009A4202D1084B1B6808E0039B01330393CB
:1088D800064B1B68039A9A42E3D30023184604B058
:1088E800704700BF102700202827002030270020CD
:1088F80000B583B0019000910198FFF7CDFF0346C2
:10890800002B01D0002314E00C4B1B68052B0FD85B
:108918000A4B1B680A4A01999B0013440A461068CF
:108928001860064B1B680133044A1360002300E0FB
:108938000423184603B05DF804FB00BF302700206D
:108948001027002000B585B001900023039311E0A3
:10895800019A039BDB01134403F553731B68039AC5
:10896800D20102F5347201990A4410469847039BD4
:1089780001330393064B1B68039A9A42E8D3019B81
:108988000022C3F8CC2200BF05B05DF804FB00BF8D
:108998003027002000B5A3B001900B46ADF8023097
:1089A80003AB7C220021184609F07AFBBDF802309F
:1089B800ADF80E3003238DF80C30019B0493064B61
:1089C8001B68002B04D0044B1B6803AA1046984769
:1089D80000BF23B05DF804FB2827002000B5A7B02E
:1089E800039002911346ADF80630039B93F8C63204
:1089F8001A46762302FB03F3039A13442593259B17
:108A08001846FFF749FF2490249B002B12D005AB92
:108A18007C220021184609F043FB01238DF814300D
:108A2800BDF80630ADF81630029B069305AA249BC4
:108A38001046984700BF27B05DF804FB00B587B023
:108A4800039002911346ADF80630029B0593059BEF
:108A5800002283F8C822BDF806301A460399059803
:108A6800FFF7BCFFBDF8063019460598FFF792FFDF
:108A780000BF07B05DF804FB00B585B001900B4658
:108A88008DF803301346ADF80030019B93F8C632D9
:108A98001A46762302FB03F3019A13440393039BBC
:108AA8001846FFF7F9FE0290029B002B52D0019B5B
:108AB800D3F8CC32052B4DD8019BD3F8CC32019A90
:108AC800DB01134403F2D223BDF800201A80019B76
:108AD800D3F8CC32019ADB01134403F53473039ABB
:108AE800043311467622184609F0A4FA9DF803309B
:108AF800002B0AD0019BD3F8CC32019ADB01134436
:108B080003F5347300221A7009E0019BD3F8CC32C4
:108B1800019ADB01134403F5347302221A70019B96
:108B2800D3F8CC32019ADB01134403F55373029A4C
:108B38001A60019BD3F8CC325A1C019BC3F8CC2293
:108B4800019BD3F8CC22054B1B689A4202D10198AD
:108B5800FFF7F8FE00BF05B05DF804FB30270020E2
:108B680000B58DB001900B46ADF8023002AB202263
:108B78000021184609F094FA019B93F8C732013393
:108B8800DAB2019B83F8C722019B93F8C7321A46D1
:108B98002A4B1B689A4244D2019B002283F8C522C3
:108BA800019B93F8C6320133DAB2019B83F8C622DF
:108BB800019B93F8C6321A46762302FB03F3019A07
:108BC80013440B93019B93F8C6320B991C4A9B00E4
:108BD8001344186808600B9B00221A7102238DF851
:108BE80008300123ADF818300B9A0DF11A031268FA
:108BF8001A60019B0593134B0493134B1B68BDF834
:108C0800022002A9184601F01BFB0A900A9B002BC0
:108C180011D0BDF802301A4601990A98FFF70EFFE5
:108C280009E0019B002283F8C822BDF802301946EA
:108C38000198FFF7AFFE0DB05DF804FB3027002068
:108C480010270020458A02002C27002082B00190BE
:108C58000091009B1A89019B93F8C6321846019926
:108C6800762300FB03F30B4408331B889A4201D296
:108C7800012300E00023184602B0704784B0039037
:108C8800029101920093019B002B25D1029B1A8926
:108C9800039B93F8C63218460399762300FB03F327
:108CA8000B4408331B889A4201D100232AE0029B17
:108CB8001B8901339AB2009B1A80039B93F8C63232
:108CC8001946039A762301FB03F3134408331A88E1
:108CD800009B5A80012315E0029B1B890133019AEE
:108CE800D288934201D100230CE0029B1B890133F7
:108CF8009AB2009B1A80019BDB88013B9AB2009BC9
:108D08005A800123184604B07047000000B58FB0A0
:108D180001900B46ADF8023002AB20220021184624
:108D280009F0BEF90AAB04220021184609F0B8F987
:108D3800019B93F8C6321A46762302FB03F3019A85
:108D480013440D93019B93F8C532002B21D0019B4E
:108D580093F8C532013B8DF83330019B93F8C63246
:108D68001A46762302FB03F3019A13440D939DF8E8
:108D780033201346DB0013445B0008330D9A134479
:108D880002330B930B9B1B8901339BB2ADF8283040
:108D980003E00D9BDB88ADF828300D9B1B89ADF8EF
:108DA8002A3003238DF808300A9B0693019B05930C
:108DB800074B0493074B1B68BDF8022002A918460D
:108DC80001F03EFA034618460FB05DF804FB00BFF9
:108DD800458A02002C27002000B593B00390029129
:108DE8001346ADF8063000238DF8433005AB20223A
:108DF8000021184609F054F9039B93F8C6321A4625
:108E0800762302FB03F3039A13440E93039B93F810
:108E1800C5321A461346DB0013445B0008330E9A2A
:108E2800134402331193039B93F8C53201330E9A0E
:108E38001279934209D10DAB002211990398FFF7DB
:108E48001DFF03468DF843303DE0039B93F8C53280
:108E58008DF8423031E09DF842200E9B1B79013B92
:108E68009A4202D100230F930BE09DF842305A1C1E
:108E78001346DB0013445B0008330E9A1344023395
:108E88000F930DAB0F9A11990398FFF7F7FE03465E
:108E9800002B03D001238DF8433014E00F9B11936E
:108EA800039B93F8C5320133DAB2039B83F8C522DA
:108EB8009DF8423001338DF842300E9B1B799DF8A6
:108EC80042209A42C7D39DF8433083F00103DBB2B6
:108ED800002B04D0029B01221A70002314E0029B8D
:108EE80000221A7004238DF814300D9B0993039BFC
:108EF8000893074B0793074B1B68BDF8062005A985
:108F0800184601F09DF90346184613B05DF804FBB6
:108F1800458A02002C27002000B587B001900091F7
:108F2800019B93F8C6321A46762302FB03F3019A93
:108F380013440393009B1A88019BB3F8CA329A42E0
:108F480061D1009B5B88002B4FD1009B06330593B2
:108F5800039B059A0633063212681A60019B93F840
:108F6800C4328DF81330059B1B888DF812309DF89C
:108F780013209DF812301344062B0ADC019B93F84A
:108F8800C4229DF812301344DAB2019B83F8C4223C
:108F980019E0019B062283F8C4221D4A1D4BD31AEF
:108FA800DB081B0443F002031B49184607F058FE70
:108FB800174A184BD31ADB081B0443F0020317495E
:108FC800184607F04DFE009B1B8819460198FFF7CD
:108FD8009DFE0290029B002B16D0009B1B881A4610
:108FE80001990298FFF72AFD0EE0009B1B881A469C
:108FF80000210198FFF740FD009B1B881946019846
:10900800FFF7AEFD00E000BF07B05DF804FB00BF4E
:109018008428030044280300802A0300A02A0300B0
:1090280000B58DB00190009100238DF82F30009B82
:109038001A88019BB3F8CA329A4240F0FC80019B1F
:1090480093F8C6321A46762302FB03F3019A1344B7
:109058000893009B5B88002B40F0BC80009B063384
:109068000793089B1B798DF81B30079B1B888DF88D
:109078001A309DF81B209DF81A301344062B08DC83
:10908800089B1A799DF81A301344DAB2089B1A71B2
:109098001AE0089B06221A71694A6A4BD31ADB0840
:1090A8001B0443F00200089B1B881A46664907F018
:1090B800E5FD634A634BD31ADB081B0443F0020344
:1090C8006249184607F0CCFD9DF81B300A9300232F
:1090D800099345E008990A9A1346DB0013445B009C
:1090E8000B4403F108010798099A13469B0013449F
:1090F8005B00C2188B1C02321068516818605960F6
:1091080012891A8108990A9A1346DB0013445B00F6
:109118000B44143300221A8008990A9A1346DB007C
:1091280013445B000B44163300221A8008990A9AEC
:109138001346DB0013445B000B44183300221A80EB
:1091480008990A9A1346DB0013445B000B441A3350
:1091580000221A800A9B01330A93099B0133099361
:10916800089B1B791A460A9B9342B3D30A9B5A1E43
:109178001346DB0013445B000833089A1344023398
:10918800059305990198FFF761FD034683F00103F4
:10919800DBB2002B03D1089B1B79062B03D10123DB
:1091A8008DF82F3019E0089B1A79019B83F8C522A6
:1091B800009B1B8819460198FFF7A8FD0490049BA3
:1091C800002B0AD0009B1B881A4601990498FFF7C8
:1091D80035FC31E001238DF82F309DF82F30002B1E
:1091E8002AD0019B002283F8C522009B1A880DF122
:1091F8000F0319460198FFF7EFFD0490049B002B1D
:1092080007D0009B1B881A4601990498FFF716FCA3
:1092180012E09DF80F30002B0ED0009B1B881A46D9
:1092280001210198FFF728FC009B1B88194601982B
:10923800FFF796FC00E000BF0DB05DF804FB00BF2F
:109248008428030044280300E82A0300302B030085
:1092580000B589B001900091009B1A88019BB3F872
:10926800CA329A4240F0CC80019B93F8C6321A4623
:10927800762302FB03F3019A13440693009B0633FB
:109288000593019B93F8C5321A461346DB00134435
:109298005B000833069A134402330493009B5B88EF
:1092A800002B70D10023079365E00599079A1346B0
:1092B8005B0013445B000B4404331B88A3F5245361
:1092C800082B45D801A252F823F000BF11930200E1
:1092D80029930200F992020059930200599302005F
:1092E80059930200599302005993020041930200D6
:1092F8000599079A13465B0013445B000B4402333D
:109308001A88049B5A8123E00599079A13465B0043
:1093180013445B000B4402331A88049B9A8117E0BC
:109328000599079A13465B0013445B000B4402330C
:109338001A88049BDA810BE00599079A13465B00AB
:1093480013445B000B4402331A88049B1A8200BF43
:10935800049B5B89002B0BD0049B9B89002B07D0B7
:10936800049BDB89002B03D0049B1B8A002B09D1AB
:10937800079B01330793059B1B881A46079B93425B
:1093880093D300E000BF00238DF80B30019B93F8C6
:10939800C5320133069A1279934203D101238DF81D
:1093A8000B301BE0019B93F8C5320133DAB2019B05
:1093B80083F8C522009B1A880DF10B031946019802
:1093C800FFF70AFD0390039B002B07D0009B1B8827
:1093D8001A4601990398FFF731FB12E09DF80B300C
:1093E800002B0ED0009B1B881A4601210198FFF71D
:1093F80043FB009B1B8819460198FFF7B1FB00E06F
:1094080000BF09B05DF804FB84B00190002303930A
:10941800019B002B01D10E231AE0019B1B68002B36
:1094280001D10E2314E0019B5B68002B01D10E23B0
:109438000EE0094B00221A60084B01221A70019BAA
:109448001B68074A1360019B5B68064A1360039B0D
:10945800184604B0704700BF30270020342700208A
:10946800282700202C27002000B583B00190019BFD
:10947800002B01D10E230FE0094B1B7883F0010369
:10948800DBB2002B01D0082306E0064B1B68194607
:109498000198FFF72DFA0346184603B05DF804FB60
:1094A800342700202827002000B58FB001900B46F4
:1094B800ADF802304FF4BA620021019808F0F0FDCF
:1094C80003AB20220021184608F0EAFD2D4B1B684B
:1094D800BDF802201146184600F050FF0D900D9B74
:1094E8000C930C9B002B01D00C9B47E0019BBDF813
:1094F8000220A3F8CA22019B0022C3F8CC22019BB8
:10950800002283F8C722019B002283F8C622019B10
:10951800002283F8C522019B93F8C6321A467623A7
:1095280002FB03F3019A13440B93019B93F8C63291
:109538000B99154A9B0013441868086002238DF89C
:109548000C300123ADF81C300B9A0DF11E03126884
:109558001A60019B06930D4B05930A4B1B68BDF8D7
:10956800022003A9184600F06BFE0D900D9B002BFE
:1095780003D1019B012283F8C8220D9B18460FB026
:109588005DF804FB2C27002010270020458A0200E4
:1095980000B583B001900B46ADF80230019B002B5B
:1095A80001D10E231CE0104B1B7883F00103DBB2C2
:1095B800002B01D0082313E00C4B1B68002B01D1B2
:1095C80008230DE0019B93F8C832002B01D011232A
:1095D80006E0BDF8023019460198FFF765FF03461B
:1095E800184603B05DF804FB34270020302700201C
:1095F80082B001900091009B1A88019BB3F8CA328F
:109608009A4208D1019B002283F8C822019B4FF699
:10961800FF72A3F8CA2200BF02B0704700B585B038
:1096280001900091019B002B36D0009B002B33D07A
:109638001B4B1B7883F00103DBB2002B2CD1009B62
:109648000393019B1B88332B17D0332B23DC322B3E
:109658000CD0322B1FDC112B16D0302B1BD1019BC9
:10966800043319460398FFF757FC15E0019B0433B0
:1096780019460398FFF7D4FC0EE0019B0433194602
:109688000398FFF7E5FD07E0019B043319460398AB
:10969800FFF7AEFF00E000BF05B05DF804FB00BFB8
:1096A8003427002090DF704700BF1846A5DF7047B9
:1096B80000BF1846B5DF704700BF184682B001905A
:1096C800019B17221A80019B17225A80019B0022B6
:1096D8001A71019B00225A71019B1B229A71019BEE
:1096E8001B22DA7100BF02B07047000030B589B0A4
:1096F80003460A46ADF806301346ADF80430BDF807
:109708000430ADF81430BDF80430ADF8163000233D
:10971800ADF818300023ADF81A3003AB00221A60F8
:109728009A8003AA05A9BDF806301846FFF7BAFFC4
:109738000790079B002B39D01E4A1F4BD31ADB0812
:109748001B0443F00104BDF80650079806F052FDCB
:1097580003462A461949204607F0A1FABDF80C30FD
:10976800002B03D1BDF80E30002B0ED0114A124B3E
:10977800D31ADB081B0443F00100BDF80C301A466D
:10978800BDF80E300E4907F08AFABDF81030002BEC
:109798000CD0084A084BD31ADB081B0443F001031A
:1097A800BDF810200749184607F068FA079B1846C5
:1097B80009B030BDAC280300442803009C2B0300EB
:1097C800E82B0300282C030010B586B00190009107
:1097D800009B9B88ADF80E30BDF80E30DB00019A77
:1097E800134406330593019B1A79059B9A71009BD4
:1097F800DB7B012B02D0022B05D009E0019B1A88E4
:10980800059B1A8004E0019B5A88059B1A8000BFBB
:10981800059B1A88059B5B889A4226D9059B1A885E
:10982800BDF80E3011461846FFF740FF0490049B20
:10983800002B03D1059B01225A7116E0049B112BC2
:1098480003D1059B01221A710FE0114A114BD31A5B
:10985800DB081B0443F00104049806F0CBFC034624
:109868001A460D49204607F009FA059B9A79059B87
:10987800DB799A4208D9059B9B799AB2BDF80E30DC
:1098880011461846FFF732FF00BF06B010BD00BFF3
:10989800AC28030044280300802C030000B583B0E3
:1098A80001900091009B9B88DB00019A13440633CA
:1098B8001846FFF703FF00BF03B05DF804FB00B5CF
:1098C80087B001900091009B9B88ADF81630009BF3
:1098D8005B89ADF81430BDF81630DB00019A1344EB
:1098E80006330493049B1B88BDF81420934228BFB9
:1098F80013469AB2049B5A80049B5B88172B38BF87
:1099080017239AB2049B5A80019B1B69002B15D020
:10991800049B5B79002B11D040F67723ADF8083013
:10992800BDF81630ADF80A30049B5B88ADF80C30F2
:10993800019B1B6902AA114601989847049B0022C3
:109948005A71049B00221A7100BF07B05DF804FB2E
:1099580010B588B001900091009B9B88ADF81A3033
:10996800009BDB88ADF81830BDF81A30DB00019A8F
:10997800134406330593BDF81830172B38BF172347
:10998800ADF81830059B1B88BDF81820934228BFF6
:1099980013469AB2059B5A80059B00221A71059BB3
:1099A8001A88BDF81A3011461846FFF783FE07904B
:1099B800079B002B0FD0174A174BD31ADB081B0441
:1099C80043F00104079806F015FC03461A461349AC
:1099D800204607F053F9059B5B79002B16D1019BB4
:1099E8001B69002B13D040F67723ADF80C30BDF877
:1099F8001A30ADF80E30059B5B88ADF81030019B2E
:109A08001B6903AA11460198984700E000BF08B0F7
:109A180010BD00BFAC28030044280300B42C030089
:109A280030B591B001900091009B04AC1D1D0FCD85
:109A38000FC40FCD0FC495E8070084E80700BDF8F0
:109A48001030ADF83E30BDF81420BDF83E30D1B22C
:109A5800019ADB0013440A465A73019B1B69002BC9
:109A680019D002AB00221A609A804DF67A23ADF81D
:109A78000830BDF83E30ADF80A30BDF83E30019AE6
:109A8800DB0013445B7B8DF80C30019B1B6902AA39
:109A980011460198984700BF11B030BD00B587B096
:109AA80001900091009B04330593059B1B88DB0004
:109AB800019A134406330493059B9B888DF80F3055
:109AC800049B9B799DF80F20934228BF13468DF87D
:109AD8000E30059B1B889DF80E2092B21146184641
:109AE800FFF704FE00BF07B05DF804FB00B585B0C2
:109AF80001900091019B002B01D10E231DE0019BD9
:109B0800009A1A61019B17221A80019B17225A801A
:109B1800019B1B221A71002303930AE0039BDB00BD
:109B2800019A134406331846FFF7C8FD039B013317
:109B38000393039B002BF1D00023184605B05DF872
:109B480004FB000010B586B001900091009B0593BE
:109B5800019B9B88ADF81230BDF81230002B40F005
:109B68009880019B1B88552B48D0552B55DC242BFE
:109B780032DC102B51DB103B142B4ED801A252F8CB
:109B880023F000BFE79B0200F19B0200239C020028
:109B9800239C0200239C0200239C0200239C0200B9
:109BA800239C0200239C0200239C0200239C0200A9
:109BB800239C0200239C0200239C0200239C020099
:109BC800239C0200239C0200239C0200239C020089
:109BD800199C02000F9C02003A2B0AD01DE0019943
:109BE8000598FFF7F1FD19E001990598FFF756FE72
:109BF80014E001990598FFF762FE0FE001990598B6
:109C0800FFF7A6FE0AE001990598FFF709FF05E0AE
:109C180001990598FFF742FF00E000BFBDF8123038
:109C2800059ADB0013449B7A002B33D0BDF8123021
:109C3800059ADB001344DA88BDF81230114618463D
:109C4800FFF734FD0390039B002B0ED1BDF81230B3
:109C5800059ADB00134400229A72BDF81230059A67
:109C6800DB0013440122DA7214E0039B112B11D09C
:109C7800094A0A4BD31ADB081B0443F00104039872
:109C880006F0B8FA03461A460549204606F0F6FFDC
:109C980000E000BF06B010BDAC2803004428030054
:109CA800802C03009BDF704700BF18469DDF70477C
:109CB80000BF18469EDF704700BF1846A1DF7047F7
:109CC80000BF1846A3DF704700BF1846AEDF7047D5
:109CD80000BF184600B585B001900091009B103375
:109CE8000393039BDB88102B01D9092319E0039BFD
:109CF800DB881946019805F058FD0246009B5A601A
:109D0800009B5B68002B01D104230AE0009B586884
:109D1800039B9968039BDB881A46002305F092FE93
:109D28000023184605B05DF804FB00B585B0019026
:109D38000091009B10330393039B9B681B88102B97
:109D480001D9092324E0039B9B681B880233194629
:109D5800019805F02AFD0246009B5A60009B5B684B
:109D6800002B01D1042313E0009B5868039B9968DA
:109D78000023022205F066FE009B5868039BD96801
:109D8800039B9B681B881A46022305F05BFE002391
:109D9800184605B05DF804FB00B587B005900B4682
:109DA8000392ADF81230039B002B1ED0114A124BC0
:109DB800D31ADB081B0443F00100059B1B781946E6
:109DC800BDF81220039B009313460A460B4906F080
:109DD8007AFF059B9B68002B07D0059B9B68059A1B
:109DE800D168BDF812200398984700BF07B05DF806
:109DF80004FB00BFB428030044280300F02C030030
:109E080000B597B001900B46ADF802300CAB0122BB
:109E18001946019806F014F81590159B002B40F090
:109E2800AC809DF83030052B7ED801A252F823F083
:109E3800519E0200679E0200919E0200A99E0200A8
:109E4800BF9E0200D59E0200BDF84010BDF842201A
:109E5800BDF802301846FFF731FF159071E008ABE6
:109E680012930D981299BDF846301A46002305F052
:109E780007FE0CAB03F11002BDF80230114618467C
:109E8800FFF720FF15905CE0BDF840100CAB03F124
:109E98001202BDF802301846FFF704FF159050E093
:109EA8000CAB03F11002BDF8023011461846FFF75B
:109EB800FDFE159045E00CAB03F11002BDF8023031
:109EC80011461846FFF7F6FE15903AE004AB1393D7
:109ED8000D980DF10E010023022205F0D1FD0DF1C0
:109EE8000E0312930D981399129B1B881A4602238E
:109EF80005F0C6FDBDF80E30ADF852300CAB03F1DD
:109F08001002BDF8023011461846FFF7DFFE159023
:109F1800159B002B14D1BDF80E30BDF852209A4283
:109F28000ED00C2315930BE0164A174BD31ADB08F7
:109F38001B0443F002031549184606F091FE00E0A1
:109F480000BF159B112B18D09DF830301A46104BC6
:109F580053F82230002B03D00D9B184605F07CFCEB
:109F68000CAB00221946019805F06AFFBDF80210F3
:109F78000CAB159A1846FFF70FFF00BF17B05DF836
:109F880004FB00BFB4280300442803003C2D030051
:109F9800582D030000B58FB00190019BDB680DF1CF
:109FA8002E010022184605F04BFF0D9031E0019B71
:109FB8009A68BDF82E3019460B469B000B449B004F
:109FC80013440C9303AB002219460C9805F038FF94
:109FD8000D9012E09DF80C301A46124B53F82230BF
:109FE800002B03D0049B184605F036FC03AB002277
:109FF80019460C9805F024FF0D900D9B002BE9D015
:10A00800019BDB680DF12E010022184605F018FFB0
:10A018000D900D9B002BCAD000BF00BF0FB05DF89C
:10A0280004FB00BF582D030000B585B001900B4616
:10A03800ADF8023000230393019B1B78052B63D8EE
:10A0480001A252F823F000BF69A002007FA002001D
:10A0580095A00200ADA00200C3A00200D9A0020092
:10A06800019B198A019B5A8ABDF802301846FFF7EE
:10A0780025FE039055E0019B03F11002BDF8023064
:10A0880011461846FFF71EFE03904AE0019B198A05
:10A09800019B03F11202BDF802301846FFF702FED9
:10A0A80003903EE0019B03F11002BDF80230114617
:10A0B8001846FFF7FBFD039033E0019B03F1100204
:10A0C800BDF8023011461846FFF7F4FD039028E06A
:10A0D800019B9B691B88ADF80A30019B03F11002B4
:10A0E800BDF8023011461846FFF7F0FD0390039BB8
:10A0F800002B15D1019B9B691B88BDF80A209A4249
:10A108000ED00C2303930BE00E4A0F4BD31ADB0837
:10A118001B0443F002030D49184606F0A1FD00E0B8
:10A1280000BF039B112B01D1002307E0BDF80230CB
:10A13800039A19460198FFF72FFE0123184605B028
:10A148005DF804FBB4280300442803003C2D0300F9
:10A1580084B001900B46ADF802300023ADF80E3004
:10A1680012E0019B5A68BDF80E305B0013441B884F
:10A17800BDF802209A4202D1BDF80E300CE0BDF8BD
:10A188000E300133ADF80E30019B1B88BDF80E2050
:10A198009A42E6D3BDF80E30184604B0704784B032
:10A1A80001900B46ADF802300023ADF80E301AE0EE
:10A1B800019B5A68BDF80E305B0013441B884FF6AC
:10A1C800FF7293420AD1019B5A68BDF80E305B00BA
:10A1D8001344BDF802201A8000230BE0BDF80E30AE
:10A1E8000133ADF80E30019B1B88BDF80E209A4252
:10A1F800DED30423184604B0704784B001900023CE
:10A20800ADF80E3011E0019B5A68BDF80E305B00C6
:10A2180013441B884FF6FF72934201D001230BE0D1
:10A22800BDF80E300133ADF80E30019B1B88BDF828
:10A238000E209A42E7D30023184604B07047000066
:10A2480000B589B0039002911346ADF8063000239B
:10A258000693039B002B01D10E2389E0029B002B60
:10A2680001D10E2384E00398FFF794FEBDF8063071
:10A2780019460398FFF76CFF0346ADF81E30029BA2
:10A288001B78052B05D8039B1B88BDF81E209A4216
:10A2980001D107236CE0039B9968BDF81E20134683
:10A2A8009B0013449B000B44184605F063FE0346CD
:10A2B800002B0ED0BDF8063019460298FFF7B4FE01
:10A2C80003468DF817309DF81730002B01D0069BF8
:10A2D8004EE0029B1B781A46274B53F82230002B7E
:10A2E80018D0039B1B69002B01D10E2340E0029B71
:10A2F8001B781A46204B53F82230039A12690299A8
:10A30800104698470690069B0493049B002B01D0A7
:10A31800049B2DE0039B9968BDF81E2013469B0003
:10A3280013449B000B440299184605F0D1FC069093
:10A33800069B002B0CD0029B1B781A460E4B53F839
:10A348002230002B04D0029B5B68184605F084FA83
:10A35800039B9968BDF81E2013469B0013449B007D
:10A368000B44BDF8062011461846FFF749FD069B29
:10A37800184609B05DF804FB582D030000B587B0F6
:10A3880001900B46ADF8023000230593019B002B8A
:10A3980001D10E232FE00198FFF7FCFDBDF8023034
:10A3A80019460198FFF7D4FE0346ADF81230019B19
:10A3B8001B88BDF812209A421CD10198FFF71DFF97
:10A3C800034683F00103DBB2002B05D0019B1B6918
:10A3D800184605F0DFF90590BDF8023019460198D6
:10A3E800FFF7DDFE0590059B0393039B002B01D02F
:10A3F800039B00E0059B184607B05DF804FB00B519
:10A4080087B001900091009B0493019B002B5AD0C8
:10A41800049B002B57D0019B1B88112B04D1019B57
:10A428009B88ADF8163018E0019B1B882F2B08D9A4
:10A43800019B1B884F2B04D8019B9B88ADF81630D5
:10A448000BE0019B1B884F2B3FD9019B1B886F2B6F
:10A458003BD8019B9B88ADF81630BDF816301946DD
:10A468000498FFF775FE0346ADF80E30049B1A8872
:10A47800BDF80E309A422AD0019B1B88112B11D1AE
:10A48800049B5A68BDF80E305B0013444FF6FF7208
:10A498001A80049BDB680DF10E021146184605F080
:10A4A80017FC15E0049B9A68BDF80E3019460B4658
:10A4B8009B000B449B001344BDF816201146184618
:10A4C800FFF79EFC04E000BF02E000BF00E000BF11
:10A4D80007B05DF804FB8ADF704700BF18468BDFC2
:10A4E800704700BF18468CDF704700BF184600B59C
:10A4F8008DB001900091009B02330993019B2E338C
:10A508000893019B24330B93019B93F82C308DF80F
:10A518002B30019B93F8233083F00103DBB2002B2F
:10A5280021D100F035FA02AB14220021184607F0B9
:10A53800B7FD9DF82B300B9A08990998FFF7D3FFC0
:10A54800079005238DF80830079B0393079B002B82
:10A558000AD0019BDB6B002B06D0019BDB6B02AAA8
:10A568001046984700E000BF0DB05DF804FB00B549
:10A5780087B001900091009B0493009B93F82030D2
:10A588008DF80F30019B9B8BADF80C3000238DF8B4
:10A59800173015E0019B98699DF817305B01049A04
:10A5A8001A44BDF80C301946FDF7B8FF0346002BD6
:10A5B80001D001230BE09DF8173001338DF81730D7
:10A5C8009DF817209DF80F309A42E3D300231846D0
:10A5D80007B05DF804FB10B586B001900091019BAF
:10A5E80020330493009807F0F5FC03468DF80F30EC
:10A5F8009DF80F30002B03D09DF80F30202B01D988
:10A608000C2333E0049B1B78002B01D004232DE09E
:10A6180000238DF8173012E09DF817305B01019A7E
:10A6280013440099184607F0A1FC0346002B01D1FA
:10A6380000231BE09DF8173001338DF817309DF883
:10A648001730002BE8D0049B1B785A1CD1B2049A0F
:10A6580011705B01019AD418009807F0BBFC0346FF
:10A668001A460099204607F0E5FC0023184606B074
:10A6780010BD00B587B003900B4601928DF80B30E2
:10A68800039B002B01D10E2311E0019B002B01D16C
:10A698000E230CE09DF80B30002B07D1019B05938E
:10A6A80005990398FFF797FF034600E0072318462C
:10A6B80007B05DF804FB000000B585B001900B46BB
:10A6C8008DF8033013468DF80230019B002B01D121
:10A6D8000E233DE09DF8033003F00203002B19D14F
:10A6E8009DF8033003F00103002B13D19DF80330CC
:10A6F80003F00403002B0DD19DF8033003F0100381
:10A70800002B07D19DF8033003F00803002B01D17B
:10A7180007231DE0019800F021F80390039B002B0C
:10A7280004D00D4940F2AF20FCF7FCFE019B0293D8
:10A738009DF8033003F00103002B03D0029B012294
:10A7480083F82120029B9DF8022083F82220002311
:10A75800184605B05DF804FB7C2D030084B0019019
:10A76800019B002B01D10E2306E0019B21330393AB
:10A77800039B00221A700023184604B0704700B5E6
:10A788008BB00190009100238DF8273000238DF8BD
:10A79800263003AB14220021184607F081FC019BE8
:10A7A8002E330793019800F081F80346002B14D04C
:10A7B80002238DF80C30009B0493019BDB6B03AAEA
:10A7C80010469847019B603319460020FFF783FE27
:10A7D80000990198FFF78BFE65E0019B93F8223002
:10A7E8008DF8243000238DF82530019B93F8213013
:10A7F8008DF823309DF82330002B19D09DF8273091
:10A8080001338DF8273001990098FFF7B0FE034611
:10A81800002B0DD09DF8263001338DF826309DF899
:10A82800143043F001038DF8143001238DF82530DE
:10A83800009B04939DF82430002B0DD09DF8262012
:10A848009DF827309A4207D100238DF80C300099E3
:10A858000198FFF74CFE17E09DF8243083F00103C0
:10A86800DBB2002B0BD09DF82530002B07D000233E
:10A878008DF80C3000990198FFF739FE04E00323A6
:10A888008DF80C30009B0493019BDB6B002B04D0EC
:10A89800019BDB6B03AA10469847019B603319465E
:10A8A8000020FFF718FE0BB05DF804FB82B00190A2
:10A8B800019B93F82E3003F01803DBB2082B07D066
:10A8C800019B93F82E3003F01803DBB2182B01D14B
:10A8D800012300E00023184602B0704782B00190BF
:10A8E800019A92F82E3043F0040382F82E30019B2F
:10A8F800A0221A86019B50225A86019B00229A8622
:10A90800019A92F82E306FF3C40382F82E30019B1F
:10A91800012283F82F2000BF02B0704782B0019057
:10A92800019B4FF4C8725A85019B06229A84019BA9
:10A938001822DA84019B00221A8500BF02B07047F2
:10A9480000B589B001900091009B0433079302ABD6
:10A9580014220021184607F0A3FB079B1B78012B44
:10A9680012D1019BDB6B002B0ED004238DF808302D
:10A97800019B2E330693079B1B788DF80C30019BA7
:10A98800DB6B02AA1046984700BF09B05DF804FBCC
:10A9980008B5FFF7A4FD00BF08BD10B584B003904B
:10A9A80002910192039B002B01D10E234DE0039BE2
:10A9B800019ADA63039B23220021184607F070FBF3
:10A9C800029B002B2DD0029B1A79039B83F823202E
:10A9D800029B1A7B039B83F82C20029B1B68002B8D
:10A9E8000CD0029B1A68039B2E3314685068916838
:10A9F8001C605860996092899A8102E00398FFF779
:10AA08006DFF029B9B68002B07D0029B9A68039BF3
:10AA180024331068516803C30DE00398FFF77EFFE5
:10AA280009E00398FFF75AFF0398FFF777FF039BA6
:10AA3800002283F82320039B03F14002039B1A663C
:10AA4800039B1F22A3F864200023184604B010BDFE
:10AA580000B589B00190019B002B01D10E2338E08D
:10AA680002AB14220021184607F01AFBFFF790FFEB
:10AA78000198FFF71BFF0346002B0BD0019BDB6BF4
:10AA8800002B07D001238DF80830019BDB6B02AA4D
:10AA980010469847019B03F12E02019B603319462B
:10AAA8001046FFF718FD0790079B082B10D0079B4F
:10AAB800002B0DD0094A0A4BD31ADB081B0443F0BC
:10AAC8000103079A0749184606F0D8F8079B00E0E3
:10AAD8000023184609B05DF804FB00BF9C2803005A
:10AAE80044280300B42D030000B589B001900091FB
:10AAF80003AB14220021184607F0D2FA06238DF87A
:10AB08000C30009B04330493009B1B88ADF8143071
:10AB1800019B2E330793019BDB6B002B04D0019B19
:10AB2800DB6B03AA1046984700BF09B05DF804FB29
:10AB380000B587B001900091009B0593019B0833F5
:10AB48000493019B04330393019B1B881D2B06D0A0
:10AB58001D2B13DC102B0CD01B2B05D00EE00499F9
:10AB68000598FFF70CFE0AE003990598FFF7E8FE41
:10AB780005E003990598FFF7B7FF00E000BF00BFA5
:10AB880007B05DF804FB62DF704700BF184600B5E8
:10AB980087B0039002911346ADF80630029B0593E7
:10ABA800059B1B69002B03D0059B1B6903989847DD
:10ABB80000BF07B05DF804FB00B58BB001900091B1
:10ABC80003AB14220021184607F06AFA009B0E33E3
:10ABD8000893009B1B78002B57D1009B9B88012B67
:10ABE80053D1009B9A79019B1B789A424DD100233F
:10ABF800099333E0099A1346DB0013445B001A46B5
:10AC0800089B13441B88022B02D0032B0CD022E094
:10AC1800099A1346DB0013445B001A46089B134449
:10AC28001B89ADF81E3016E0099A1346DB00134461
:10AC38005B001A46089B13441B89ADF81A30099A21
:10AC48001346DB0013445B001A46089B13445B89D8
:10AC5800ADF81C3000BF099B01330993009B1B7A98
:10AC68001A46099B9342C5D3019BDB68002B0CD085
:10AC7800009B5B88ADF80E3000238DF80C30019BEB
:10AC8800DB6803AA11460198984700BF0BB05DF82E
:10AC980004FB00B589B001900091019B9B88002BB3
:10ACA80019D0009B5A89019B9B889A4213D1019B1A
:10ACB800DB68002B0FD001238DF80C30009B10337C
:10ACC8000593009BDB89ADF81830019BDB6803AA6C
:10ACD80011460198984700BF09B05DF804FB0000D1
:10ACE80010B58AB001900091234B03AC0FCB84E8D8
:10ACF8000F00019B002B01D10E233AE0009B002B93
:10AD080001D10E2335E0009B9B68002B01D10E2357
:10AD18002FE0019A03AB11461846FFF734FF09905C
:10AD2800099B0893089B002B01D0089B21E0019BFD
:10AD38001B788DF81E300123ADF81C30019B4FF6AF
:10AD4800FF725A80009B1A68019BDA60009B5A6860
:10AD5800019B1A61019B00229A80019B00221A81A3
:10AD6800009B9A68019B5A6107AB1846FEF77CFB6B
:10AD7800034618460AB010BD002E030000B589B07E
:10AD880001900091009B0793079B002B31D0019BFA
:10AD9800002B2ED0079B5B884FF6FF7293422AD078
:10ADA800079B5A88019B9B889A4224D1019B1B8848
:10ADB800112B06D0392B20D101990798FFF769FF8D
:10ADC8001EE0019B9A88079B5B889A4217D1079BD4
:10ADD800DB68002B13D002238DF80830079B4FF651
:10ADE800FF725A80079BDB6802AA114607989847AA
:10ADF80005E000BF04E000BF02E000BF00E000BFC4
:10AE080009B05DF804FB000000B58DB00390029115
:10AE18001346ADF80630039B002B01D10E234CE0FE
:10AE280004AB20220021184607F03AF9BDF8063095
:10AE3800142B0CD9234A244BD31ADB081B0443F0E8
:10AE480002032249184605F00BFF072335E0039B50
:10AE58005B884FF6FF7293420CD11A4A1A4BD31AE9
:10AE6800DB081B0443F002031949184605F0F8FEF5
:10AE7800082322E001238DF81030164B0693039B1C
:10AE88000793039B1B89ADF82230BDF80630ADF857
:10AE980026300023ADF82430029B0A9302238DF854
:10AEA800203001238DF82130039B5869039B5A8871
:10AEB80004AB1946FFF7C4F9034618460DB05DF810
:10AEC80004FB00BF9428030044280300102E03004D
:10AED800242E030097AB020000B585B003900B4603
:10AEE8000192ADF80A30039B002B01D10E231BE021
:10AEF800039BBDF80A205A80019B002B0BD0019BB5
:10AF08005A88039BDA80019B1A88039B9A80019BCD
:10AF18009A88039B1A81039B5B69BDF80A20114636
:10AF28001846FFF72BFA0346184605B05DF804FBF0
:10AF380082B003468DF807309DF90730002B13DBEC
:10AF48009DF8073003F01F0209499DF907305B0996
:10AF5800012000FA02F2203341F82320BFF34F8F7B
:10AF680000BFBFF36F8F00BF00BF02B0704700BFC4
:10AF780000E100E0044BD3F80034002B14BF012398
:10AF88000023DBB2184670470000014008B506F000
:10AF980083FC034683F00103DBB2002B03D109498C
:10AFA8007B20FCF7BFFAFFF7E5FF034683F00103B8
:10AFB800DBB2002B04D000F04FFB034B00229A7049
:10AFC80000BF08BD482E03003827002000B583B015
:10AFD80000230193184B1B78002B02D08523019383
:10AFE8001CE0154B00229A60134B00225A60124B4A
:10AFF80000221A61104B0022DA60104800F0F2FAC1
:10B00800019006F049FC034683F00103DBB2002BF4
:10B0180001D000F00DFB084B01221A70FFF7AAFFC0
:10B028000346002B02D0044B01229A70019B18465C
:10B0380003B05DF804FB00BF382700201DB10200F3
:10B0480084B00190019B1B680393039B002B03D0E2
:10B05800039B1A68019B1A60039B184604B070474B
:10B0680000B583B0164B1B78002B04D1154940F26C
:10B078001710FCF757FA124BDB68002B04D1114963
:10B088004FF48C70FCF74EFA00238DF807300DF161
:10B098000703184603F076F8094BDB68013B084ABA
:10B0A800D360074BDB68002B01D1FFF76FFF9DF8DA
:10B0B8000730184603F07CF800BF03B05DF804FBC6
:10B0C80038270020482E030000B585B003468DF8C8
:10B0D80007309DF80730002B02D10C4B039301E099
:10B0E8000B4B03930398FFF7ABFF0290029B002BD7
:10B0F80006D0029B5B689DF8072010469847F1E749
:10B1080000BF00BF05B05DF804FB00BF402700206A
:10B118004827002000B583B003468DF807309DF816
:10B128000730002B05D10A4B01225A700020FFF787
:10B13800CBFF9DF80730012B05D1054B01229A70F2
:10B148000120FFF7C1FF00BF03B05DF804FB00BF9B
:10B158003827002000B583B001900091019B002B97
:10B1680005D1054B01225A700020FFF7ADFF00BF43
:10B1780003B05DF804FB00BF3827002000B585B098
:10B18800034600918DF807309DF80730032B29D02E
:10B19800032B35DC002B02D0012B04D030E000203B
:10B1A800FFF7C6FE2DE000238DF80F300DF10F03D9
:10B1B800184602F0E7FF154B1B7883F00103DBB25A
:10B1C800002B01D0FFF702FF104BDB6801330F4A59
:10B1D800D3600E4B01229A709DF80F30184602F08A
:10B1E800E7FF0EE0094B1B78002B04D1084940F219
:10B1F8005220FCF797F900F01BFAFFF731FF00E047
:10B2080000BF00BF05B05DF804FB00BF3827002071
:10B21800482E030000B589B001900091009B079368
:10B22800019B1B788DF80C30019B5B680493019B94
:10B238009B68DBB28DF81430019BDB680693074AE4
:10B24800079B52F823300649079A51F8221003AA9F
:10B258001046984700BF09B05DF804FB4C27002052
:10B268005427002000B589B001900091009B0793F6
:10B27800019B1B788DF80C30019B5B680493019B44
:10B288009B68DBB28DF81430019BDB680693074A94
:10B29800079B52F823300649079A51F8221003AA4F
:10B2A8001046984700BF09B05DF804FB4C27002002
:10B2B8005427002030B58FB0039002910192039B70
:10B2C8001B780C932C490C9B019A41F82320029B74
:10B2D8001A692A490C9B41F823200C9B012B07D1A2
:10B2E800029B5B7F002B03D125497620FCF71AF9D6
:10B2F800029B5B7F1946234A0C9B13440A461A702B
:10B30800029B04AC1D460FCD0FC495E80F0084E8DE
:10B318000F000C9B089300230D93039B1B781A4680
:10B32800184B9B5C002B0DD0039B181D019B002B19
:10B3380001D0154A00E0002204AB194601F028FFAD
:10B348000D9014E0039B1B781A460E4B9B5C002B58
:10B358000DD1039B03F10C00019B002B01D00B4A7C
:10B3680000E0002204AB194601F08AF80D900D9B0D
:10B3780018460FB030BD00BF4C27002054270020CE
:10B388007C2E03005C2700201DB202006DB2020073
:10B3980082B003468DF807309DF90730002B0CDB8F
:10B3A8009DF8073003F01F0205499DF907305B0936
:10B3B800012000FA02F241F8232000BF02B07047D2
:10B3C80000E100E082B0034600918DF807309DF956
:10B3D8000730002B0ADB009BDAB20C499DF90730D5
:10B3E8005201D2B20B4483F800230BE0009BDAB27F
:10B3F80007499DF8073003F00F03043B5201D2B20E
:10B408000B441A7600BF02B0704700BF00E100E0AD
:10B4180000ED00E082B00190019B1B0B5BB2184667
:10B4280002B0704700B583B003460A468DF807306E
:10B4380013468DF806309DF80630012B03D99DF888
:10B448000630032B0BD99DF80630042B03D99DF841
:10B458000630072B03D908496B20FCF763F89DF8E1
:10B4680006209DF9073011461846FFF7ABFF00BFCD
:10B4780003B05DF804FB00BFB02E030000B583B035
:10B4880003468DF807309DF907301846FFF780FF0F
:10B4980000BF03B05DF804FB82B003468DF80730A7
:10B4A8000F4A9DF90730002B00DA1F335B115BB29E
:10B4B80052F823209DF90730594203F01F0301F089
:10B4C8001F0158BF4B425BB222FA03F303F001039A
:10B4D800002B14BF01230023DBB2184602B07047CB
:10B4E80000E100E082B001904FF08042019BC2F879
:10B4F800083300BF02B0704782B003468DF80730AA
:10B508009DF8073003F1804301221A6000BF02B0A2
:10B51800704784B00346ADF80630BDF8063003F135
:10B52800804300221A60BDF8063003F180431B688F
:10B538000393039B00BF04B0704782B00346ADF885
:10B548000630BDF8063003F180431B68002B14BF9A
:10B5580001230023DBB2184602B0704782B0019085
:10B568004FF08042019BC2F8183500BF02B0704707
:10B578004FF08043D3F818341B0C03F00103002B61
:10B5880014BF01230023DBB21846704700B583B00F
:10B5980006238DF807304FF08040FFF73BFF034646
:10B5A8001846FFF779FF034683F00103DBB2002B4F
:10B5B80013D04FF08040FFF72DFF03461A469DF841
:10B5C800073019461046FFF72DFF4FF08040FFF770
:10B5D80021FF03461846FFF751FF00BF03B05DF88F
:10B5E80004FB000000B585B00190019B002B03D13E
:10B5F8000D49A420FBF796FF002303930B4B1B79FF
:10B60800002B02D08523039308E0084A019B1360AE
:10B61800064B01221A71054B00225A71039B1846EA
:10B6280005B05DF804FB00BFE02E03006027002092
:10B6380008B5074B1B79002B03D10649BD20FBF742
:10B6480071FFFFF7A3FF0120FFF788FF00BF08BDC8
:10B6580060270020E02E030008B50D4B1B79002B56
:10B6680003D10C49F720FBF75DFF0220FFF73AFFF3
:10B678004FF48270FFF74DFF0C20FFF73DFF00BF2E
:10B68800FFF776FF0346002BFAD100BF00BF08BDC5
:10B6980060270020E02E030008B54FF48070FFF704
:10B6A8004CFF0346002B14D04FF48070FFF731FF96
:10B6B8000120FFF717FF114B5B7983F00103DBB221
:10B6C800002B06D00D4B01225A710C4B1B68002031
:10B6D80098474FF48270FFF730FF0346002B0AD0DB
:10B6E8004FF48270FFF715FF0220FFF7FBFE034BB4
:10B6F8001B680120984700BF08BD00BF60270020D5
:10B7080000B583B00346ADF80630BDF806301846DC
:10B7180000F026F803461B68012B0CBF0123002309
:10B72800DBB2184603B05DF804FB00B585B00346EC
:10B73800ADF80630BDF80630184600F011F803469B
:10B748001A4600231360BDF80630184600F008F8C2
:10B7580003461B680393039B00BF05B05DF804FB19
:10B7680082B00346ADF80630BDF8063003F18043D9
:10B7780003F5C043184602B07047000082B001903C
:10B78800034BD3F80423019B1340184602B07047BB
:10B798000060004082B00190054A019B03F5A27346
:10B7A80052F823301B0A03F03F03184602B07047D3
:10B7B8000060004082B00190064A019B03F5A27325
:10B7C80052F823301B0C03F00303DBB2184602B017
:10B7D800704700BF0060004000B583B00190019B36
:10B7E8001B68184600F0AAF80346002B04D10B4941
:10B7F8004FF4F670FBF796FE019B1B681F2B02D8CF
:10B808004FF0A04306E0019B1B6803F01F02019B59
:10B818001A60034B184603B05DF804FB3C2F030085
:10B828000003005000B585B001900B468DF8033039
:10B8380001AB1846FFF7D0FF0390019A039B02F56E
:10B84800E07253F82230019A23F44031039B02F549
:10B85800E07243F82210019A039B02F5E07253F854
:10B8680022309DF8032012041146019A1943039BC4
:10B8780002F5E07243F8221000BF05B05DF804FB42
:10B8880000B585B0019001AB1846FFF7A5FF0390FE
:10B89800019A039B02F5E07253F822301B0C03F067
:10B8A8000303DBB2184605B05DF804FB88B00390CB
:10B8B80002910192164A05AB92E8030083E803005F
:10B8C800039B079319E0079B9B0020336B4453F8B5
:10B8D8000C3CD3F82025019B1A60079B9B00203362
:10B8E8006B4453F80C3C019A1268C3F82025019B5D
:10B8F80004330193079B01330793039A029B134474
:10B90800079A9A42DFD300BF00BF08B0704700BF54
:10B91800642F030000B585B0019001AB1846FFF70E
:10B928005BFF0390019B012202FA03F31A46039B73
:10B93800C3F8202500BF05B05DF804FB84B0019072
:10B94800019B5B09029300230393029B002B03D006
:10B95800029B012B04D007E04FF0FF33039303E071
:10B968004FF6FF73039300BF019B03F01F0301937E
:10B97800039A019B22FA03F303F00103002B14BF7F
:10B9880001230023DBB2184604B0704784B001904D
:10B998000091009B0393019BDB080293019B03F03A
:10B9A800070301930122019B02FA03F30399029A08
:10B9B8000A4412781340184604B0704782B00190C8
:10B9C800044A019B1344303393F90030184602B0FF
:10B9D800704700BF6827002082B00190034A019B8E
:10B9E80052F82330184602B0704700BF682700207D
:10B9F80084B00190074A019B1344603393F90030E7
:10BA08008DF80F309DF80F3023F0C003184604B0AE
:10BA1800704700BF6827002084B00190074A019B47
:10BA28001344603393F900308DF80F309DF80F30D0
:10BA38009B09DBB2184604B0704700BF6827002096
:10BA480000B585B00190019A02210020FFF72EFF72
:10BA5800002303930BE0039B9B00019A13441B688C
:10BA6800002B01D0012306E0039B01330393039BC2
:10BA7800012BF0D90023184605B05DF804FB00003F
:10BA880000B587B00190002305935BE0344A059B1D
:10BA98001344603393F90030B3F1FF3F4ED005985B
:10BAA800FFF7A6FF049001990498FFF76FFF03467C
:10BAB800002B44D00598FFF7AFFF03468DF80F30F1
:10BAC8000498FFF7DDFE03468DF80E309DF80E3022
:10BAD800022B01D1032300E002238DF80D309DF8DD
:10BAE8000D3019460498FFF79DFE0498FFF712FFE2
:10BAF8000498FFF763FF03461846FFF76DFF0290AF
:10BB0800029B002B1BD09DF80F30032B0FD09DF804
:10BB18000E30022B03D19DF80F30012B07D09DF872
:10BB28000E30032B0BD19DF80F30022B07D19DF857
:10BB38000F20029B11460498984700E000BF059B20
:10BB480001330593059B032BA0D90198FFF778FFD4
:10BB58000346002B97D100BF00BF07B05DF804FB78
:10BB68006827002000B58BB00023089301AB0022A2
:10BB78001A605A604FF48073ADF81A3001230993A4
:10BB88000023079321E0BDF81A301846FFF7B8FDE7
:10BB98000346002B0ED00998FFF7F0FD0346002B53
:10BBA80008D0BDF81A301846FFF7BFFD089A099B60
:10BBB80013430893099B5B000993BDF81A300433BB
:10BBC800ADF81A30079B01330793079B072BDAD987
:10BBD8004FF4BE70FFF794FD0346002B0DD04FF4D1
:10BBE800BE70FFF7A2FD089B43F00043089301AB2A
:10BBF8001A4602210020FFF759FE089BDBB2002BF2
:10BC080029D0012309930023079321E0099A089B6F
:10BC18001340002B16D00798FFF7BCFD0590079836
:10BC2800FFF7C8FD03468DF813300798FFF7D4FED9
:10BC38000390039B002B05D09DF81320039B11460E
:10BC480005989847099B5B000993079B0133079365
:10BC5800079B072BDAD9089B002B03DA01AB1846A0
:10BC6800FFF70EFF00BF0BB05DF804FB08B5064BED
:10BC78001B68002B03D105495120FBF753FC024BED
:10BC88001B68984708BD00BFD4270020AC2F0300CD
:10BC980082B00190019B044A934201D1034B00E01A
:10BCA8000023184602B0704700200040D427002027
:10BCB80000B587B001900091019B002B03D11C496E
:10BCC8007720FBF72FFC0198FFF7E2FF0590059B13
:10BCD800002B25D000238DF8133000238DF80B306E
:10BCE8000DF10B03184602F04DFA059B1B79002B4A
:10BCF80003D001238DF8133005E0059B009A1A60E4
:10BD0800059B01221A719DF80B30184602F050FA73
:10BD18009DF81330002B03D011230393039B02E0FB
:10BD280000230393039B184607B05DF804FB00BF8C
:10BD3800AC2F030000B585B00190019B002B03D107
:10BD48000A499B20FBF7EEFB0198FFF7A1FF039040
:10BD5800039B002B05D0039B00221A60039B002243
:10BD68001A7100BF05B05DF804FB00BFAC2F0300DB
:10BD780082B003468DF807309DF90730002B0CDBA5
:10BD88009DF8073003F01F0205499DF907305B094C
:10BD9800012000FA02F241F8232000BF02B07047E8
:10BDA80000E100E082B003468DF807309DF90730C6
:10BDB800002B13DB9DF8073003F01F0209499DF99A
:10BDC80007305B09012000FA02F2203341F82320F2
:10BDD800BFF34F8F00BFBFF36F8F00BF00BF02B02C
:10BDE800704700BF00E100E082B0034600918DF883
:10BDF80007309DF90730002B0ADB009BDAB20C49AB
:10BE08009DF907305201D2B20B4483F800230BE0AE
:10BE1800009BDAB207499DF8073003F00F03043B93
:10BE28005201D2B20B441A7600BF02B0704700BF6D
:10BE380000E100E000ED00E082B00190019B1B0BE7
:10BE48005BB2184602B0704700B583B003460A4695
:10BE58008DF8073013468DF806309DF80630012B13
:10BE680003D99DF80630032B0BD99DF80630042B17
:10BE780003D99DF80630072B03D908496B20FBF737
:10BE880051FB9DF806209DF9073011461846FFF72B
:10BE9800ABFF00BF03B05DF804FB00BFE02F030059
:10BEA80000B583B003468DF807309DF90730184672
:10BEB800FFF75EFF00BF03B05DF804FB00B583B079
:10BEC80003468DF807309DF907301846FFF76AFFDB
:10BED80000BF03B05DF804FB84B001900B46ADF8D9
:10BEE8000230BDF80230019A134400221A60BDF8EE
:10BEF8000230019A13441B680393039B00BF04B0EC
:10BF0800704782B001900B46ADF80230BDF80230A0
:10BF1800019A13441B68002B14BF01230023DBB2D2
:10BF2800184602B0704782B001900091019B009AB8
:10BF3800C3F8042300BF02B0704782B0019000919B
:10BF4800019BD3F80423009B1340002B14BF01234B
:10BF58000023DBB2184602B0704782B0019000910E
:10BF6800019B009AC3F8082300BF02B0704784B051
:10BF78000190019BD3F880340393019B039AC3F883
:10BF88008024039B184604B0704782B00190019B3F
:10BF98000422C3F8002500BF02B0704782B00190A8
:10BFA800019B0022C3F8002500BF02B0704784B08F
:10BFB800039002910192039B019AC3F81425039BF5
:10BFC800029AC3F80C2500BF04B0704700B583B0CF
:10BFD80001904FF0FF324FF0FF310198FFF7E7FF74
:10BFE80000BF03B05DF804FB82B00190019BD3F859
:10BFF8000C35184602B0704782B00190019BD3F807
:10C008001435184602B0704782B00190019BD3F8EE
:10C018000835184602B0704782B00190019BD3F8EA
:10C028001035184602B0704784B00390029101920F
:10C03800039B029AC3F80825039B019AC3F81025AD
:10C0480000BF04B0704700B583B001904FF0FF32D5
:10C058004FF0FF310198FFF7E7FF00BF03B05DF82D
:10C0680004FB82B00190019BD3F81835DBB2184667
:10C0780002B0704782B001900B468DF803309DF8EE
:10C088000320019BC3F81C2500BF02B0704782B093
:10C0980001900B468DF803309DF80330019A134444
:10C0A80001221A6000BF02B0704782B001900B46AF
:10C0B8008DF8033013468DF802309DF803209DF863
:10C0C80002301343DBB21A46019BC3F86C2500BF4C
:10C0D80002B0704782B001900091019B009AC3F8AA
:10C0E800242500BF02B0704700B583B00190019BC2
:10C0F8001B68184600F0A4F80346002B04D10B492E
:10C108004FF4F670FBF70EFA019B1B681F2B02D841
:10C118004FF0A04306E0019B1B6803F01F02019B40
:10C128001A60034B184603B05DF804FB083003009F
:10C138000003005000B585B00190084611461A4624
:10C1480003468DF803300B468DF8023013468DF800
:10C15800013001AB1846FFF7C7FF03909DF8032095
:10C168009DF802305B001A439DF801309B001A438A
:10C178009DF818301B0242EA03019DF81C301B048D
:10C18800019A1943039B02F5E07243F8221000BF9D
:10C1980005B05DF804FB00B585B00390002301935A
:10C1A800002300930023012201210398FFF7C2FF17
:10C1B80000BF05B05DF804FB00B585B003900B46E1
:10C1C8008DF80B309DF80B3000220192002200926E
:10C1D800002200210398FFF7ADFF00BF05B05DF80E
:10C1E80004FB00B585B0039000230193002300935E
:10C1F8000023012200210398FFF79CFF00BF05B030
:10C208005DF804FB00B585B0019001AB1846FFF757
:10C218006BFF0390019B012202FA03F3194603986E
:10C2280000F004F800BF05B05DF804FB82B001908F
:10C238000091019B009AC3F8082500BF02B070471F
:10C2480084B00190019B5B09029300230393029B36
:10C25800002B03D0029B012B04D007E04FF0FF33E3
:10C26800039303E04FF6FF73039300BF019B03F0B2
:10C278001F030193039A019B22FA03F303F00103BE
:10C28800002B14BF01230023DBB2184604B070470B
:10C2980000B583B001900091009B1B68B3F1FF3F8C
:10C2A80009D0009B1B681846FFF7ACFF009B1B6872
:10C2B8001846FFF770FF009B5B68B3F1FF3F05D09E
:10C2C800009B5B6800211846FFF776FF019B1A6800
:10C2D800009B9B6919461046FFF7FCFE019B1868F6
:10C2E800009B597D009B1B7D1A46FFF7DEFE019BD4
:10C2F8001868009B1968009B5B681A46FFF757FE91
:10C30800009B1B7D012B22D1009B9B68B3F1FF3F53
:10C3180005D0009B9B6800211846FFF74DFF009B46
:10C32800DB68B3F1FF3F09D0009BDB681846FFF7D5
:10C3380069FF009BDB681846FFF72DFF019B186813
:10C34800009BD968009B9B681A46FFF76DFE00BFEB
:10C3580003B05DF804FB000000B583B001900B4604
:10C368008DF80330019B1B684FF48E711846FFF758
:10C37800B3FD019B1B684FF4A2711846FFF7ACFD93
:10C38800019B1B680E491846FFF7CDFD019B1B68F2
:10C398001846FFF751FD03461A469DF80330194623
:10C3A8001046FFF751FD019B1B681846FFF744FD37
:10C3B80003461846FFF774FD00BF03B05DF804FBA1
:10C3C8008000020000B583B00190019B1B680849FA
:10C3D8001846FFF7C2FD019B1B681846FFF72CFDA6
:10C3E80003461846FFF76AFD00BF03B05DF804FB7B
:10C3F8008402020000B587B00190019B1B681846B3
:10C40800FFF7F2FD0590019B1B681846FFF7F4FD46
:10C418000490019B1B681846FFF7F6FD0390019BEB
:10C428001B681846FFF7F8FD0290019B1B68184629
:10C43800FFF7CCFD019B1B681846FFF704FE059B20
:10C44800B3F1FF3F02D00598FFF7CBFE049BB3F191
:10C45800FF3F02D00498FFF7C4FE029BB3F1FF3FF1
:10C4680002D00298FFF7BDFE039BB3F1FF3F02D055
:10C478000398FFF7B6FE00BF07B05DF804FB0000A5
:10C4880000B587B0039002910192029B002B03D163
:10C498002D49AA20FBF746F8039B1B791A462C2343
:10C4A80002FB03F3294A1344049300230593049BD6
:10C4B80093F82A30002B03D008230593059B3EE010
:10C4C800039B1A68039B1B791946214B53F82130AB
:10C4D80019461046FFF7ECFB0346002B03D0112347
:10C4E8000593059B2BE002990398FFF7D1FE049B67
:10C4F800019A5A60029B1A69049B1A60049B5B6844
:10C50800002B05D0029B1B7F19460398FFF724FFD9
:10C51800039B1B681846FFF738FD049B00229A61AD
:10C52800049B0022DA61049B002283F82920049BE3
:10C5380000225A61049B012283F82A20059B184691
:10C5480007B05DF804FB00BF38300300DC2700208B
:10C558006830030000B585B00190019B1B791A462D
:10C568002C2302FB03F3114A13440393019B1B681A
:10C578001846FFF713FD039B5B68002B02D0019858
:10C58800FFF720FF0198FFF735FF019B1B6818464E
:10C59800FFF7D0FB039B002283F82A20039B00228D
:10C5A8005A6000BF05B05DF804FB00BFDC2700201F
:10C5B80000B585B0019000914FF48E710198FFF796
:10C5C8008BFC009B9A68009B1B6A13441B788DF8B0
:10C5D8000F30009B1B6A5A1C009B1A629DF80F3093
:10C5E80019460198FFF746FD00BF05B05DF804FB4A
:10C5F80000B585B001900091009B5B69039316E03C
:10C60800009B93F82830DBB2002B01D0002314E004
:10C618004FF48E710198FFF774FC034683F0010311
:10C62800DBB2002BECD100990198FFF7C1FF009B0A
:10C638001B6A039A9A42EBD80123184605B05DF8A5
:10C6480004FB000000B587B0039002910192039BA0
:10C658001B791A462C2302FB03F33C4A1344049328
:10C66800049B93F82A30012B04D039494FF48C707D
:10C67800FAF758FF029B002B04D1354940F21910F4
:10C68800FAF750FF019B002B04D131494FF48D700C
:10C69800FAF748FF039800F05DF80346002B03D033
:10C6A80011230593059B4CE0049B019A5A61049B56
:10C6B800029A9A60049B00221A62049B002283F863
:10C6C800282000230593039B1B684FF48E7118469E
:10C6D800FFF702FC039B1B6808211846FFF7D7FCED
:10C6E800039B1B6804991846FFF762FF049B5B686D
:10C6F800002B25D1039B1B6804991846FFF778FF88
:10C70800034683F00103DBB2002B02D00F2305930D
:10C7180013E000BF039B1B684FF48E711846FFF7A8
:10C72800F0FB034683F00103DBB2002BF2D1039B3D
:10C738001B680C211846FFF7AAFC049B00225A61CB
:10C74800059B184607B05DF804FB00BFDC270020F6
:10C758003830030082B00190019B1B791946074AC3
:10C768002C2301FB03F3134414331B68002B14BF61
:10C7780001230023DBB2184602B07047DC270020F3
:10C7880010B582B001900091009B9B69002B08D1E5
:10C798004FF484710198FFF79FFB0198FFF761FC44
:10C7A80013E04FF484710198FFF796FB009BDA6859
:10C7B800009B5B6AD4180198FFF753FC034623706B
:10C7C800009B5B6A5A1C009B5A6202B010BD00B500
:10C7D80089B003900291019201238DF81030029BD9
:10C7E8000693019B0593039B5B68039A116804AA4F
:10C7F8001046984700BF09B05DF804FB00B587B044
:10C808000190009100238DF80830009B0493019B50
:10C818009B680393019B00225A61019B5B68019A04
:10C82800116802AA1046984700BF07B05DF804FBDC
:10C8380000B58BB0019000914FF400710198FFF79B
:10C848007CFB0346002B39D04FF492710198FFF717
:10C8580058FB0346002B31D04FF492710198FFF733
:10C868003BFB4FF401710198FFF777FB009B93F8AE
:10C87800293083F00103DBB2002B03D00421019897
:10C88800FFF705FC02238DF80C300198FFF76FFBCA
:10C8980003460693009B9B690593009BDB68049302
:10C8A800009B00229A61009B0022DA61009B5B6872
:10C8B800009A116803AA1046984752E0042101988B
:10C8C800FFF73BFB0346002B4BD04FF484710198D4
:10C8D800FFF717FB0346002B43D000990198FFF799
:10C8E8004FFF009B9A69009B5B6A9A4239D1009B73
:10C8F800DB69002B19D0009BDB680993009B5B6AFE
:10C908000893009BDA69009B9A61009B1A69009B57
:10C91800DA60009B0022DA61009B00225A62099AC1
:10C9280008990098FFF753FF1BE0009B93F8293004
:10C9380083F00103DBB2002B03D004210198FFF739
:10C94800A6FB4FF401710198FFF707FB009B00223B
:10C958009A61009B596A009BDB681A460098FFF7AA
:10C9680036FF4FF48E710198FFF7CBFA0346002B80
:10C9780024D0009B5B690793009B1B6A079A9A4225
:10C988000DD9009B93F82830DBB283F00103DBB2AA
:10C99800002B04D000990198FFF70AFE0EE04FF42F
:10C9A8008E710198FFF798FA009B5B69002B05D000
:10C9B800009B5B6919460098FFF720FF4FF4A271AE
:10C9C8000198FFF79EFA0346002B1CD04FF4A27182
:10C9D8000198FFF781FA009B93F82930002B03D0C8
:10C9E80000210198FFF753FB009B9B69002B0AD09D
:10C9F800009B00229A61009B596A009BDB681A46DB
:10CA08000098FFF7E4FE00BF0BB05DF804FB0000E0
:10CA180008B503490348FFF70BFF00BF08BD00BF77
:10CA2800DC2700200020004082B003468DF8073044
:10CA38009DF90730002B0CDB9DF8073003F01F022F
:10CA480005499DF907305B09012000FA02F241F817
:10CA5800232000BF02B0704700E100E082B0034627
:10CA68008DF807309DF90730002B13DB9DF8073050
:10CA780003F01F0209499DF907305B09012000FAFC
:10CA880002F2203341F82320BFF34F8F00BFBFF3DA
:10CA98006F8F00BF00BF02B0704700BF00E100E029
:10CAA80082B0034600918DF807309DF90730002BBE
:10CAB8000ADB009BDAB20C499DF907305201D2B269
:10CAC8000B4483F800230BE0009BDAB207499DF87A
