:020000022000DC
:106000000000012019620200016202000362020026
:10601000056202000762020009620200000000003F
:106020000000000000000000000000000B62020001
:106030000D620200000000000F6202001162020007
:10604000190E030013620200B11303001362020071
:106050001362020013620200AD1203001362020019
:106060001362020013620200136202001362020054
:106070001362020013620200136202001362020044
:1060800013620200C54003001362020013620200A3
:106090001362020013620200519C030013620200AB
:1060A0001362020013620200136202001362020014
:1060B00013620200136202000000000000000000F2
:1060C00013620200136202001362020013620200F4
:1060D000136202001362020013620200000000005B
:1060E00000000000000000000000000000000000B0
:1060F00000000000000000000000000000000000A0
:10610000000000000000000000000000000000008F
:10611000000000000000000000000000000000007F
:10612000000000000000000000000000000000006F
:10613000000000000000000000000000000000005F
:10614000000000000000000000000000000000004F
:10615000000000000000000000000000000000003F
:10616000000000000000000000000000000000002F
:10617000000000000000000000000000000000001F
:10618000000000000000000000000000000000000F
:1061900000000000000000000000000000000000FF
:1061A00000000000000000000000000000000000EF
:1061B00000000000000000000000000000000000DF
:1061C00000000000000000000000000000000000CF
:1061D00000000000000000000000000000000000BF
:1061E00000000000000000000000000000000000AF
:1061F000000000000000000000000000000000009F
:10620000FEE7FEE7FEE7FEE7FEE7FEE7FEE7FEE766
:10621000FEE7FEE700F002B8FFF7FCBF0F484FF0C3
:106220000701884385460E4880470E48016841F4BF
:1062300070010160BFF34F8FBFF36F8F00F01AB88A
:1062400009480A490A4A884207D0521A05D00378F9
:1062500001300B700131013AF9D170470000012083
:106260002176020088ED00E00CAD0300B81D00208F
:10627000CC1D0020314932480A1A02D0072291432E
:106280008D46304930480A1A06D00722914381F3DF
:106290000988022282F314882C482D492D4A00F0E7
:1062A0003CF82D482D492E4A00F037F82D482E494C
:1062B0002E4A00F032F82E482E492F4A00F02DF8D1
:1062C0002E482F492F4A00F028F82F482F49304AEE
:1062D00000F023F82F483049304A00F01EF83048CB
:1062E0003049002200F024F82F483049002200F005
:1062F0001FF82F4A90471F481F49884205D002685F
:10630000043003B4904703BCF7E700208646EC4610
:1063100000200021274A9047FEE7884207D0521A02
:1063200005D0037801300B700131013AF9D1704783
:10633000884202D002700130FAE770470000012065
:1063400000E00020000001200000012030E60300F2
:10635000CC1D0020E0240020B8630200B8630200D6
:1063600050AB030030E60300CC1D0020CC1D002004
:1063700020AD030020AD030020AD030020AD0300DD
:1063800020AD030020AD030020AD030020AD0300CD
:1063900030E6030044ED0300E0240020E024002068
:1063A000E0240020483400204834002048340020F5
:0863B00041620200B16D020020
:1063B80075DF704700BF184676DF704700BF184684
:1063C80080DF704700BF18468FDF704700BF184650
:1063D80000B583B00190019B1B68184600F070F867
:1063E8000346002B04D105494FF4F67000F088F8F5
:1063F8004FF0A043184603B05DF804FB20AD03003E
:1064080000B585B00190084611461A4603468DF836
:1064180003300B468DF8023013468DF8013001AB7E
:106428001846FFF7D5FF03909DF803209DF802302A
:106438005B001A439DF801309B001A439DF8183001
:106448001B0242EA03019DF81C301B04019A194300
:10645800039B02F5E07243F8221000BF05B05DF817
:1064680004FB00B585B0039000230193002300933B
:106478000023012201210398FFF7C2FF00BF05B0E6
:106488005DF804FB00B585B0019001AB1846FFF735
:106498009FFF0390019B012202FA03F31946039818
:1064A80000F004F800BF05B05DF804FB82B001906D
:1064B8000091019B009AC3F8082500BF02B07047FD
:1064C80084B00190019B5B09029300230393029B14
:1064D800002B03D14FF0FF33039300BF019B03F060
:1064E8001F030193039A019B22FA03F303F00103AC
:1064F800002B14BF01230023DBB2184604B07047F9
:1065080000B583B003460091ADF80630BDF80630FB
:10651800009A194603480CF09BFC00BF03B05DF8D5
:1065280004FB00BFEFBEADDE00B583B00190044AA6
:10653800942101980CF08CFC00BF03B05DF804FBBB
:1065480048AD030008B51620FFF78BFF1620FFF7AC
:1065580099FF1920FFF785FF1920FFF793FF1A20ED
:10656800FFF77FFF1A20FFF78DFF00BF08BD00006F
:1065780000B583B0084803F04DFE0190019B0093DD
:10658800009B002B04D0054AB02100980CF060FC59
:1065980000BF03B05DF804FBE024002048AD030011
:1065A80000B585B001900091009B1B78022B24D088
:1065B800022B2EDC002B01D0012B2AE0009B5988EE
:1065C800009B0E331A4615480AF050F80390039BB7
:1065D8000293029B002B04D0114ABF2102980CF0B1
:1065E80037FC104A104BD31ADB081B0443F0030393
:1065F8000E49184612F0F6FB0BE00A4A0A4BD31A6A
:10660800DB081B0443F003030949184612F0EAFBB0
:1066180000BF00BF05B05DF804FB00BF482500209F
:1066280048AD0300D0AB0300A8AB030088AD03005E
:1066380098AD030000B58DB001900091019B043323
:106648000693019B1B88103B462B00F2248101A274
:1066580052F823F079670200B36702009F680200CE
:106668009F6802009F6802009F6802009F680200FE
:106678002B6802009F6802009F6802009F68020062
:106688009F6802009F6802009F6802009F680200DE
:10669800CF6702009F680200F76702009F68020048
:1066A8009F6802009F6802009F6802009F680200BE
:1066B8009F6802009F6802009F6802009F680200AE
:1066C8009F6802009F6802009F6802009F6802009E
:1066D8009F6802009F6802009F6802009F6802008E
:1066E8009F6802009F6802009F6802009F6802007E
:1066F8009F6802009F6802009F6802009F6802006E
:10670800536802009F6802009F6802009F680200A9
:106718009F6802009F6802009F6802009F6802004D
:106728009F6802009F6802009F6802009F6802003D
:106738009F6802009F6802009F6802009F6802002D
:106748009F6802009F6802009F6802009F6802001D
:106758009F6802009F6802009F6802009F6802000D
:106768009F6802009F6802009F6802007968020023
:10677800514A524BD31ADB081B0443F00303504918
:10678800184612F02FFB069B1B8819464D4802F04D
:10679800E1FA0B900B9B0493049B002B7DD04A4A93
:1067A800E42104980CF054FB77E0434A434BD31A96
:1067B800DB081B0443F003034449184612F012FB9C
:1067C800FFF7D6FE74E0069B1A88069B0433194629
:1067D8001046FFF7EDFD0B900B9B0A930A9B002BCD
:1067E8005DD0394AFD210A980CF032FB57E00023AE
:1067F8008DF80C3000238DF80D30019B9B8803AA7F
:1068080011461846FFF7E0FD0B900B9B0993099B77
:10681800002B46D02C4A40F2091109980CF018FBBD
:106828003FE0069B1B882A4A01211846FFF7C8FD4E
:106838000B900B9B0593059B002B34D0224A40F20A
:10684800171105980CF004FB2DE0019B9B88132180
:106858001846FFF7B1FD0B900B9B0793079B002B86
:1068680023D0194A40F2211107980CF0F1FA1CE0E4
:10687800019B9B8813211846FFF79EFD0B900B9BED
:106888000893089B002B12D00F4A4FF49571089873
:106898000CF0DEFA0BE000BF0AE000BF08E000BF22
:1068A80006E000BF04E000BF02E000BF00E000BF58
:1068B80000BF0DB05DF804FBD0AB0300A8AB03002C
:1068C800ACAD0300CC1D002048AD0300B8AD0300FB
:1068D800D823002000B587B001AB0C220021184650
:1068E80013F088FD0D4B01930D4B02930D4B039351
:1068F80001AB19460C4809F0BDFD0590059B0493B2
:10690800049B002B05D0094A4FF4A07104980CF0A1
:106918009FFA00BF07B05DF804FB00BFA96502003D
:1069280031650200A02300204825002048AD03005F
:1069380000B587B013F0A8F80590059B0493049B55
:10694800002B05D0164A40F24D1104980CF080FA3D
:106958000023019301AB1946012013F0ABF9059010
:10696800059B0393039B002B05D00D4A40F253115E
:1069780003980CF06DFA01AB184613F08DFA0590E8
:10698800059B0293029B002B05D0054A40F2571144
:1069980002980CF05DFA00BF07B05DF804FB00BF79
:1069A80048AD030000B585B00190019B1B78052B0D
:1069B8000ED1019B5B680393039B0293029B002B00
:1069C80008D0074A4FF4BC7102980CF041FA01E074
:1069D80000BF00E000BF00BF05B05DF804FB00BFCA
:1069E80048AD030000B583B001900199034809F050
:1069F800ADFC00BF03B05DF804FB00BF48250020D4
:106A080000B583B001900E4B1B781A460D490E480D
:106A180013F0DDFD14220C490C4809F0BFFD084BAA
:106A28001B780133DAB2064B1A70054B1B78FF2B23
:106A380002D1034B01221A7000BF03B05DF804FBBA
:106A4800F4230020C8AD0300E023002048250020DF
:106A580000B583B00190019804F010FA019804F091
:106A6800AFFD019804F06EFA019B1B780D2B02D143
:106A7800FFF77EFD00E000BF00BF03B05DF804FB38
:106A880000B585B06B4608220021184613F0B2FC09
:106A98000B4B00930B4B01936B46184602F096F88C
:106AA8000390039B0293029B002B05D0064A4FF4E8
:106AB800E17102980CF0CCF900BF05B05DF804FB59
:106AC800ED690200A023002048AD030000B583B0A3
:106AD8004FF48041002011F0AFFE0190019B00931C
:106AE800009B002B05D0064A40F2CB1100980CF011
:106AF800AFF911F037FE00BF03B05DF804FB00BF2B
:106B080048AD030000B585B00CF052FD0390039B1F
:106B18000293029B002B05D00D4A4FF4EB710298AB
:106B28000CF096F90B4A01210B480CF07FFD0390FD
:106B3800039B0193019B002B05D0054A4FF4EE718E
:106B480001980CF085F900BF05B05DF804FB00BFA3
:106B580048AD0300096A02000CAE030000B583B01B
:106B68000B4B00224FF4404118460CF099FD019060
:106B7800019B0093009B002B05D0064A4FF4F4714B
:106B880000980CF065F900BF03B05DF804FB00BF86
:106B9800B823002048AD030000B583B00EF05EFCBA
:106BA8000190019B0093009B002B05D0044A40F202
:106BB800F11100980CF04CF900BF03B05DF804FB2C
:106BC80048AD030000B589B06B4610220021184675
:106BD80013F010FC01238DF8043001238DF80C30DC
:106BE8006B461B4A19461B4803F0B9FA0790079BE6
:106BF8000693069B002B05D0174A4FF400710698A0
:106C08000CF026F900220121124803F037F9079009
:106C1800079B0593059B002B05D00F4A4FF4017184
:106C280005980CF015F90D4A00210A4803F003F9FC
:106C38000790079B0493049B002B05D0064A40F25B
:106C4800072104980CF004F900BF09B05DF804FBB3
:106C5800AD690200E024002048AD030010AE030037
:106C680000B583B00021094802F022FB0190019B86
:106C78000093009B002B05D0054A4FF4047100983F
:106C88000CF0E6F800BF03B05DF804FB60250020B7
:106C980048AD030000B587B003F048FD0590059B9B
:106CA8000493049B002B05D0384A4FF408710498CC
:106CB8000CF0CEF8364803F0FBFD0590059B0393D6
:106CC800039B002B05D0314A40F2232103980CF096
:106CD800BFF86B4605220021184613F08BFB9DF880
:106CE800003043F001038DF800309DF8003043F088
:106CF80002038DF800309DF800306FF382038DF8A1
:106D080000309DF800306FF3C3038DF800309DF814
:106D18000030022262F306138DF800309DF800302F
:106D28006FF3C7138DF8003007238DF80130102357
:106D38008DF802309DF8033043F001038DF80330DD
:106D48009DF8033043F002038DF803309DF80430BA
:106D580043F001038DF804309DF8043043F002033A
:106D68008DF804306B46184603F0CAFD0590059B64
:106D78000293029B002B05D0044A40F23521029869
:106D88000CF066F800BF07B05DF804FB48AD0300DF
:106D9800596A020008B512F0AFF80346002BFAD181
:106DA8000EF072FB00BF08BD08B5FFF78FFEFFF7B6
:106DB800A9FEFFF7C7FBFFF7EFFEFFF7B9FDFFF7E7
:106DC80001FFFFF74DFFFFF75BFEFFF783FDFFF7BE
:106DD80061FF094A094BD31ADB081B0443F003037C
:106DE8000749184611F0FEFFFFF7C2FBFFF7B6FE92
:106DF800FFF7D0FFFCE700BFD0AB0300A8AB030050
:106E0800D0AD030084B001900B468DF803301346D3
:106E18008DF8023000230393019B032B3CD89DF887
:106E28000230012B0BD19DF80330012B04D1019BBB
:106E3800DBB20E33DBB200E000238DF802309DF8A0
:106E48000330022B0FD0022B23DC002B16D0012B92
:106E58001FD11449019A13465B0013440B449DF853
:106E680002201A701AE00F49019A13465B00134476
:106E78000B4401339DF802201A700FE00949019A6A
:106E880013465B0013440B4402339DF802201A702A
:106E980004E00723039301E007230393039B1846A9
:106EA80004B070470027002000B583B001220021FC
:106EB8000020FFF7A7FF0190019B002B04D0019B46
:106EC800072B01D0019B1CE0072202210120FFF7BC
:106ED80099FF0190019B002B04D0019B072B01D047
:106EE800019B0EE0042202210020FFF78BFF019096
:106EF800019B002B04D0019B072B01D0019B00E0D4
:106F08000023184603B05DF804FB00B583B00122E6
:106F180002210020FFF776FF0190019B002B04D08F
:106F2800019B072B01D0019B1CE0072202210120B5
:106F3800FFF768FF0190019B002B04D0019B072BF2
:106F480001D0019B0EE00A2200210020FFF75AFF22
:106F58000190019B002B04D0019B072B01D0019BC2
:106F680000E00023184603B05DF804FB00B585B0C7
:106F780001900091019B1B88102B02D0112B18D077
:106F88002FE01A4B1B68002B0DD1FFF78DFF0390E4
:106F9800039B002B07D0164B1B68002B03D0144B08
:106FA8001B6803989847114B1B6801330F4A1360FD
:106FB80017E00E4B1B68013B0C4A13600B4B1B6818
:106FC800002B0DD1FFF7A1FF0390039B002B07D0E7
:106FD800074B1B68002B03D0054B1B680398984789
:106FE80000BF00BF05B05DF804FB00BF10270020FC
:106FF8000C270020BFF34F8F00BF064BDB6803F45C
:10700800E0620449044B1343CB60BFF34F8F00BFCA
:1070180000BFFDE700ED00E00400FA0582B01D4B5B
:107028001B68B3F1FF3F0AD11B4B1B68DBB201930E
:107038001A4B1B681B0903F00F03009305E0154B5F
:107048001B680193164B1B680093019B062B1DD1EF
:10705800009B033B042B17D801A252F823F000BF72
:107068007D70020081700200857002008970020044
:107078008D70020001230AE0012308E0012306E0E5
:10708800012304E0012302E0012300E00023184665
:1070980002B0704730010010E00F00F0E80F00F078
:1070A8003401001082B0174B1B68DBB20193164BFA
:1070B8001B681B0903F00F030093019B062B1DD1CE
:1070C800009B033B042B17D801A252F823F000BF02
:1070D800ED700200F1700200F5700200F970020014
:1070E800FD70020001230AE0002308E0002306E007
:1070F800002304E0002302E0002300E000231846F8
:1071080002B07047E00F00F0E80F00F082B01D4BAE
:107118001B68B3F1FF3F0AD11B4B1B68DBB201931D
:107128001A4B1B681B0903F00F03009305E0154B6E
:107138001B680193164B1B680093019B062B1DD1FE
:10714800009B033B042B17D801A252F823F000BF81
:107158006D7102007171020075710200797102008F
:107168007D71020001230AE0012308E0012306E003
:10717800012304E0012302E0012300E00023184674
:1071880002B0704730010010E00F00F0E80F00F087
:107198003401001082B0174B1B68DBB20193164B09
:1071A8001B681B0903F00F030093019B062B1DD1DD
:1071B800009B033B042B17D801A252F823F000BF11
:1071C800DD710200E1710200E5710200E97102005F
:1071D800ED71020001230AE0002308E0002306E025
:1071E800002304E0002302E0002300E00023184607
:1071F80002B07047E00F00F0E80F00F082B01D4BBE
:107208001B68B3F1FF3F0AD11B4B1B68DBB201932C
:107218001A4B1B681B0903F00F03009305E0154B7D
:107228001B680193164B1B680093019B062B1DD10D
:10723800009B033B042B17D801A252F823F000BF90
:107248005D720200617202006572020069720200DA
:107258006D72020001230AE0012308E0012306E021
:10726800012304E0012302E0012300E00023184683
:1072780002B0704730010010E00F00F0E80F00F096
:107288003401001082B0174B1B68DBB20193164B18
:107298001B681B0903F00F030093019B062B1DD1EC
:1072A800009B033B042B17D801A252F823F000BF20
:1072B800CD720200D1720200D5720200D9720200AA
:1072C800DD72020001230AE0002308E0002306E043
:1072D800002304E0002302E0002300E00023184616
:1072E80002B07047E00F00F0E80F00F082B0174BD3
:1072F8001B68DBB20193164B1B681B0903F00F03D5
:107308000093019B062B1DD1009B033B042B17D830
:1073180001A252F823F000BF35730200397302004E
:107328003D730200417302004573020001230AE025
:10733800002308E0002306E0002304E0002302E025
:10734800002300E00023184602B07047E00F00F069
:10735800E80F00F082B01D4B1B68B3F1FF3F0AD164
:107368001B4B1B68DBB201931A4B1B681B0903F00C
:107378000F03009305E0154B1B680193164B1B6820
:107388000093019B062B1DD1009B033B042B17D8B0
:1073980001A252F823F000BFB5730200B9730200CE
:1073A800BD730200C1730200C573020000230AE026
:1073B800002308E0012306E0012304E0012302E0A2
:1073C800012300E00023184602B070473001001086
:1073D800E00F00F0E80F00F03401001082B01D4B00
:1073E8001B68B3F1FF3F0AD11B4B1B68DBB201934B
:1073F8001A4B1B681B0903F00F03009305E0154B9C
:107408001B680193164B1B680093019B062B1DD12B
:10741800009B033B042B17D801A252F823F000BFAE
:107428003D74020041740200457402004974020070
:107438004D74020001230AE0012308E0012306E05D
:10744800012304E0012302E0012300E000231846A1
:1074580002B0704730010010E00F00F0E80F00F0B4
:107468003401001082B01D4B1B68B3F1FF3F0AD1F5
:107478001B4B1B68DBB201931A4B1B681B0903F0FB
:107488000F03009305E0154B1B680193164B1B680F
:107498000093019B062B1DD1009B033B042B17D89F
:1074A80001A252F823F000BFC5740200C97402009B
:1074B800CD740200D1740200D574020001230AE0E1
:1074C800012308E0012306E0012304E0012302E090
:1074D800012300E00023184602B070473001001075
:1074E800E00F00F0E80F00F03401001082B0154BF7
:1074F8001B680193144B1B680093019B062B1DD13D
:10750800009B033B042B17D801A252F823F000BFBD
:107518002D750200317502003575020039750200BB
:107528003D75020000230AE0002308E0002306E07E
:10753800012304E0012302E0012300E000231846B0
:1075480002B07047300100103401001082B0154BB2
:107558001B680193144B1B680093019B062B1DD1DC
:10756800009B033B042B17D801A252F823F000BF5D
:107578008D750200917502009575020099750200DB
:107588009D75020000230AE0002308E0002306E0BE
:10759800002304E0012302E0012300E00023184651
:1075A80002B07047300100103401001008B5FFF731
:1075B800CDFF0346002B07D04FF010234FF0804239
:1075C800D3F80832C2F8583500BF08BD00BF044BD5
:1075D800D3F80034002BFAD000BF00BF704700BFBB
:1075E80000E0014000B583B00190054A019BC2F854
:1075F8000435FFF7EBFF00BF03B05DF804FB00BFE5
:1076080000E00140024B034A1A6000BF704700BF08
:10761800F82300200090D00308B5FFF7FFFC0346CD
:10762800002B06D0964B1B681B0A964A03F01F03D3
:107638001360FFF737FD0346002B02D0924B934AA5
:107648001A60FFF763FD0346002B06D0904B1B68BA
:107658005B0B904A03F007031360FFF79BFD03469B
:10766800002B05D08C4BDB688B4A23F08073D360EA
:10767800FFF7C4FD0346002B0ED04FF080430022D5
:10768800C3F80C214FF080430022C3F810214FF0BB
:1076980080430022C3F83825FFF7F4FD0346002B8A
:1076A80002D07E4B03221A60FFF720FE0346002B10
:1076B8000BD07B4B05221A607A4B01221A607A4B59
:1076C80000221A60794B3F221A60FFF743FE0346F7
:1076D800002B76D04FF08053754AD3F80434C2F8A3
:1076E80020354FF08053724AD3F80834C2F8243555
:1076F8004FF080536E4AD3F80C34C2F828354FF057
:1077080080536B4AD3F81034C2F82C354FF08053AD
:10771800674AD3F81434C2F830354FF08053644ABE
:10772800D3F81834C2F834354FF08053604AD3F890
:107738001C34C2F840354FF080535D4AD3F82034EA
:10774800C2F844354FF08053594AD3F82434C2F86C
:1077580048354FF08053564AD3F82834C2F84C3590
:107768004FF08053524AD3F82C34C2F850354FF0BA
:1077780080534F4AD3F83034C2F854354FF0805311
:107788004B4AD3F83434C2F860354FF08053484A36
:10779800D3F83834C2F864354FF08053444AD3F8EC
:1077A8003C34C2F868354FF08053414AD3F840342E
:1077B800C2F86C354FF080533D4AD3F84434C2F8D0
:1077C8007035FFF70BFE0346002B05D0394B1B68BD
:1077D800394A03F04F031360FFF744FE0346002BBA
:1077E8000DD04FF08043D3F8003403F00103002B91
:1077F80005D04FF080436FF00102C3F80024FFF773
:1078080075FE0346002B05D02C4B1B682B4A43F40E
:10781800806313602A4BD3F88830294A43F47003F5
:10782800C2F88830BFF34F8F00BFBFF36F8F00BF20
:10783800FFF7BCFE4FF01023D3F80032002B05DB16
:107848004FF01023D3F80432002B15DA0120FFF78C
:10785800C9FE4FF010231522C3F80022FFF7B6FE29
:107868004FF010231522C3F80422FFF7AFFE0020C3
:10787800FFF7B8FEFFF7BEFBFFF7C4FE00BF08BD69
:10788800240300104035014074C007400DF0ADBA24
:10789800440200103C050040F0ED00E0A005004067
:1078A80010560040885600401856004014560040B4
:1078B80000C0004058020010E40E00403C17004091
:1078C80000ED00E086B0039001921A460B46ADF831
:1078D8000A3013468DF80930039B002B02D0019B18
:1078E800002B01D100235CE00023ADF816300CE03A
:1078F800BDF81630039A13441B789AB2BDF81630B7
:1079080013449BB20133ADF81630BDF816305A1C3B
:10791800BDF80A309A420FDA019B1B88BDF8162081
:107928009A42E5D3BDF816300133039A13441B7805
:107938009DF809209A42DBD1BDF81620BDF80A301F
:107948009A4201D300232CE0BDF816300233ADF87B
:107958001430BDF81630039A13441B78002B08D056
:10796800BDF81630039A13441B789BB2013B9BB2B7
:1079780000E00023ADF81230BDF81230002B08D01B
:10798800BDF81420BDF812301A44BDF80A309A42E6
:1079980001DD002305E0019BBDF814201A80BDF825
:1079A8001230184606B0704700B589B003900B46F0
:1079B8000192ADF80A300023ADF81630019B002B78
:1079C80001D100232DE00DF11602BDF80A1009239C
:1079D8000398FFF777FF0346ADF81E30BDF8163061
:1079E8001A46039B13440693BDF81630002B17D094
:1079F800BDF81E30002B13D0019812F095FC0246FA
:107A0800BDF81E309A420BD1BDF81E301A460699B1
:107A1800019812F01FFD0346002B01D1012300E05D
:107A28000023184609B05DF804FB30B58FB001900B
:107A3800009100230293009B002B1AD000230D9382
:107A480014E06B460D9918460CF0D5FC0346002B44
:107A580009D0029B5A1C02920D9A92B25B003833ED
:107A68006B4423F82C2C0D9B01330D930D9B132B8A
:107A7800E7D9019B1D4602AC0FCC0FC50FCC0FC533
:107A880094E8070085E8070001980FB030BD0000B2
:107A980000B583B00346ADF80630BDF80630132BA9
:107AA80001D900230CE0BDF80630194606480CF051
:107AB8004DFCBDF80630194604480CF047FC01237C
:107AC800184603B05DF804FB1C2700201827002087
:107AD80000B585B00346ADF80630002303930DE0EA
:107AE800039B9B00094A13440433BDF80620114642
:107AF80018460CF067FC039B01330393039B1D2B73
:107B0800EED900BF00BF05B05DF804FB14270020C4
:107B180000B583B00346ADF80630BDF80630194607
:107B280003480CF04FFC00BF03B05DF804FB00BF36
:107B38001C27002030B59BB0184B9B68DB4318937B
:107B4800164B5A6818AB114618460CF02AFD189ABD
:107B58006B4611461846FFF768FF0DAC6D460FCD12
:107B68000FC40FCD0FC495E8070084E80700002371
:107B780019930BE0199B5B0068336B4433F8303C76
:107B88001846FFF7A5FF199B013319930D9B199A06
:107B98009A42EFD300BF00BF1BB030BD14270020AE
:107BA80000B583B003468DF807309DF807301946B5
:107BB80003480CF020FC0346184603B05DF804FBAC
:107BC8001427002000B583B001900B46ADF80230B1
:107BD80013468DF801309DF80130002B06D0BDF812
:107BE8000230194601980CF0B1FB05E0BDF80230EF
:107BF800194601980CF0E6FB00BF03B05DF804FBE2
:107C080000B585B001900091019B9B88ADF80E30BE
:107C1800019B1B88103B0A2B00F2888001A252F8B6
:107C280023F000BF597C0200957C0200357D0200DC
:107C3800357D0200357D0200357D0200357D02006C
:107C4800357D0200357D0200FF7C0200A17C020028
:107C5800FFF770FFBDF80E301846FFF719FF03460F
:107C680083F00103DBB2002B05D0324AF021042057
:107C78000BF0EEF857E0019BDB7B022B53D1BDF8EC
:107C88000E3019462C480CF061FB4CE0BDF80E3064
:107C98001846FFF73DFF49E0019B1B7AC3F3031326
:107CA800DBB28DF80D309DF80D30032B8CBF01230E
:107CB8000023DAB2BDF80E3019462048FFF782FFDC
:107CC8009DF80D30022B8CBF01230023DAB2BDF8DA
:107CD8000E3019461A48FFF775FF9DF80D30012B35
:107CE8008CBF01230023DAB2BDF80E3019461548BF
:107CF800FFF768FF1AE0019B1B7A002B15D1019B47
:107D08005B7AC3F3C003DBB2002B14BF012300234B
:107D18008DF80C309DF80C20BDF80E301946074838
:107D2800FFF750FF01E000BF00E000BF00BF05B053
:107D38005DF804FB1CAE0300202700202C27002040
:107D4800282700202427002000B583B00346ADF87B
:107D58000630BDF80630132B01D9002306E0BDF824
:107D68000630194603480CF046FB0346184603B094
:107D78005DF804FB1827002000B585B00346ADF870
:107D8800063000238DF80F30BDF806301846FFF78F
:107D9800DBFF0346002B11D0BDF8063019460A4810
:107DA8000CF029FB03468DF80E309DF80E30002BA1
:107DB80001D0022300E001238DF80F309DF80F3029
:107DC800184605B05DF804FB2027002000B585B0F3
:107DD8000346ADF8063000238DF80F30BDF80630A5
:107DE8001846FFF7B1FF0346002B11D0BDF8063047
:107DF80019460A480CF0FFFA03468DF80E309DF834
:107E08000E30002B01D0022300E001238DF80F3043
:107E18009DF80F30184605B05DF804FB1C270020BC
:107E280000B583B00346ADF80630BDF806301846F5
:107E3800FFF78AFF0346002B07D0BDF80630194626
:107E480004480CF0D8FA034600E00023184603B0B3
:107E58005DF804FB2427002000B583B00346ADF885
:107E68000630BDF806301846FFF76EFF0346002BB4
:107E780007D0BDF80630194604480CF0BCFA034692
:107E880000E00023184603B05DF804FB2827002013
:107E980000B583B00346ADF80630BDF80630184685
:107EA800FFF752FF0346002B07D0BDF806301946EE
:107EB80004480CF0A0FA034600E00023184603B07B
:107EC8005DF804FB2C27002000B583B01821074873
:107ED8000CF0A9FA0190019B182B01D1182301E09D
:107EE800019BDBB2184603B05DF804FB14270020A1
:107EF80000B583B003460A46ADF8063013468DF840
:107F080005309DF805301846FFF74AFE0346002B5A
:107F180016D0BDF806301846FFF716FF0346002BAB
:107F28000ED09DF8053006339B00084A13440433ED
:107F3800BDF80620114618460CF05DFA034600E02D
:107F48000023184603B05DF804FB00BF1427002087
:107F580000B583B00346ADF806300B468DF8053002
:107F680013468DF804309DF805301846FFF718FEC3
:107F78000346002B15D0BDF806301846FFF7E4FE7F
:107F88000346002B0DD09DF8053006339B00074AA9
:107F9800134404339DF80420BDF806101846FFF773
:107FA80011FE00BF03B05DF804FB00BF14270020DA
:107FB80000B587B0039002910192029B002B01D17A
:107FC80000231FE000230593039B002B19D00023F7
:107FD800049313E003AB049918460CF00CFA03461B
:107FE800002B08D0049B9AB2029B0199104698472F
:107FF800059B01330593049B01330493049B132BC6
:10800800E8D9059B184607B05DF804FB00B585B0B4
:108018000346029101928DF80F309DF80F301846F3
:10802800FFF7BEFD034683F00103DBB2002B01D04E
:1080380000230CE09DF80F30074A06339B001344D9
:108048005B68019A02991846FFF7B2FF0346184683
:1080580005B05DF804FB00BF1427002084B0019030
:108068000023039316E0104A039B9B0013449A785D
:10807800019B9B789A420AD10B4A039B32F8232032
:10808800019B1B889A4202D1084B1B6808E0039B9E
:1080980001330393064B1B68039A9A42E3D30023E8
:1080A800184604B0704700BF90270020A82700207A
:1080B800B027002000B583B0019000910198FFF728
:1080C800CDFF0346002B01D0002314E00C4B1B68A6
:1080D800052B0FD80A4B1B680A4A01999B001344C9
:1080E8000A4610681860064B1B680133044A13607F
:1080F800002300E00423184603B05DF804FB00BF2A
:10810800B02700209027002000B585B001900023FB
:10811800039311E0019A039BDB01134403F55373A6
:108128001B68039AD20102F5347201990A44104679
:108138009847039B01330393064B1B68039A9A42A3
:10814800E8D3019B0022C3F8CC2200BF05B05DF83C
:1081580004FB00BFB027002000B5A3B001900B4678
:10816800ADF8023003AB7C220021184612F042F928
:10817800BDF80230ADF80E3003238DF80C30019BAA
:108188000493064B1B68002B04D0044B1B6803AAFE
:108198001046984700BF23B05DF804FBA8270020CD
:1081A80000B5A7B0039002911346ADF80630039BC3
:1081B80093F8C6321A46762302FB03F3039A134454
:1081C8002593259B1846FFF749FF2490249B002BF5
:1081D80012D005AB7C220021184612F00BF90123BE
:1081E8008DF81430BDF80630ADF81630029B0693B2
:1081F80005AA249B1046984700BF27B05DF804FBEA
:1082080000B587B0039002911346ADF80630029B83
:108218000593059B002283F8C822BDF806301A464C
:1082280003990598FFF7BCFFBDF806301946059875
:10823800FFF792FF00BF07B05DF804FB00B585B0FB
:1082480001900B468DF803301346ADF80030019BC2
:1082580093F8C6321A46762302FB03F3019A1344B5
:108268000393039B1846FFF7F9FE0290029B002B2D
:1082780052D0019BD3F8CC32052B4DD8019BD3F8B3
:10828800CC32019ADB01134403F2D223BDF800205B
:108298001A80019BD3F8CC32019ADB01134403F511
:1082A8003473039A043311467622184612F06CF898
:1082B8009DF80330002B0AD0019BD3F8CC32019AE9
:1082C800DB01134403F5347300221A7009E0019BA3
:1082D800D3F8CC32019ADB01134403F5347302223C
:1082E8001A70019BD3F8CC32019ADB01134403F5D1
:1082F8005373029A1A60019BD3F8CC325A1C019B23
:10830800C3F8CC22019BD3F8CC22054B1B689A42B8
:1083180002D10198FFF7F8FE00BF05B05DF804FB35
:10832800B027002000B58DB001900B46ADF80230A3
:1083380002AB20220021184612F05CF8019B93F84A
:10834800C7320133DAB2019B83F8C722019B93F845
:10835800C7321A462A4B1B689A4244D2019B002214
:1083680083F8C522019B93F8C6320133DAB2019B28
:1083780083F8C622019B93F8C6321A46762302FB7D
:1083880003F3019A13440B93019B93F8C6320B999C
:108398001C4A9B001344186808600B9B00221A7142
:1083A80002238DF808300123ADF818300B9A0DF12F
:1083B8001A0312681A60019B0593134B0493134B1D
:1083C8001B68BDF8022002A9184601F01BFB0A90A1
:1083D8000A9B002B11D0BDF802301A4601990A9861
:1083E800FFF70EFF09E0019B002283F8C822BDF8C1
:1083F800023019460198FFF7AFFE0DB05DF804FB97
:10840800B02700209027002009820200AC27002016
:1084180082B001900091009B1A89019B93F8C632A3
:1084280018460199762300FB03F30B4408331B8895
:108438009A4201D2012300E00023184602B0704797
:1084480084B00390029101920093019B002B25D1E7
:10845800029B1A89039B93F8C63218460399762320
:1084680000FB03F30B4408331B889A4201D1002315
:108478002AE0029B1B8901339AB2009B1A80039B56
:1084880093F8C6321946039A762301FB03F3134483
:1084980008331A88009B5A80012315E0029B1B8928
:1084A8000133019AD288934201D100230CE0029B48
:1084B8001B8901339AB2009B1A80019BDB88013B20
:1084C8009AB2009B5A800123184604B070470000F6
:1084D80000B58FB001900B46ADF8023002AB2022F8
:1084E8000021184611F086FF0AAB04220021184625
:1084F80011F080FF019B93F8C6321A46762302FBDF
:1085080003F3019A13440D93019B93F8C532002B92
:1085180021D0019B93F8C532013B8DF83330019B84
:1085280093F8C6321A46762302FB03F3019A1344E2
:108538000D939DF833201346DB0013445B0008338A
:108548000D9A134402330B930B9B1B8901339BB287
:10855800ADF8283003E00D9BDB88ADF828300D9B83
:108568001B89ADF82A3003238DF808300A9B06933F
:10857800019B0593074B0493074B1B68BDF802202A
:1085880002A9184601F03EFA034618460FB05DF8F6
:1085980004FB00BF09820200AC27002000B593B09D
:1085A800039002911346ADF8063000238DF843304E
:1085B80005AB20220021184611F01CFF039B93F8FD
:1085C800C6321A46762302FB03F3039A13440E932A
:1085D800039B93F8C5321A461346DB0013445B002D
:1085E80008330E9A134402331193039B93F8C53250
:1085F80001330E9A1279934209D10DAB00221199D9
:108608000398FFF71DFF03468DF843303DE0039BB9
:1086180093F8C5328DF8423031E09DF842200E9B28
:108628001B79013B9A4202D100230F930BE09DF87E
:1086380042305A1C1346DB0013445B0008330E9A81
:10864800134402330F930DAB0F9A11990398FFF758
:10865800F7FE0346002B03D001238DF8433014E0C6
:108668000F9B1193039B93F8C5320133DAB2039B36
:1086780083F8C5229DF8423001338DF842300E9BB5
:108688001B799DF842209A42C7D39DF8433083F066
:108698000103DBB2002B04D0029B01221A700023D5
:1086A80014E0029B00221A7004238DF814300D9BED
:1086B8000993039B0893074B0793074B1B68BDF867
:1086C800062005A9184601F09DF90346184613B07F
:1086D8005DF804FB09820200AC27002000B587B0D2
:1086E80001900091019B93F8C6321A46762302FB4B
:1086F80003F3019A13440393009B1A88019BB3F870
:10870800CA329A4261D1009B5B88002B4FD1009BF3
:1087180006330593039B059A0633063212681A60DE
:10872800019B93F8C4328DF81330059B1B888DF894
:1087380012309DF813209DF812301344062B0ADCE2
:10874800019B93F8C4229DF812301344DAB2019BBE
:1087580083F8C42219E0019B062283F8C4221D4A2B
:108768001D4BD31ADB081B0443F002031B491846B0
:1087780010F038FB174A184BD31ADB081B0443F0D8
:1087880002031749184610F02DFB009B1B88194659
:108798000198FFF79DFE0290029B002B16D0009BCC
:1087A8001B881A4601990298FFF72AFD0EE0009BE4
:1087B8001B881A4600210198FFF740FD009B1B8883
:1087C80019460198FFF7AEFD00E000BF07B05DF85D
:1087D80004FB00BFE8AB0300A8AB03005CAE0300DA
:1087E8007CAE030000B58DB00190009100238DF898
:1087F8002F30009B1A88019BB3F8CA329A4240F086
:10880800FC80019B93F8C6321A46762302FB03F3D9
:10881800019A13440893009B5B88002B40F0BC80AE
:10882800009B06330793089B1B798DF81B30079B29
:108838001B888DF81A309DF81B209DF81A301344B8
:10884800062B08DC089B1A799DF81A301344DAB213
:10885800089B1A711AE0089B06221A71694A6A4B2A
:10886800D31ADB081B0443F00200089B1B881A4636
:10887800664910F0C5FA634A634BD31ADB081B0438
:1088880043F002036249184610F0ACFA9DF81B3019
:108898000A930023099345E008990A9A1346DB00D6
:1088A80013445B000B4403F108010798099A134627
:1088B8009B0013445B00C2188B1C0232106851687D
:1088C8001860596012891A8108990A9A1346DB00C0
:1088D80013445B000B44143300221A8008990A9A47
:1088E8001346DB0013445B000B44163300221A8046
:1088F80008990A9A1346DB0013445B000B441833AB
:1089080000221A8008990A9A1346DB0013445B0078
:108918000B441A3300221A800A9B01330A93099BDD
:1089280001330993089B1B791A460A9B9342B3D3D8
:108938000A9B5A1E1346DB0013445B000833089A4F
:1089480013440233059305990198FFF761FD034627
:1089580083F00103DBB2002B03D1089B1B79062BA4
:1089680003D101238DF82F3019E0089B1A79019B58
:1089780083F8C522009B1B8819460198FFF7A8FDBC
:108988000490049B002B0AD0009B1B881A4601996F
:108998000498FFF735FC31E001238DF82F309DF85E
:1089A8002F30002B2AD0019B002283F8C522009B80
:1089B8001A880DF10F0319460198FFF7EFFD04908F
:1089C800049B002B07D0009B1B881A46019904982A
:1089D800FFF716FC12E09DF80F30002B0ED0009B1D
:1089E8001B881A4601210198FFF728FC009B1B8869
:1089F80019460198FFF796FC00E000BF0DB05DF83E
:108A080004FB00BFE8AB0300A8AB0300C4AE03003F
:108A18000CAF030000B589B001900091009B1A8843
:108A2800019BB3F8CA329A4240F0CC80019B93F87C
:108A3800C6321A46762302FB03F3019A13440693BF
:108A4800009B06330593019B93F8C5321A461346DB
:108A5800DB0013445B000833069A13440233049383
:108A6800009B5B88002B70D10023079365E0059974
:108A7800079A13465B0013445B000B4404331B88BE
:108A8800A3F52453082B45D801A252F823F000BFC0
:108A9800D58A0200ED8A0200BD8A02001D8B020001
:108AA8001D8B02001D8B02001D8B02001D8B020016
:108AB800058B02000599079A13465B0013445B0077
:108AC8000B4402331A88049B5A8123E00599079ABC
:108AD80013465B0013445B000B4402331A88049B63
:108AE8009A8117E00599079A13465B0013445B00C7
:108AF8000B4402331A88049BDA810BE00599079A24
:108B080013465B0013445B000B4402331A88049B32
:108B18001A8200BF049B5B89002B0BD0049B9B89A6
:108B2800002B07D0049BDB89002B03D0049B1B8AF6
:108B3800002B09D1079B01330793059B1B881A4615
:108B4800079B934293D300E000BF00238DF80B30BE
:108B5800019B93F8C5320133069A1279934203D1E7
:108B680001238DF80B301BE0019B93F8C5320133CC
:108B7800DAB2019B83F8C522009B1A880DF10B031A
:108B880019460198FFF70AFD0390039B002B07D0B5
:108B9800009B1B881A4601990398FFF731FB12E0E6
:108BA8009DF80B30002B0ED0009B1B881A46012124
:108BB8000198FFF743FB009B1B8819460198FFF7B4
:108BC800B1FB00E000BF09B05DF804FB84B0019080
:108BD80000230393019B002B01D10E231AE0019B74
:108BE8001B68002B01D10E2314E0019B5B68002B4E
:108BF80001D10E230EE0094B00221A60084B012216
:108C08001A70019B1B68074A1360019B5B68064A40
:108C18001360039B184604B0704700BFB0270020BC
:108C2800B4270020A8270020AC27002000B583B077
:108C38000190019B002B01D10E230FE0094B1B78FB
:108C480083F00103DBB2002B01D0082306E0064BBA
:108C58001B6819460198FFF72DFA0346184603B01A
:108C68005DF804FBB4270020A827002000B58FB0CA
:108C780001900B46ADF802304FF4BA62002101981A
:108C880011F0B8FB03AB20220021184611F0B2FB0B
:108C98002D4B1B68BDF802201146184600F050FF06
:108CA8000D900D9B0C930C9B002B01D00C9B47E067
:108CB800019BBDF80220A3F8CA22019B0022C3F839
:108CC800CC22019B002283F8C722019B002283F853
:108CD800C622019B002283F8C522019B93F8C63265
:108CE8001A46762302FB03F3019A13440B93019B64
:108CF80093F8C6320B99154A9B001344186808600C
:108D080002238DF80C300123ADF81C300B9A0DF1BD
:108D18001E0312681A60019B06930D4B05930A4BBC
:108D28001B68BDF8022003A9184600F06BFE0D90E1
:108D38000D9B002B03D1019B012283F8C8220D9BB8
:108D480018460FB05DF804FBAC27002090270020E0
:108D58000982020000B583B001900B46ADF80230DD
:108D6800019B002B01D10E231CE0104B1B7883F0D4
:108D78000103DBB2002B01D0082313E00C4B1B6866
:108D8800002B01D108230DE0019B93F8C832002B7A
:108D980001D0112306E0BDF8023019460198FFF70B
:108DA80065FF0346184603B05DF804FBB4270020AE
:108DB800B027002082B001900091009B1A88019B87
:108DC800B3F8CA329A4208D1019B002283F8C8221C
:108DD800019B4FF6FF72A3F8CA2200BF02B070478A
:108DE80000B585B001900091019B002B36D0009B07
:108DF800002B33D01B4B1B7883F00103DBB2002B15
:108E08002CD1009B0393019B1B88332B17D0332B4A
:108E180023DC322B0CD0322B1FDC112B16D0302B3D
:108E28001BD1019B043319460398FFF757FC15E043
:108E3800019B043319460398FFF7D4FC0EE0019B0D
:108E4800043319460398FFF7E5FD07E0019B043357
:108E580019460398FFF7AEFF00E000BF05B05DF8C4
:108E680004FB00BFB427002090DF704700BF1846FE
:108E7800A5DF704700BF1846B5DF704700BF18462A
:108E880082B00190019B17221A80019B17225A80F9
:108E9800019B00221A71019B00225A71019B1B221F
:108EA8009A71019B1B22DA7100BF02B07047000063
:108EB80030B589B003460A46ADF806301346ADF81A
:108EC8000430BDF80430ADF81430BDF80430ADF806
:108ED80016300023ADF818300023ADF81A3003AB74
:108EE80000221A609A8003AA05A9BDF80630184620
:108EF800FFF7BAFF0790079B002B39D01E4A1F4B7C
:108F0800D31ADB081B0443F00104BDF80650079888
:108F18000CF0D8FD03462A46194920460FF081FF78
:108F2800BDF80C30002B03D1BDF80E30002B0ED04D
:108F3800114A124BD31ADB081B0443F00100BDF899
:108F48000C301A46BDF80E300E490FF06AFFBDF816
:108F58001030002B0CD0084A084BD31ADB081B042E
:108F680043F00103BDF81020074918460FF048FFE9
:108F7800079B184609B030BD10AC0300A8AB03002E
:108F880078AF0300C4AF030004B0030010B586B087
:108F980001900091009B9B88ADF80E30BDF80E3013
:108FA800DB00019A134406330593019B1A79059B4C
:108FB8009A71009BDB7B012B02D0022B05D009E0C4
:108FC800019B1A88059B1A8004E0019B5A88059B1F
:108FD8001A8000BF059B1A88059B5B889A4226D990
:108FE800059B1A88BDF80E3011461846FFF740FF5A
:108FF8000490049B002B03D1059B01225A7116E0B3
:10900800049B112B03D1059B01221A710FE0114A11
:10901800114BD31ADB081B0443F0010404980CF02D
:1090280051FD03461A460D4920460FF0E9FE059BFF
:109038009A79059BDB799A4208D9059B9B799AB264
:10904800BDF80E3011461846FFF732FF00BF06B0D4
:1090580010BD00BF10AC0300A8AB03005CB0030058
:1090680000B583B001900091009B9B88DB00019ABA
:10907800134406331846FFF703FF00BF03B05DF83B
:1090880004FB00B587B001900091009B9B88ADF868
:109098001630009B5B89ADF81430BDF81630DB0044
:1090A800019A134406330493049B1B88BDF81420CB
:1090B800934228BF13469AB2049B5A80049B5B884C
:1090C800172B38BF17239AB2049B5A80019B1B6940
:1090D800002B15D0049B5B79002B11D040F6772329
:1090E800ADF80830BDF81630ADF80A30049B5B883F
:1090F800ADF80C30019B1B6902AA114601989847EC
:10910800049B00225A71049B00221A7100BF07B009
:109118005DF804FB10B588B001900091009B9B8816
:10912800ADF81A30009BDB88ADF81830BDF81A305E
:10913800DB00019A134406330593BDF81830172B4A
:1091480038BF1723ADF81830059B1B88BDF81820C9
:10915800934228BF13469AB2059B5A80059B00226A
:109168001A71059B1A88BDF81A3011461846FFF780
:1091780083FE0790079B002B0FD0174A174BD31A73
:10918800DB081B0443F0010407980CF09BFC034622
:109198001A46134920460FF033FE059B5B79002BD6
:1091A80016D1019B1B69002B13D040F67723ADF82D
:1091B8000C30BDF81A30ADF80E30059B5B88ADF861
:1091C8001030019B1B6903AA11460198984700E0DB
:1091D80000BF08B010BD00BF10AC0300A8AB03006F
:1091E80090B0030030B591B001900091009B04ACA1
:1091F8001D1D0FCD0FC40FCD0FC495E8070084E8DF
:109208000700BDF81030ADF83E30BDF81420BDF8A9
:109218003E30D1B2019ADB0013440A465A73019BCF
:109228001B69002B19D002AB00221A609A804DF6F8
:109238007A23ADF80830BDF83E30ADF80A30BDF8F5
:109248003E30019ADB0013445B7B8DF80C30019BA8
:109258001B6902AA11460198984700BF11B030BD9A
:1092680000B587B001900091009B04330593059BDE
:109278001B88DB00019A134406330493059B9B88E3
:109288008DF80F30049B9B799DF80F20934228BFDF
:1092980013468DF80E30059B1B889DF80E2092B260
:1092A80011461846FFF704FE00BF07B05DF804FB3F
:1092B80000B585B001900091019B002B01D10E23D0
:1092C8001DE0019B009A1A61019B17221A80019BDD
:1092D80017225A80019B1B221A71002303930AE06C
:1092E800039BDB00019A134406331846FFF7C8FDB9
:1092F800039B01330393039B002BF1D000231846F3
:1093080005B05DF804FB000010B586B0019000912F
:10931800009B0593019B9B88ADF81230BDF8123075
:10932800002B40F09880019B1B88552B48D0552B6B
:1093380055DC242B32DC102B51DB103B142B4ED880
:1093480001A252F823F000BFAB930200B5930200CC
:10935800E7930200E7930200E7930200E793020015
:10936800E7930200E7930200E7930200E793020005
:10937800E7930200E7930200E7930200E7930200F5
:10938800E7930200E7930200E7930200E7930200E5
:10939800E7930200DD930200D39302003A2B0AD030
:1093A8001DE001990598FFF7F1FD19E0019905986D
:1093B800FFF756FE14E001990598FFF762FE0FE0EB
:1093C80001990598FFF7A6FE0AE001990598FFF7AD
:1093D80009FF05E001990598FFF742FF00E000BF8B
:1093E800BDF81230059ADB0013449B7A002B33D06A
:1093F800BDF81230059ADB001344DA88BDF8123044
:1094080011461846FFF734FD0390039B002B0ED13D
:10941800BDF81230059ADB00134400229A72BDF899
:109428001230059ADB0013440122DA7214E0039B20
:10943800112B11D0094A0A4BD31ADB081B0443F03D
:10944800010403980CF03EFB03461A4605492046E2
:109458000FF0D6FC00E000BF06B010BD10AC030052
:10946800A8AB03005CB003009BDF704700BF184641
:109478009DDF704700BF18469EDF704700BF184643
:10948800A1DF704700BF1846A3DF704700BF18462A
:10949800AEDF704700BF184600B585B00190009157
:1094A800009B10330393039BDB88102B01D90923FE
:1094B80019E0039BDB88194601980BF0DEFD024694
:1094C800009B5A60009B5B68002B01D104230AE0D3
:1094D800009B5868039B9968039BDB881A46002306
:1094E8000BF018FF0023184605B05DF804FB00B523
:1094F80085B001900091009B10330393039B9B68F8
:109508001B88102B01D9092324E0039B9B681B8827
:109518000233194601980BF0B0FD0246009B5A60D1
:10952800009B5B68002B01D1042313E0009B586863
:10953800039B9968002302220BF0ECFE009B5868FD
:10954800039BD968039B9B681B881A4602230BF070
:10955800E1FE0023184605B05DF804FB00B587B0AE
:1095680005900B460392ADF81230039B002B1ED0DA
:10957800114A124BD31ADB081B0443F00100059B68
:109588001B781946BDF81220039B009313460A4620
:109598000B490FF05AFC059B9B68002B07D0059BD5
:1095A8009B68059AD168BDF812200398984700BFB8
:1095B80007B05DF804FB00BF18AC0300A8AB0300BC
:1095C800CCB0030000B597B001900B46ADF802305F
:1095D8000CAB0122194601980CF09AF81590159BCE
:1095E800002B40F0AC809DF83030052B7ED801A2CE
:1095F80052F823F0159602002B96020055960200A9
:109608006D9602008396020099960200BDF84010FC
:10961800BDF84220BDF802301846FFF731FF15901B
:1096280071E008AB12930D981299BDF846301A46AE
:1096380000230BF08DFE0CAB03F11002BDF80230D5
:1096480011461846FFF720FF15905CE0BDF8401062
:109658000CAB03F11202BDF802301846FFF704FF05
:10966800159050E00CAB03F11002BDF80230114622
:109678001846FFF7FDFE159045E00CAB03F110020C
:10968800BDF8023011461846FFF7F6FE15903AE08D
:1096980004AB13930D980DF10E01002302220BF079
:1096A80057FE0DF10E0312930D981399129B1B8808
:1096B8001A4602230BF04CFEBDF80E30ADF85230BE
:1096C8000CAB03F11002BDF8023011461846FFF743
:1096D800DFFE1590159B002B14D1BDF80E30BDF898
:1096E80052209A420ED00C2315930BE0164A174BC2
:1096F800D31ADB081B0443F00203154918460FF080
:1097080071FB00E000BF159B112B18D09DF830307D
:109718001A46104B53F82230002B03D00D9B1846E5
:109728000BF002FD0CAB0022194601980BF0F0FF7C
:10973800BDF802100CAB159A1846FFF70FFF00BFD3
:1097480017B05DF804FB00BF18AC0300A8AB03001A
:1097580018B1030034B1030000B58FB00190019B2C
:10976800DB680DF12E01002218460BF0D1FF0D9099
:1097780031E0019B9A68BDF82E3019460B469B00D4
:109788000B449B0013440C9303AB002219460C981E
:109798000BF0BEFF0D9012E09DF80C301A46124BEC
:1097A80053F82230002B03D0049B18460BF0BCFC66
:1097B80003AB002219460C980BF0AAFF0D900D9BE5
:1097C800002BE9D0019BDB680DF12E010022184621
:1097D8000BF09EFF0D900D9B002BCAD000BF00BF61
:1097E8000FB05DF804FB00BF34B1030000B585B0CD
:1097F80001900B46ADF8023000230393019B1B78C0
:10980800052B63D801A252F823F000BF2D9802005F
:109818004398020059980200719802008798020044
:109828009D980200019B198A019B5A8ABDF8023053
:109838001846FFF725FE039055E0019B03F110023F
:10984800BDF8023011461846FFF71EFE03904AE0A5
:10985800019B198A019B03F11202BDF802301846D8
:10986800FFF702FE03903EE0019B03F11002BDF8F2
:10987800023011461846FFF7FBFD039033E0019BC9
:1098880003F11002BDF8023011461846FFF7F4FD47
:10989800039028E0019B9B691B88ADF80A30019B67
:1098A80003F11002BDF8023011461846FFF7F0FD2B
:1098B8000390039B002B15D1019B9B691B88BDF866
:1098C8000A209A420ED00C2303930BE00E4A0F4B4A
:1098D800D31ADB081B0443F002030D4918460FF0A6
:1098E80081FA00E000BF039B112B01D1002307E0A0
:1098F800BDF80230039A19460198FFF72FFE01239D
:10990800184605B05DF804FB18AC0300A8AB0300CB
:1099180018B1030084B001900B46ADF80230002363
:10992800ADF80E3012E0019B5A68BDF80E305B00AE
:1099380013441B88BDF802209A4202D1BDF80E30AC
:109948000CE0BDF80E300133ADF80E30019B1B88DA
:10995800BDF80E209A42E6D3BDF80E30184604B082
:10996800704784B001900B46ADF802300023ADF883
:109978000E301AE0019B5A68BDF80E305B001344A4
:109988001B884FF6FF7293420AD1019B5A68BDF8B3
:109998000E305B001344BDF802201A8000230BE050
:1099A800BDF80E300133ADF80E30019B1B88BDF8B1
:1099B8000E209A42DED30423184604B0704784B0C0
:1099C80001900023ADF80E3011E0019B5A68BDF8F4
:1099D8000E305B0013441B884FF6FF72934201D090
:1099E80001230BE0BDF80E300133ADF80E30019BBA
:1099F8001B88BDF80E209A42E7D30023184604B00E
:109A08007047000000B589B0039002911346ADF885
:109A1800063000230693039B002B01D10E2389E017
:109A2800029B002B01D10E2384E00398FFF794FEDC
:109A3800BDF8063019460398FFF76CFF0346ADF8EA
:109A48001E30029B1B78052B05D8039B1B88BDF88D
:109A58001E209A4201D107236CE0039B9968BDF848
:109A68001E2013469B0013449B000B4418460BF022
:109A7800E9FE0346002B0ED0BDF8063019460298C1
:109A8800FFF7B4FE03468DF817309DF81730002B0A
:109A980001D0069B4EE0029B1B781A46274B53F8D1
:109AA8002230002B18D0039B1B69002B01D10E23F9
:109AB80040E0029B1B781A46204B53F82230039A49
:109AC80012690299104698470690069B0493049BD6
:109AD800002B01D0049B2DE0039B9968BDF81E2044
:109AE80013469B0013449B000B44029918460BF045
:109AF80057FD0690069B002B0CD0029B1B781A463C
:109B08000E4B53F82230002B04D0029B5B6818469A
:109B18000BF00AFB039B9968BDF81E2013469B00B7
:109B280013449B000B44BDF8062011461846FFF766
:109B380049FD069B184609B05DF804FB34B10300E3
:109B480000B587B001900B46ADF8023000230593AD
:109B5800019B002B01D10E232FE00198FFF7FCFD9C
:109B6800BDF8023019460198FFF7D4FE0346ADF858
:109B78001230019B1B88BDF812209A421CD1019813
:109B8800FFF71DFF034683F00103DBB2002B05D06E
:109B9800019B1B6918460BF065FA0590BDF8023069
:109BA80019460198FFF7DDFE0590059B0393039B7B
:109BB800002B01D0039B00E0059B184607B05DF819
:109BC80004FB00B587B001900091009B0493019BB2
:109BD800002B5AD0049B002B57D0019B1B88112BBC
:109BE80004D1019B9B88ADF8163018E0019B1B88B7
:109BF8002F2B08D9019B1B884F2B04D8019B9B88CE
:109C0800ADF816300BE0019B1B884F2B3FD9019B09
:109C18001B886F2B3BD8019B9B88ADF81630BDF88D
:109C2800163019460498FFF775FE0346ADF80E3056
:109C3800049B1A88BDF80E309A422AD0019B1B88D3
:109C4800112B11D1049B5A68BDF80E305B001344E8
:109C58004FF6FF721A80049BDB680DF10E02114665
:109C680018460BF09DFC15E0049B9A68BDF80E3071
:109C780019460B469B000B449B001344BDF8162065
:109C880011461846FFF79EFC04E000BF02E000BF43
:109C980000E000BF07B05DF804FB8ADF704700BF33
:109CA80018468BDF704700BF18468CDF704700BF2F
:109CB800184600B58DB001900091009B02330993BE
:109CC800019B2E330893019B24330B93019B93F83C
:109CD8002C308DF82B30019B93F8233083F001034F
:109CE800DBB2002B21D100F035FA02AB142200219F
:109CF800184610F07FFB9DF82B300B9A08990998AD
:109D0800FFF7D3FF079005238DF80830079B0393CF
:109D1800079B002B0AD0019BDB6B002B06D0019B15
:109D2800DB6B02AA1046984700E000BF0DB05DF853
:109D380004FB00B587B001900091009B0493009B41
:109D480093F820308DF80F30019B9B8BADF80C30C9
:109D580000238DF8173015E0019B98699DF817309E
:109D68005B01049A1A44BDF80C301946FDF71CFE35
:109D78000346002B01D001230BE09DF81730013377
:109D88008DF817309DF817209DF80F309A42E3D3CD
:109D98000023184607B05DF804FB10B586B00190A3
:109DA8000091019B20330493009810F0BDFA0346FC
:109DB8008DF80F309DF80F30002B03D09DF80F3031
:109DC800202B01D90C2333E0049B1B78002B01D0F6
:109DD80004232DE000238DF8173012E09DF817308A
:109DE8005B01019A13440099184610F069FA03467A
:109DF800002B01D100231BE09DF8173001338DF8AB
:109E080017309DF81730002BE8D0049B1B785A1C9C
:109E1800D1B2049A11705B01019AD418009810F01D
:109E280083FA03461A460099204610F0ADFA00233B
:109E3800184606B010BD00B587B003900B460192D6
:109E48008DF80B30039B002B01D10E2311E0019BF1
:109E5800002B01D10E230CE09DF80B30002B07D10D
:109E6800019B059305990398FFF797FF034600E0C8
:109E78000723184607B05DF804FB000000B585B05D
:109E880001900B468DF8033013468DF80230019B84
:109E9800002B01D10E233DE09DF8033003F00203AF
:109EA800002B19D19DF8033003F00103002B13D1C7
:109EB8009DF8033003F00403002B0DD19DF8033007
:109EC80003F01003002B07D19DF8033003F00803BB
:109ED800002B01D107231DE0019800F021F8039021
:109EE800039B002B04D00D4940F2AF20FCF708FB80
:109EF800019B02939DF8033003F00103002B03D06C
:109F0800029B012283F82120029B9DF8022083F8FE
:109F180022200023184605B05DF804FB58B1030061
:109F280084B00190019B002B01D10E2306E0019B18
:109F380021330393039B00221A700023184604B0B0
:109F4800704700B58BB00190009100238DF8273041
:109F580000238DF8263003AB14220021184610F098
:109F680049FA019B2E330793019800F081F80346C4
:109F7800002B14D002238DF80C30009B0493019B16
:109F8800DB6B03AA10469847019B603319460020F3
:109F9800FFF783FE00990198FFF78BFE65E0019BB0
:109FA80093F822308DF8243000238DF82530019B5A
:109FB80093F821308DF823309DF82330002B19D0E9
:109FC8009DF8273001338DF8273001990098FFF765
:109FD800B0FE0346002B0DD09DF8263001338DF8D6
:109FE80026309DF8143043F001038DF81430012316
:109FF8008DF82530009B04939DF82430002B0DD05C
:10A008009DF826209DF827309A4207D100238DF825
:10A018000C3000990198FFF74CFE17E09DF82430AA
:10A0280083F00103DBB2002B0BD09DF82530002B09
:10A0380007D000238DF80C3000990198FFF739FEFE
:10A0480004E003238DF80C30009B0493019BDB6B29
:10A05800002B04D0019BDB6B03AA10469847019B99
:10A06800603319460020FFF718FE0BB05DF804FBBB
:10A0780082B00190019B93F82E3003F01803DBB2F5
:10A08800082B07D0019B93F82E3003F01803DBB29E
:10A09800182B01D1012300E00023184602B07047B5
:10A0A80082B00190019A92F82E3043F0040382F8AE
:10A0B8002E30019BA0221A86019B50225A86019BB2
:10A0C80000229A86019A92F82E306FF3C40382F820
:10A0D8002E30019B012283F82F2000BF02B0704769
:10A0E80082B00190019B4FF4C8725A85019B0622E9
:10A0F8009A84019B1822DA84019B00221A8500BFEA
:10A1080002B0704700B589B001900091009B0433FC
:10A11800079302AB14220021184610F06BF9079B35
:10A128001B78012B12D1019BDB6B002B0ED0042373
:10A138008DF80830019B2E330693079B1B788DF80A
:10A148000C30019BDB6B02AA1046984700BF09B090
:10A158005DF804FB08B5FFF7A4FD00BF08BD10B506
:10A1680084B0039002910192039B002B01D10E232E
:10A178004DE0039B019ADA63039B232200211846D2
:10A1880010F038F9029B002B2DD0029B1A79039B03
:10A1980083F82320029B1A7B039B83F82C20029BC5
:10A1A8001B68002B0CD0029B1A68039B2E33146883
:10A1B800506891681C605860996092899A8102E0A1
:10A1C8000398FFF76DFF029B9B68002B07D0029B4B
:10A1D8009A68039B24331068516803C30DE0039801
:10A1E800FFF77EFF09E00398FFF75AFF0398FFF790
:10A1F80077FF039B002283F82320039B03F140028F
:10A20800039B1A66039B1F22A3F8642000231846A9
:10A2180004B010BD00B589B00190019B002B01D19D
:10A228000E2338E002AB14220021184610F0E2F8A1
:10A23800FFF790FF0198FFF71BFF0346002B0BD099
:10A24800019BDB6B002B07D001238DF80830019BA5
:10A25800DB6B02AA10469847019B03F12E02019B73
:10A26800603319461046FFF718FD0790079B082B27
:10A2780010D0079B002B0DD0094A0A4BD31ADB08D4
:10A288001B0443F00103079A074918460EF0B8FD6E
:10A29800079B00E00023184609B05DF804FB00BFE7
:10A2A80000AC0300A8AB030090B1030000B589B06F
:10A2B8000190009103AB14220021184610F09AF87F
:10A2C80006238DF80C30009B04330493009B1B88F5
:10A2D800ADF81430019B2E330793019BDB6B002BE9
:10A2E80004D0019BDB6B03AA1046984700BF09B056
:10A2F8005DF804FB00B587B001900091009B0593C1
:10A30800019B08330493019B04330393019B1B882F
:10A318001D2B06D01D2B13DC102B0CD01B2B05D0AE
:10A328000EE004990598FFF70CFE0AE003990598DA
:10A33800FFF7E8FE05E003990598FFF7B7FF00E08F
:10A3480000BF00BF07B05DF804FB000000B585B092
:10A3580001900023039308E0094A039B52F8233035
:10A3680001989847039B01330393064B1B781A46C1
:10A37800039B9342F0DB00BF00BF05B05DF804FB10
:10A38800C4270020D027002000B583B00023002276
:10A398001049114800F02AFB0190019B052B06D1BA
:10A3A8000D4B4FF6FF721A800A4B00221A60019B70
:10A3B800002B02D0019B052B01D1012300E00023D3
:10A3C80003F00103DAB2054B1A7000BF03B05DF861
:10A3D80004FB00BFBC270020C0270020B6270020B0
:10A3E80000B58FB0019001238DF83730019B9B8811
:10A3F800184601F06FFB03461A46019B5A80019BE1
:10A408001B78093B032B00F2D58001A252F823F0F8
:10A4180029A40200B5A40200EBA4020071A5020061
:10A42800019B5B7A002B28D16C4B1B68002B10D04A
:10A43800019BDA68694B1B689A420AD1674B002274
:10A448001A60019B9A88664B1A80019B0022DA6089
:10A45800B2E0644B1B78002B00F0AE80019B9A8819
:10A468005F4B1B889A4240F0A780019B1B7A062B02
:10A4780040F0A280FFF788FF9EE0019B5B7A012BEA
:10A4880040F09A80574B1B78002B00F09580019B79
:10A498009A88534B1B889A4240F08E80019B1B7A06
:10A4A800062B40F08980FFF76FFF85E0019B5B7A00
:10A4B800002B40F08380494B1B68002B7ED0019B0A
:10A4C800DA68464B1B689A4278D1444B00221A60DE
:10A4D800454B1B68013B444A1360019B0022DA602C
:10A4E8006CE0424B1B78002B31D04FF6FF7003F025
:10A4F80085FC03461A464FF6FF739A4227D14FF65A
:10A50800FF7003F08AFC03461A464FF6FF739A421F
:10A518001DD1364B00221A7008AB142200211846B0
:10A528000FF068FF0D238DF820304FF6FF73ADF85C
:10A5380024304FF6FF73ADF8223000238DF8373002
:10A548000198FFF703FF08AB1846FFF7FFFE254BFE
:10A558001B78002B34D0019B9A88214B1B889A4288
:10A568002ED1FFF711FF2BE0204B1B78002B29D0B1
:10A578001E4B00221A7003AB1422002118460FF05C
:10A5880039FF0E238DF80C304FF6FF73ADF81030FD
:10A598004FF6FF73ADF80E30019B9B6805930023BF
:10A5A8008DF837300198FFF7D1FE03AB1846FFF757
:10A5B800CDFE07E000BF06E000BF04E000BF02E0F8
:10A5C80000BF00E000BF9DF83730002B02D0019893
:10A5D800FFF7BCFE00BF0FB05DF804FBB8270020F2
:10A5E800C0270020B6270020BC270020B72700205E
:10A5F80000B583B00190019B002B02D00198FFF7B2
:10A60800A5FE03B05DF804FB00B583B00190019886
:10A61800FFF79CFE00BF03B05DF804FB00B583B0F4
:10A6280001900198FFF792FE00BF03B05DF804FBAC
:10A6380000B583B001900198FFF788FE00BF03B012
:10A648005DF804FB00B58BB00190019B9B88ADF8C9
:10A658002630019B1B88102B29D100238DF80F3041
:10A6680004AB1422002118460FF0C4FE01238DF814
:10A6780010304FF6FF73ADF81430BDF82630ADF842
:10A688001230019B083306930DF10F03079304ABB7
:10A698001846FFF75BFE0C4B19789DF80F20BDF8A4
:10A6A80026301846FDF754FC9DF80F3008E0064B9D
:10A6B8001A78BDF8263011461846FDF719FC0346EE
:10A6C80018460BB05DF804FBFC23002000B583B0EE
:10A6D800019000910D4B1B7883F00103DBB2002B36
:10A6E80010D10198FFF7AEFF0346002B09D101985E
:10A6F80001F002F8019801F037FF019802F0C2FD5D
:10A7080000E000BF03B05DF804FB00BFB5270020E0
:10A71800044B4FF6FF721A80034B00221A6000BFE9
:10A72800704700BFC0270020B827002030B583B08D
:10A7380003F088F90190019B002B12D0504A514B2D
:10A74800D31ADB081B0443F001044F4D01980BF0AA
:10A75800B9F903462A464D4920460EF062FB032309
:10A768008BE003F0A7FE0190019B002B12D0444A16
:10A77800444BD31ADB081B0443F00104424D0198F3
:10A788000BF0A0F903462A46414920460EF049FB42
:10A79800032372E001F0B4FE0190019B002B12D05C
:10A7A800374A384BD31ADB081B0443F00104364DF3
:10A7B80001980BF087F903462A46364920460EF0E1
:10A7C80030FB032359E004F01DFD0190019B002B91
:10A7D80012D02B4A2B4BD31ADB081B0443F001047D
:10A7E800294D01980BF06EF903462A462A4920465E
:10A7F8000EF017FB032340E002F07AFC0190019B66
:10A80800002B12D01E4A1F4BD31ADB081B0443F03F
:10A8180001041D4D01980BF055F903462A461F49BE
:10A8280020460EF0FEFA032327E005F0D5F8019044
:10A83800019B002B12D0124A124BD31ADB081B04BF
:10A8480043F00104104D01980BF03CF903462A46E9
:10A85800134920460EF0E5FA03230EE0FFF758FFF0
:10A86800104B00221A70104B01221A70FDF72CFBB6
:10A8780003461A460D4B1A700023184603B030BD24
:10A8880040AC0300A8AB030000B40300C4B103004C
:10A89800F0B103001CB2030048B2030074B2030015
:10A8A800A0B20300B6270020B5270020FC23002013
:10A8B80082B001900F4B1B7883F00103DBB2002BB1
:10A8C80001D0082313E00C4B1B78022B01D9042379
:10A8D8000DE0094B1B781946084A019B42F82130C4
:10A8E800054B1B780133DAB2034B1A700023184664
:10A8F80002B07047B5270020D0270020C4270020C9
:10A9080000B585B00190094B1B7883F00103DBB2D9
:10A91800002B01D0082304E0019801F0FFFE03900A
:10A92800039B184605B05DF804FB00BFB52700205F
:10A9380000B585B003460A46ADF8063013468DF8D3
:10A9480005300E4B1B7883F00103DBB2002B01D0DE
:10A9580008230EE09DF80520BDF80630114618467C
:10A9680001F00AFF0390039B082B01D111230393E5
:10A97800039B184605B05DF804FB00BFB52700200F
:10A9880000B583B003460091ADF80630094B1B783B
:10A9980083F00103DBB2002B01D0082306E0BDF8E9
:10A9A80006300099184601F0F8FB0346184603B034
:10A9B8005DF804FBB527002000B583B00346ADF869
:10A9C8000630094B1B7883F00103DBB2002B01D062
:10A9D800082305E0BDF80630184601F0F1F80346F3
:10A9E800184603B05DF804FBB527002010B58EB0FB
:10A9F8000390029101920093554B1B7883F0010359
:10AA0800DBB2002B01D008239EE04FF6FF7003F065
:10AA1800F5F90346ADF8363000230893042307936D
:10AA280005AB00221A605A6008AB069307AB05AA6B
:10AA3800BDF83600062103F049F80C9000230B936B
:10AA48004FF0FF330A934FF6FF73ADF826304FF6F9
:10AA5800FF73ADF824300C9B072B28D1052373E036
:10AA68000C9B002B13D1089B0B9A9A4205D8089B84
:10AA78000B93BDF83630ADF82630089B0A9A9A42F7
:10AA880005D9089B0A93BDF83630ADF82430BDF8D7
:10AA98003630184603F0B2F90346ADF8363007AB46
:10AAA80005AABDF83600062103F010F80C900C9B9F
:10AAB800002BD5D00C9B052BD2D0BDF836304FF6E5
:10AAC800FF7293422BD1BDF826304FF6FF729342A6
:10AAD80005D0BDF824304FF6FF72934202D105230A
:10AAE8000C9301E000230C93039B002B03D0039BE2
:10AAF800BDF826201A80029B002B02D0029B0B9ADD
:10AB08001A60019B002B03D0019BBDF824201A80FA
:10AB1800009B002B17D0009B0A9A1A6013E00D4A7D
:10AB28000D4BD31ADB081B0443F001040C980AF000
:10AB3800C9FF03461A46BDF83630084920460EF0CC
:10AB480070F903230C930C9B18460EB010BD00BF80
:10AB5800B527002040AC0300A8AB030070B3030086
:10AB680008B5FFF711FC00BF08BD000010B58AB09A
:10AB78000346ADF806304D4B1B7883F00103DBB27A
:10AB8800002B01D008238EE0494A07AB92E8030066
:10AB980083E80300474B1B7883F00103DBB2002BEB
:10ABA80001D0FFF7DDFF434B1B7883F00103DBB2D5
:10ABB800002B03D1404B1B68002B02D011230993B3
:10ABC80070E03E4B1B88BDF806209A422DD13C4BC5
:10ABD8001B68002B29D00023099302AB1422002103
:10ABE80018460FF007FC09238DF80830BDF8063029
:10ABF800184600F06FFF0346ADF80A30BDF806307E
:10AC0800ADF80C3006238DF8103000238DF8113084
:10AC1800002305939DF818306FF300038DF8183062
:10AC280002AB1846FFF792FB3CE0254B1B68B3F1DB
:10AC3800FF3F02D11323099334E0214B1B680133F2
:10AC48001F4A136007A9BDF806301B4A184603F0CF
:10AC580005F80990099B002B24D0174B00221A6095
:10AC6800174B1B68013B164A1360099B112B19D01F
:10AC7800099B862B16D0099B072B13D0114A124B20
:10AC8800D31ADB081B0443F0010409980AF01AFFE1
:10AC980003461A46BDF806300C4920460EF0C1F8A6
:10ACA80003230993099B18460AB010BDB527002055
:10ACB800F8B30300B6270020B8270020C0270020DB
:10ACC800BC27002040AC0300A8AB0300B8B30300C6
:10ACD80076DF704700BF184610B586B003460A46AF
:10ACE800ADF8063013468DF805309DF8053083F031
:10ACF8000103DBB2002B1DD002AABDF806301146B5
:10AD08001846FFF73DFE0590059B43F20202934269
:10AD180009D0059B0493049B002B04D0444AB2211C
:10AD2800049808F095F89DF8083003F00203DBB2A8
:10AD3800002B7AD1BDF8063000211846FFF7F8FD40
:10AD48000590059B002B71D0059B112B6ED0059BA0
:10AD58000D2B29D1374A384BD31ADB081B0443F093
:10AD68000203BDF80620354918460EF049F8BDF82B
:10AD7800063013211846FFF7ABFF0590059B002B03
:10AD880054D02C4A2C4BD31ADB081B0443F0020482
:10AD980005980AF097FE03461A46BDF8063028497A
:10ADA80020460EF03EF841E0059B0B2B0DD1214AC1
:10ADB800214BD31ADB081B0443F00203BDF806201D
:10ADC800204918460EF01CF830E0059B43F20202B9
:10ADD80093420DD1174A184BD31ADB081B0443F0D2
:10ADE8000203BDF80620184918460EF009F81DE0C0
:10ADF800104A114BD31ADB081B0443F001040598D1
:10AE08000AF060FE03461A46BDF806300F49204690
:10AE18000EF007F8059B0393039B002B06D0044A0A
:10AE2800E121039808F014F800E000BF06B010BD57
:10AE38007CB8030058AC0300A8AB0300BCB80300FF
:10AE480030B9030068B90300C8B9030014BA030095
:10AE580000B583B003460A46ADF8063013468DF8B0
:10AE680005309DF80520BDF8063011461846FFF755
:10AE780033FF00BF03B05DF804FB000000B585B0E8
:10AE88000190019800F008FA019B1B78002B06D16D
:10AE9800019B5B8800211846FFF7DAFF1AE0019B47
:10AEA8001B78082B16D10D4A0D4BD31ADB081B044F
:10AEB80043F001030B4918460DF094FF019B9B6872
:10AEC8000393039B002B05D0074A40F227110398F0
:10AED80007F0BEFF00BF05B05DF804FB58AC0300E7
:10AEE800A8AB030050BA03007CB8030000B587B0D4
:10AEF80001AB00221A605A609A60DA601A6107236F
:10AF08008DF8043001AB184600F01CF800BF07B0FC
:10AF18005DF804FB00B589B00346ADF8063003AB15
:10AF280000221A605A609A60DA601A61BDF8063029
:10AF3800ADF8103003AB184600F004F800BF09B0B4
:10AF48005DF804FB00B593B00190019B1B78152BAD
:10AF580000F27E8101A252F823F000BFBDAF0200CB
:10AF680059B2020059B2020033B0020059B20200CD
:10AF780059B2020059B2020051B0020059B202009F
:10AF8800AFB1020059B20200B7B1020059B20200D3
:10AF980059B2020059B2020059B2020059B2020075
:10AFA80059B2020059B2020059B20200BFB1020000
:10AFB80037B20200019B9B881846FFF7D7FD119016
:10AFC800119B862B02D0119B112B15D1A74B1B6807
:10AFD800019A9188A64A22F81310A44B1B680133E2
:10AFE8005A4203F0070302F0070258BF53429F4A30
:10AFF8001360FFF77BFF17E0119B062B00F02A81F7
:10B00800119B072B00F02681119B132B00F0228146
:10B01800119B0993099B002B05D0964A4FF4AE71FA
:10B02800099807F015FF00BF14E1019B1B7A012B5B
:10B0380004D0019B1B7A002B40F00E81019B9B885A
:10B048001846FFF767FF07E18B4B1B7883F0010376
:10B05800DBB2002B00F0028100231193874A884B52
:10B06800D31ADB081B0443F00303864918460DF086
:10B07800B9FE854B1B7883F00103DBB2002B18D097
:10B0880004AB18460CF038FC1190119B0D930D9BE6
:10B09800002B05D0774A40F281110D9807F0D8FEB1
:10B0A800BDF81630002B14BF01230023DAB2764B0B
:10B0B8001A70754B1B7883F00103DBB2002B54D058
:10B0C8000DF10E02002300210020FFF78FFC1190E4
:10B0D800119B002B20D1694A694BD31ADB081B044A
:10B0E80043F00303BDF80E20684918460DF088FEAA
:10B0F800BDF80E301846FFF75FFC1190119B0C93BA
:10B108000C9B002B05D05B4A4FF4C6710C9807F0D6
:10B118009FFE5D4B01221A70119B052B0BD1574ADC
:10B12800574BD31ADB081B0443F001035849184650
:10B138000DF058FE19E0119B062B0BD14F4A504BCE
:10B14800D31ADB081B0443F00203524918460DF0DA
:10B1580049FE0AE0119B0B930B9B002B05D0454A37
:10B1680040F299110B9807F073FE119B002B75D1D3
:10B178000CF040FB1190119B002B03D13E4B012298
:10B188001A706BE0119B48F20762934266D0119BDC
:10B198000A930A9B002B61D0364A4FF4D3710A9860
:10B1A80007F056FE5AE0384B01221A7059E0364B28
:10B1B80001221A7055E0304B00221A70324B0022DF
:10B1C8001A702A4B1B680F93002310932BE0109AD8
:10B1D8000F9B13445A4203F0070302F0070258BFBB
:10B1E8005342234A32F81330ADF83A30BDF83A30BA
:10B1F8004FF6FF72934213D0109A0F9B13445A4292
:10B2080003F0070302F0070258BF5342184A4FF6EB
:10B21800FF7122F81310BDF83A301846FFF77AFE8E
:10B22800109B01331093109B072BD0DD19E0124BB4
:10B2380000221A70019B9B6848F20D62934204D069
:10B24800019B9B68B3F5064F0AD1FFF74FFE07E055
:10B2580000BF06E000BF04E000BF02E000BF00E05E
:10B2680000BF00BF13B05DF804FB00BFD427002067
:10B27800482400207CB80300D827002058AC0300DD
:10B28800A8AB03005CBA03005824002078BA030076
:10B29800A4BA0300C4BA0300F0B585B00390039BB9
:10B2A8001B78152B00F2508101A252F823F000BF41
:10B2B8006DB502006DB502006DB5020011B3020054
:10B2C80057B302006DB502006DB50200A5B30200C8
:10B2D800BDB30200E3B3020037B4020085B4020034
:10B2E800A1B40200CDB40200E5B402006DB50200BD
:10B2F8000BB502006DB502006DB502006DB5020018
:10B308006DB502002BB50200984A994BD31ADB0899
:10B318001B0443F00304039B5B881846FCF72CFDD1
:10B3280003461A46934B53F822301946039B5B8811
:10B338001846039B1B7A1A468F4B53F8223000930A
:10B3480003460A468D4920460DF07FFD0BE1874AEA
:10B35800874BD31ADB081B0443F00304039B5B8869
:10B368001846FCF709FD03461A46824B53F822306B
:10B378001946039B5B881846039B1B7A1A467E4B2B
:10B3880053F822301A46039B5B89019300920346C7
:10B398000A467B4920460DF06EFDE4E0734A744B83
:10B3A800D31ADB081B0443F00203764918460DF054
:10B3B80019FDD8E06D4A6E4BD31ADB081B0443F025
:10B3C8000104039B9B6818460AF07CFB03461A4657
:10B3D8006D4920460DF014FDC5E0644A644BD31A4C
:10B3E800DB081B0443F00300039B9B881946039B5F
:10B3F8001B7A1A46654B53F822301C46039B5B7A2E
:10B408001A46634B53F822301A46039B1B7C03F001
:10B418000103DBB2002B01D05E4B00E05E4B0193D1
:10B42800009223460A465D490DF025FD9BE04F4AF0
:10B438004F4BD31ADB081B0443F00204039B9B8881
:10B448001E46039B1B7A1A46504B53F822301F4660
:10B45800039B5B7A1A464E4B53F822301D46039BDA
:10B468001B6918460AF02EFB0346019300953B46DC
:10B4780032464B4920460DF0FEFC74E03B4A3C4BFB
:10B48800D31ADB081B0443F00100039B9B881A4670
:10B4980044490DF0B5FC66E0344A354BD31ADB0855
:10B4A8001B0443F00104039B9B881D46039B9B6878
:10B4B80018460AF007FB03462A463B4920460DF08A
:10B4C800B0FC50E0294A2A4BD31ADB081B0443F08E
:10B4D8000303364918460DF085FC44E0234A244B03
:10B4E800D31ADB081B0443F00104039B9B6818462E
:10B4F8000AF0E8FA03461A462D4920460DF080FC6A
:10B5080031E01A4A1A4BD31ADB081B0443F0020035
:10B51800039B5B881A46039B9B8826490DF081FC98
:10B5280021E0124A124BD31ADB081B0443F0020431
:10B53800039B9B6818460AF0C5FA03461A461E493B
:10B5480020460DF05DFC0EE0084A094BD31ADB08D3
:10B558001B0443F00200039B1B781A4617490DF0A1
:10B568004FFC00E000BF00BF05B0F0BD58AC0300C1
:10B57800A8AB0300002400200C24002004BB030017
:10B5880044BB030098BB0300B0BB03001824002091
:10B5980040240020DCBB0300E0BB0300ECBB03003D
:10B5A80030BC03007CBC0300A4BC0300D4BC030073
:10B5B800E8BC03000CBD030048BD030078BD0300D0
:10B5C80000B585B00190019B1B78042B26D1154A44
:10B5D800154BD31ADB081B0443F00200019B5B8860
:10B5E8001A4612490DF00CFC019B5B881321184682
:10B5F800FFF76EFB0390039B082B0FD0039B43F2CE
:10B60800020293420AD0039B0293029B002B05D0AF
:10B61800074A40F27921029807F01AFC00BF05B0EA
:10B628005DF804FB58AC0300A8AB030098BD030009
:10B638007CB8030046DF704700BF184600B585B0E8
:10B6480001900023039308E0084A039B52F8233033
:10B6580001989847039B01330393039B012BF3D96C
:10B6680000BF00BF05B05DF804FB00BF48BF030082
:10B6780084B00190002303930AE0019A039B1344CA
:10B688001B78002B01D0012306E0039B01330393B1
:10B69800039B0F2BF1D90023184604B0704700B55F
:10B6A80083B001900091019B002B02D0009B002BDE
:10B6B80001D100231BE0019B1B78C3F34603DAB2D8
:10B6C800009B1B78C3F34603DBB29A4201D00023E8
:10B6D8000DE0019B581C009B0133062219460EF011
:10B6E800B9FE0346002B0CBF01230023DBB218462A
:10B6F80003B05DF804FB000030B597B00190019BE2
:10B708001B88102B40F09180019B0AAC1D1D0FCDAA
:10B718000FC40FCD0FC495E8070084E807004FF663
:10B72800FF73ADF856309DF82C3023F00103DBB2DF
:10B73800062B47D002F034FA9DF82C30C3F34603A9
:10B74800DBB2012B02DC002B15DA3BE0022B2ED0FA
:10B7580038E0089B03F111020AAB0433114618467E
:10B76800FFF79DFF0346002B05D0BDF82630ADF846
:10B77800563000BF26E007AA0DF126031946072018
:10B7880002F018FA0346002BE3D11BE0089B5A1C71
:10B798000AAB04331146184600F08FFA0346002B13
:10B7A80005D0BDF82630ADF8563000BF09E007AA2D
:10B7B8000DF126031946072002F0FCF90346002B79
:10B7C800E4D100BFBDF828301946194A0B469B0042
:10B7D8000B445B001344BDF856201A80BDF828308E
:10B7E8001946134A0B469B000B445B001344023373
:10B7F8000BAA106818609188927999809A71BDF89F
:10B8080056304FF6FF72934210D0BDF82830ADF88D
:10B818000A30BDF85630ADF80C3000238DF80830EA
:10B8280002AB1846FFF70AFF00E000BF17B030BDB3
:10B83800DC27002000B587B001900091019B1133EF
:10B848000593009B11330493019B581C009B013303
:10B85800102219460EF0FEFD0346002B11D1019B64
:10B8680001331846FFF704FF0346002B09D0009B5D
:10B8780001331846FFF7FCFE0346002B01D00123D5
:10B8880000E000238DF80F309DF80F3003F001031E
:10B898008DF80F3004990598FFF701FF03468DF8DE
:10B8A8000E30059B1B7823F00103DBB2042B16D066
:10B8B800059B1B7823F00103DBB2062B0FD0049BFA
:10B8C8001B7823F00103DBB2042B08D0049B1B7800
:10B8D80023F00103DBB2062B01D0012300E0002393
:10B8E8008DF80D309DF80D3003F001038DF80D3003
:10B8F8009DF80E30002B03D09DF80D30002B0AD197
:10B908009DF80F30002B08D09DF80D3083F001030F
:10B91800DBB2002B01D0012300E0002303F0010378
:10B92800DBB2184607B05DF804FB00B587B001909C
:10B938000B46ADF8023002F033F910E0BDF81630CE
:10B94800BDF802209A420AD0049B19460198FFF7D5
:10B9580071FF0346002B02D0BDF816300BE003AA96
:10B968000DF116031946072002F024F90346002BAF
:10B97800E4D14FF6FF73184607B05DF804FB0000EA
:10B9880000B583B00346ADF80630BDF80630132B7A
:10B998000AD8BDF806301846FCF7D6F9034683F0F6
:10B9A8000103DBB2002B02D04FF6FF7308E0BDF8AD
:10B9B8000620054913469B0013445B000B441B8873
:10B9C800184603B05DF804FBDC27002000B583B0FF
:10B9D80003460091ADF80630BDF80630132B0AD89F
:10B9E800BDF806301846FCF7AFF9034683F00103AB
:10B9F800DBB2002B02D043F2020311E0BDF80620AF
:10BA08000098094913469B0013445B000B44024607
:10BA180002331968116099889B799180937100238A
:10BA2800184603B05DF804FBDC27002000B583B09E
:10BA380001900091019800F089F8034683F0010312
:10BA4800DBB2002B01D0002315E0019B1A88009B74
:10BA58001B889A4201D000230DE0019B981C009B93
:10BA68000233082219460EF0F5FC0346002B0CBFE2
:10BA780001230023DBB2184603B05DF804FB00B5D0
:10BA880087B0019002F08CF814E0049B4633194605
:10BA98000198FFF7CBFF0346002B08D1049B2A33FC
:10BAA80019460198FFF7C2FF0346002B02D0BDF8E4
:10BAB80016300BE003AA0DF116031946072002F011
:10BAC80079F80346002BE0D14FF6FF73184607B00C
