:020000022000DC
:106000000000012019620200016202000362020026
:10601000056202000762020009620200000000003F
:106020000000000000000000000000000B62020001
:106030000D620200000000000F6202001162020007
:1060400071AB02001362020041B70200136202004A
:1060500013620200136202003DB6020013620200E6
:106060001362020013620200136202001362020054
:106070001362020013620200136202001362020044
:1060800013620200C1E902001362020013620200FF
:106090001362020013620200D918030013620200A7
:1060A0001362020013620200136202001362020014
:1060B00013620200136202000000000000000000F2
:1060C00013620200136202001362020013620200F4
:1060D000136202001362020013620200000000005B
:1060E00000000000000000000000000000000000B0
:1060F00000000000000000000000000000000000A0
:10610000000000000000000000000000000000008F
:10611000000000000000000000000000000000007F
:10612000000000000000000000000000000000006F
:10613000000000000000000000000000000000005F
:10614000000000000000000000000000000000004F
:10615000000000000000000000000000000000003F
:10616000000000000000000000000000000000002F
:10617000000000000000000000000000000000001F
:10618000000000000000000000000000000000000F
:1061900000000000000000000000000000000000FF
:1061A00000000000000000000000000000000000EF
:1061B00000000000000000000000000000000000DF
:1061C00000000000000000000000000000000000CF
:1061D00000000000000000000000000000000000BF
:1061E00000000000000000000000000000000000AF
:1061F000000000000000000000000000000000009F
:10620000FEE7FEE7FEE7FEE7FEE7FEE7FEE7FEE766
:10621000FEE7FEE700F002B8FFF7FCBF0F484FF0C3
:106220000701884385460E4880470E48016841F4BF
:1062300070010160BFF34F8FBFF36F8F00F01AB88A
:1062400009480A490A4A884207D0521A05D00378F9
:1062500001300B700131013AF9D170470000012083
:106260008176020088ED00E024290300B81D00209B
:10627000B81D0020314932480A1A02D00722914342
:106280008D46304930480A1A06D00722914381F3DF
:106290000988022282F314882C482D492D4A00F0E7
:1062A0003CF82D482D492E4A00F037F82D482E494C
:1062B0002E4A00F032F82E482E492F4A00F02DF8D1
:1062C0002E482F492F4A00F028F82F482F49304AEE
:1062D00000F023F82F483049304A00F01EF83048CB
:1062E0003049002200F024F82F483049002200F005
:1062F0001FF82F4A90471F481F49884205D002685F
:10630000043003B4904703BCF7E700208646EC4610
:1063100000200021274A9047FEE7884207D0521A02
:1063200005D0037801300B700131013AF9D1704783
:10633000884202D002700130FAE770470000012065
:1063400000E00020000001200000012004430300C1
:10635000B81D00207C240020B8630200B86302004E
:10636000D827030004430300B81D0020B81D0020F7
:1063700024290300242903002429030024290300DD
:1063800024290300242903002429030024290300CD
:1063900004430300C84903007C2400207C2400201F
:1063A0007C240020F82E0020F82E0020F82E00205B
:0863B000416202002D6B0200A6
:1063B80075DF704700BF184676DF704700BF184684
:1063C8008FDF704700BF184600B583B003460091C1
:1063D800ADF80630BDF80630009A1946034807F0B4
:1063E800B5F900BF03B05DF804FB00BFEFBEADDE3A
:1063F80000B583B00190044A8921019807F0A6F9F5
:1064080000BF03B05DF804FB4429030008B5012070
:1064180000F012FD00BF08BD00B583B00B4803F0C3
:106428008DFD0190019B0093009B002B04D0084A2E
:106438009E21009807F08AF9012000F09BFC0020BB
:1064480000F07EFC00BF03B05DF804FB7C24002054
:106458004429030000B585B001900091009B1B788A
:10646800022B24D0022B2EDC002B01D0012B2AE09A
:10647800009B5988009B0E331A46154803F0A2FF6B
:106488000390039B0293029B002B04D0114ADB214B
:10649800029807F05BF9104A104BD31ADB081B046B
:1064A80043F003030E4918460AF0C8FB0BE00A4AFA
:1064B8000A4BD31ADB081B0443F0030309491846A7
:1064C8000AF0BCFB00BF00BF05B05DF804FB00BFCD
:1064D800E42400204429030048280300202803005E
:1064E800842903009429030000B58BB00190009122
:1064F800019B04330693019B1B883B2B62DC102B0A
:10650800C0F2EA80103B2B2B00F2E68001A252F881
:1065180023F000BFD36502001B660200E16602009B
:10652800E1660200E1660200E1660200E16602003F
:10653800E1660200E1660200E1660200E16602002F
:10654800E1660200E1660200E1660200E16602001F
:1065580037660200E166020061660200E166020039
:10656800E1660200E1660200E1660200E1660200FF
:10657800E1660200E1660200E1660200E1660200EF
:10658800E1660200E1660200E1660200E1660200DF
:10659800E1660200E1660200E1660200E1660200CF
:1065A800E1660200E1660200E1660200E1660200BF
:1065B800E1660200E1660200E1660200E1660200AF
:1065C80095660200562B74D086E04A4A4A4BD31A85
:1065D800DB081B0443F00303484918460AF02EFB66
:1065E800069B1B881946464802F048FA0990099B01
:1065F8000393039B002B05D0424A4FF48171039803
:1066080007F0A4F8012000F09BFB002000F0B2FB8B
:106618006BE0384A384BD31ADB081B0443F00303FA
:10662800394918460AF00AFBFFF7F6FE5DE0069BBB
:106638001A88069B043319461046FFF7B9FE0990DD
:10664800099B0493049B002B48D02E4A4FF4907169
:10665800049807F07BF841E000238DF80830002308
:106668008DF80930019B9B8802AA11461846FFF74E
:10667800A7FE0990099B0893089B002B30D0214A5C
:106688004FF49671089807F061F829E0019B9B8800
:1066980013211846FFF790FE0990099B0793079B63
:1066A800002B1FD0174A40F23511079807F04EF813
:1066B80018E0019B9B8813211846FFF77DFE09907F
:1066C800099B0593059B002B0ED00E4A4FF49F7132
:1066D800059807F03BF807E000BF06E000BF04E0BC
:1066E80000BF02E000BF00E000BF00BF0BB05DF8D4
:1066F80004FB00BF4828030020280300A829030042
:10670800B81D002044290300B429030000B587B050
:1067180001AB0C22002118460BF0B0FC0D4B019385
:106728000D4B02930D4B039301AB19460C4803F034
:106738004DFD0590059B0493049B002B05D0094A49
:106748004FF4B271049807F001F800BF07B05DF884
:1067580004FB00BF5D640200F96302008C23002083
:10676800E42400204429030000B587B00BF02EF87C
:106778000590059B0493049B002B05D0164A40F214
:106788007111049806F0E2FF0023019301AB19464A
:1067980001200BF0D3F80590059B0393039B002B76
:1067A80005D00D4A40F27711039806F0CFFF01ABF0
:1067B80018460BF0B5F90590059B0293029B002B38
:1067C80005D0054A40F27B11029806F0BFFF00BFD2
:1067D80007B05DF804FB00BF4429030000B583B08F
:1067E80003460A468DF8073013468DF806309DF8A3
:1067F80007300D2B08D09DF80730064A4FF4CE71AC
:10680800184606F0A3FF00E000BF00BF03B05DF824
:1068180004FB00BF4429030000B585B00190019B2B
:106828001B78052B0ED1019B5B680393039B029396
:10683800029B002B08D0074A4FF4D771029806F044
:1068480085FF01E000BF00E000BF00BF05B05DF8B4
:1068580004FB00BF4429030000B583B040F2333283
:106868000121094806F09EFE0190019B0093009BC0
:10687800002B05D0054A40F2C511009806F066FFC6
:1068880000BF03B05DF804FBD823002044290300AF
:1068980000B583B001900199034803F003FC00BFE1
:1068A80003B05DF804FB00BFE424002000B583B00A
:1068B80001900E4B1B781A460D490E480BF0CBFC85
:1068C80014220C490C4803F015FD084B1B780133C2
:1068D800DAB2064B1A70054B1B78FF2B02D1034B1B
:1068E80001221A7000BF03B05DF804FBD423002016
:1068F800C4290300C0230020E424002000B585B08B
:106908006B460822002118460BF0B8FB0B4B00938E
:106918000B4B01936B46184601F0ECFF0390039B69
:106928000293029B002B05D0064A4FF4FA71029895
:1069380006F00CFF00BF05B05DF804FB9968020083
:106948008C2300204429030000B583B04FF4804114
:10695800002009F09DFE0190019B0093009B002BF5
:1069680005D0064A40F2FD11009806F0EFFE09F046
:1069780025FE00BF03B05DF804FB00BF44290300F7
:1069880000B585B007F092FA0390039B0293029B2F
:10699800002B05D00D4A4FF40271029806F0D6FE7E
:1069A8000B4A01210B4807F0BFFA0390039B0193A0
:1069B800019B002B05D0054A40F20E21019806F0F4
:1069C800C5FE00BF05B05DF804FB00BF4429030005
:1069D800B56802003829030000B583B00B4B0022CC
:1069E8004FF44041184607F0D9FA0190019B0093F3
:1069F800009B002B05D0064A40F21A21009806F0A9
:106A0800A5FE00BF03B05DF804FB00BFA023002073
:106A18004429030000B583B009F0A6F80190019B52
:106A28000093009B002B05D0044A40F223210098D4
:106A380006F08CFE00BF03B05DF804FB4429030098
:106A480000B589B06B461022002118460BF016FBE2
:106A580001238DF8043001238DF80C306B461B4A56
:106A680019461B4803F00FFA0790079B0693069BED
:106A7800002B05D0174A40F23221069806F066FE30
:106A880000220121124803F08DF80790079B059317
:106A9800059B002B05D00F4A40F23621059806F0D9
:106AA80055FE0D4A00210A4803F059F80790079B44
:106AB8000493049B002B05D0064A40F23921049820
:106AC80006F044FE00BF09B05DF804FB216802002F
:106AD8007C240020442903003C29030000B583B02E
:106AE8000021094802F078FA0190019B0093009B6D
:106AF800002B05D0054A40F24221009806F026FEF8
:106B080000BF03B05DF804FBFC2400204429030007
:106B180008B50AF005F90346002BFAD109F03AF84E
:106B280000BF08BD08B5FFF70FFFFFF729FFFFF704
:106B38006DFCFFF791FEFFF76DFFFFF715FEFFF7FE
:106B48007FFFFFF7CBFFFFF7D9FEFFF7DFFD0A4A0C
:106B58000A4BD31ADB081B0443F003030849184601
:106B68000AF06CF8FFF758FC002000F0E9F8FFF78E
:106B780033FFFFF7CDFFFCE7482803002028030078
:106B8800CC29030000B583B00190019B1B6818460F
:106B980000F0B5F80346002B04D105494FF4F67010
:106BA800FFF712FC4FF0A043184603B05DF804FB52
:106BB800EC29030000B585B00190084611461A4635
:106BC80003468DF803300B468DF8023013468DF8D6
:106BD800013001AB1846FFF7D5FF03909DF803205D
:106BE8009DF802305B001A439DF801309B001A4360
:106BF8009DF818301B0242EA03019DF81C301B0463
:106C0800019A1943039B02F5E07243F8221000BF72
:106C180005B05DF804FB00B585B00390002301932F
:106C2800002300930023012201210398FFF7C2FFEC
:106C380000BF05B05DF804FB00B585B003900B46B6
:106C48008DF80B309DF80B30002201920022009243
:106C5800002200210398FFF7ADFF00BF05B05DF8E3
:106C680004FB00B585B0019001AB1846FFF78AFF19
:106C78000390019B012202FA03F31946039800F0DE
:106C88002AF800BF05B05DF804FB00B585B0019097
:106C980001AB1846FFF776FF0390019B012202FA29
:106CA80003F31946039800F020F800BF05B05DF81B
:106CB80004FB00B583B001900091009B002B03D129
:106CC8000198FFF7E2FF02E00198FFF7CAFF00BF53
:106CD80003B05DF804FB82B001900091019B009A1B
:106CE800C3F8082500BF02B0704782B00190009138
:106CF800019B009AC3F80C2500BF02B0704784B00E
:106D08000190019B5B09029300230393029B002BD4
:106D180003D14FF0FF33039300BF019B03F01F0320
:106D28000193039A019B22FA03F303F00103002B5A
:106D380014BF01230023DBB2184604B070470000DB
:106D480000B583B00190019B032B03D9074941206B
:106D5800FFF73AFB064A019B13441B7800211846AB
:106D6800FFF7A7FF00BF03B05DF804FB142A030078
:106D78003C2A030000B583B00190019B032B03D983
:106D880007494720FFF720FB064A019B13441B785D
:106D980001211846FFF78DFF00BF03B05DF804FB23
:106DA800142A03003C2A030000B583B00023019392
:106DB80005E00198FFF7DEFF019B01330193019B7A
:106DC800032BF6D900BF00BF03B05DF804FB000039
:106DD80000B583B00023019309E0094A019B1344DD
:106DE8001B781846FFF717FF019B01330193019B9E
:106DF800032BF2D9FFF7D8FF00BF03B05DF804FBFF
:106E08003C2A030000B583B0002301930AE0094A35
:106E1800019B13441B7803211846FFF70DFF019BC4
:106E280001330193019B032BF1D900BF00BF03B0CD
:106E38005DF804FB402A030000B583B00190019B74
:106E480003F00103002B01D0FFF7C2FF019B03F001
:106E58000203002B01D0FFF7D5FF00BF03B05DF898
:106E680004FB000084B001900B468DF803301346F4
:106E78008DF8023000230393019B032B3CD89DF827
:106E88000230012B0BD19DF80330012B04D1019B5B
:106E9800DBB20E33DBB200E000238DF802309DF840
:106EA8000330022B0FD0022B23DC002B16D0012B32
:106EB8001FD11449019A13465B0013440B449DF8F3
:106EC80002201A701AE00F49019A13465B00134416
:106ED8000B4401339DF802201A700FE00949019A0A
:106EE80013465B0013440B4402339DF802201A70CA
:106EF80004E00723039301E007230393039B184649
:106F080004B070479C26002000B583B00122002100
:106F18000020FFF7A7FF0190019B002B04D0019BE5
:106F2800072B01D0019B1CE0072202210120FFF75B
:106F380099FF0190019B002B04D0019B072B01D0E6
:106F4800019B0EE0042202210020FFF78BFF019035
:106F5800019B002B04D0019B072B01D0019B00E073
:106F68000023184603B05DF804FB00B583B0012286
:106F780002210020FFF776FF0190019B002B04D02F
:106F8800019B072B01D0019B1CE007220221012055
:106F9800FFF768FF0190019B002B04D0019B072B92
:106FA80001D0019B0EE00A2200210020FFF75AFFC2
:106FB8000190019B002B04D0019B072B01D0019B62
:106FC80000E00023184603B05DF804FB00B585B067
:106FD80001900091019B1B88102B02D0112B18D017
:106FE8002FE01A4B1B68002B0DD1FFF78DFF039084
:106FF800039B002B07D0164B1B68002B03D0144BA8
:107008001B6803989847114B1B6801330F4A13609C
:1070180017E00E4B1B68013B0C4A13600B4B1B68B7
:10702800002B0DD1FFF7A1FF0390039B002B07D086
:10703800074B1B68002B03D0054B1B680398984728
:1070480000BF00BF05B05DF804FB00BFAC26002000
:10705800A8260020BFF34F8F00BF064BDB6803F460
:10706800E0620449044B1343CB60BFF34F8F00BF6A
:1070780000BFFDE700ED00E00400FA0582B01D4BFB
:107088001B68B3F1FF3F0AD11B4B1B68DBB20193AE
:107098001A4B1B681B0903F00F03009305E0154BFF
:1070A8001B680193164B1B680093019B062B1DD18F
:1070B800009B033B042B17D801A252F823F000BF12
:1070C800DD700200E1700200E5700200E970020064
:1070D800ED70020001230AE0012308E0012306E025
:1070E800012304E0012302E0012300E00023184605
:1070F80002B0704730010010E00F00F0E80F00F018
:107108003401001082B0174B1B68DBB20193164B99
:107118001B681B0903F00F030093019B062B1DD16D
:10712800009B033B042B17D801A252F823F000BFA1
:107138004D7102005171020055710200597102002F
:107148005D71020001230AE0002308E0002306E045
:10715800002304E0002302E0002300E00023184697
:1071680002B07047E00F00F0E80F00F082B01D4B4E
:107178001B68B3F1FF3F0AD11B4B1B68DBB20193BD
:107188001A4B1B681B0903F00F03009305E0154B0E
:107198001B680193164B1B680093019B062B1DD19E
:1071A800009B033B042B17D801A252F823F000BF21
:1071B800CD710200D1710200D5710200D9710200AF
:1071C800DD71020001230AE0012308E0012306E043
:1071D800012304E0012302E0012300E00023184614
:1071E80002B0704730010010E00F00F0E80F00F027
:1071F8003401001082B0174B1B68DBB20193164BA9
:107208001B681B0903F00F030093019B062B1DD17C
:10721800009B033B042B17D801A252F823F000BFB0
:107228003D7202004172020045720200497202007A
:107238004D72020001230AE0002308E0002306E063
:10724800002304E0002302E0002300E000231846A6
:1072580002B07047E00F00F0E80F00F082B01D4B5D
:107268001B68B3F1FF3F0AD11B4B1B68DBB20193CC
:107278001A4B1B681B0903F00F03009305E0154B1D
:107288001B680193164B1B680093019B062B1DD1AD
:10729800009B033B042B17D801A252F823F000BF30
:1072A800BD720200C1720200C5720200C9720200FA
:1072B800CD72020001230AE0012308E0012306E061
:1072C800012304E0012302E0012300E00023184623
:1072D80002B0704730010010E00F00F0E80F00F036
:1072E8003401001082B0174B1B68DBB20193164BB8
:1072F8001B681B0903F00F030093019B062B1DD18C
:10730800009B033B042B17D801A252F823F000BFBF
:107318002D730200317302003573020039730200C5
:107328003D73020001230AE0002308E0002306E081
:10733800002304E0002302E0002300E000231846B5
:1073480002B07047E00F00F0E80F00F082B0174B72
:107358001B68DBB20193164B1B681B0903F00F0374
:107368000093019B062B1DD1009B033B042B17D8D0
:1073780001A252F823F000BF95730200997302002E
:107388009D730200A1730200A573020001230AE0A5
:10739800002308E0002306E0002304E0002302E0C5
:1073A800002300E00023184602B07047E00F00F009
:1073B800E80F00F082B01D4B1B68B3F1FF3F0AD104
:1073C8001B4B1B68DBB201931A4B1B681B0903F0AC
:1073D8000F03009305E0154B1B680193164B1B68C0
:1073E8000093019B062B1DD1009B033B042B17D850
:1073F80001A252F823F000BF1574020019740200AC
:107408001D740200217402002574020000230AE0A2
:10741800002308E0012306E0012304E0012302E041
:10742800012300E00023184602B070473001001025
:10743800E00F00F0E80F00F03401001082B01D4B9F
:107448001B68B3F1FF3F0AD11B4B1B68DBB20193EA
:107458001A4B1B681B0903F00F03009305E0154B3B
:107468001B680193164B1B680093019B062B1DD1CB
:10747800009B033B042B17D801A252F823F000BF4E
:107488009D740200A1740200A5740200A974020090
:10749800AD74020001230AE0012308E0012306E09D
:1074A800012304E0012302E0012300E00023184641
:1074B80002B0704730010010E00F00F0E80F00F054
:1074C8003401001082B01D4B1B68B3F1FF3F0AD195
:1074D8001B4B1B68DBB201931A4B1B681B0903F09B
:1074E8000F03009305E0154B1B680193164B1B68AF
:1074F8000093019B062B1DD1009B033B042B17D83F
:1075080001A252F823F000BF257502002975020078
:107518002D750200317502003575020001230AE05D
:10752800012308E0012306E0012304E0012302E02F
:10753800012300E00023184602B070473001001014
:10754800E00F00F0E80F00F03401001082B0154B96
:107558001B680193144B1B680093019B062B1DD1DC
:10756800009B033B042B17D801A252F823F000BF5D
:107578008D750200917502009575020099750200DB
:107588009D75020000230AE0002308E0002306E0BE
:10759800012304E0012302E0012300E00023184650
:1075A80002B07047300100103401001082B0154B52
:1075B8001B680193144B1B680093019B062B1DD17C
:1075C800009B033B042B17D801A252F823F000BFFD
:1075D800ED750200F1750200F5750200F9750200FB
:1075E800FD75020000230AE0002308E0002306E0FE
:1075F800002304E0012302E0012300E000231846F1
:1076080002B07047300100103401001008B5FFF7D0
:10761800CDFF0346002B07D04FF010234FF08042D8
:10762800D3F80832C2F8583500BF08BD00BF044B74
:10763800D3F80034002BFAD000BF00BF704700BF5A
:1076480000E0014000B583B00190054A019BC2F8F3
:107658000435FFF7EBFF00BF03B05DF804FB00BF84
:1076680000E00140024B034A1A6000BF704700BFA8
:10767800E02300200090D00308B5FFF7FFFC034685
:10768800002B06D0964B1B681B0A964A03F01F0373
:107698001360FFF737FD0346002B02D0924B934A45
:1076A8001A60FFF763FD0346002B06D0904B1B685A
:1076B8005B0B904A03F007031360FFF79BFD03463B
:1076C800002B05D08C4BDB688B4A23F08073D3608A
:1076D800FFF7C4FD0346002B0ED04FF08043002275
:1076E800C3F80C214FF080430022C3F810214FF05B
:1076F80080430022C3F83825FFF7F4FD0346002B2A
:1077080002D07E4B03221A60FFF720FE0346002BAF
:107718000BD07B4B05221A607A4B01221A607A4BF8
:1077280000221A60794B3F221A60FFF743FE034696
:10773800002B76D04FF08053754AD3F80434C2F842
:1077480020354FF08053724AD3F80834C2F82435F4
:107758004FF080536E4AD3F80C34C2F828354FF0F6
:1077680080536B4AD3F81034C2F82C354FF080534D
:10777800674AD3F81434C2F830354FF08053644A5E
:10778800D3F81834C2F834354FF08053604AD3F830
:107798001C34C2F840354FF080535D4AD3F820348A
:1077A800C2F844354FF08053594AD3F82434C2F80C
:1077B80048354FF08053564AD3F82834C2F84C3530
:1077C8004FF08053524AD3F82C34C2F850354FF05A
:1077D80080534F4AD3F83034C2F854354FF08053B1
:1077E8004B4AD3F83434C2F860354FF08053484AD6
:1077F800D3F83834C2F864354FF08053444AD3F88C
:107808003C34C2F868354FF08053414AD3F84034CD
:10781800C2F86C354FF080533D4AD3F84434C2F86F
:107828007035FFF70BFE0346002B05D0394B1B685C
:10783800394A03F04F031360FFF744FE0346002B59
:107848000DD04FF08043D3F8003403F00103002B30
:1078580005D04FF080436FF00102C3F80024FFF712
:1078680075FE0346002B05D02C4B1B682B4A43F4AE
:10787800806313602A4BD3F88830294A43F4700395
:10788800C2F88830BFF34F8F00BFBFF36F8F00BFC0
:10789800FFF7BCFE4FF01023D3F80032002B05DBB6
:1078A8004FF01023D3F80432002B15DA0120FFF72C
:1078B800C9FE4FF010231522C3F80022FFF7B6FEC9
:1078C8004FF010231522C3F80422FFF7AFFE002063
:1078D800FFF7B8FEFFF7BEFBFFF7C4FE00BF08BD09
:1078E800240300104035014074C007400DF0ADBAC4
:1078F800440200103C050040F0ED00E0A005004007
:107908001056004088560040185600401456004053
:1079180000C0004058020010E40E00403C17004030
:1079280000ED00E086B0039001921A460B46ADF8D0
:107938000A3013468DF80930039B002B02D0019BB7
:10794800002B01D100235CE00023ADF816300CE0D9
:10795800BDF81630039A13441B789AB2BDF8163056
:1079680013449BB20133ADF81630BDF816305A1CDB
:10797800BDF80A309A420FDA019B1B88BDF8162021
:107988009A42E5D3BDF816300133039A13441B78A5
:107998009DF809209A42DBD1BDF81620BDF80A30BF
:1079A8009A4201D300232CE0BDF816300233ADF81B
:1079B8001430BDF81630039A13441B78002B08D0F6
:1079C800BDF81630039A13441B789BB2013B9BB257
:1079D80000E00023ADF81230BDF81230002B08D0BB
:1079E800BDF81420BDF812301A44BDF80A309A4286
:1079F80001DD002305E0019BBDF814201A80BDF8C5
:107A08001230184606B0704700B589B003900B468F
:107A18000192ADF80A300023ADF81630019B002B17
:107A280001D100232DE00DF11602BDF80A1009233B
:107A38000398FFF777FF0346ADF81E30BDF8163000
:107A48001A46039B13440693BDF81630002B17D033
:107A5800BDF81E30002B13D001980AF0A9FA02468F
:107A6800BDF81E309A420BD1BDF81E301A46069951
:107A780001980AF033FB0346002B01D1012300E0F3
:107A88000023184609B05DF804FB30B58FB00190AB
:107A9800009100230293009B002B1AD000230D9322
:107AA80014E06B460D99184607F0C7F80346002BFB
:107AB80009D0029B5A1C02920D9A92B25B0038338D
:107AC8006B4423F82C2C0D9B01330D930D9B132B2A
:107AD800E7D9019B1D4602AC0FCC0FC50FCC0FC5D3
:107AE80094E8070085E8070001980FB030BD000052
:107AF80000B583B00346ADF80630BDF80630132B49
:107B080001D900230CE0BDF806301946064807F0F5
:107B180063F8BDF806301946044807F05DF80123FC
:107B2800184603B05DF804FBB8260020B4260020F0
:107B380000B585B00346ADF80630002303930DE089
:107B4800039B9B00094A13440433BDF806201146E1
:107B5800184607F059F8039B01330393039B1D2B29
:107B6800EED900BF00BF05B05DF804FBB0260020C9
:107B780000B583B00346ADF80630BDF806301946A7
:107B8800034807F041F800BF03B05DF804FB00BFED
:107B9800B826002030B59BB0184B9B68DB43189380
:107BA800164B5A6818AB1146184607F0A5F8189AEC
:107BB8006B4611461846FFF768FF0DAC6D460FCDB2
:107BC8000FC40FCD0FC495E8070084E80700002311
:107BD80019930BE0199B5B0068336B4433F8303C16
:107BE8001846FFF7A5FF199B013319930D9B199AA6
:107BF8009A42EFD300BF00BF1BB030BDB0260020B3
:107C080000B583B001900B46ADF8023013468DF8ED
:107C180001309DF80130002B06D0BDF8023019461E
:107C2800019806F0D9FF05E0BDF802301946019821
:107C380006F0EAFF00BF03B05DF804FB00B585B0AD
:107C480001900091019B9B88ADF80E30019B1B8829
:107C5800103B0A2B00F2888001A252F823F000BFE3
:107C6800957C0200D17C0200717D0200717D0200CA
:107C7800717D0200717D0200717D0200717D02003C
:107C8800717D02003B7D0200DD7C0200FFF782FF70
:107C9800BDF80E301846FFF72BFF034683F00103AB
:107CA800DBB2002B05D0324AF021042005F04EFD4E
:107CB80057E0019BDB7B022B53D1BDF80E301946F0
:107CC8002C4806F089FF4CE0BDF80E301846FFF747
:107CD8004FFF49E0019B1B7AC3F30313DBB28DF816
:107CE8000D309DF80D30032B8CBF01230023DAB231
:107CF800BDF80E3019462048FFF782FF9DF80D3079
:107D0800022B8CBF01230023DAB2BDF80E301946CE
:107D18001A48FFF775FF9DF80D30012B8CBF012322
:107D28000023DAB2BDF80E3019461548FFF768FF90
:107D38001AE0019B1B7A002B15D1019B5B7AC3F3D8
:107D4800C003DBB2002B14BF012300238DF80C30D5
:107D58009DF80C20BDF80E3019460748FFF750FF74
:107D680001E000BF00E000BF00BF05B05DF804FB04
:107D7800442A0300BC260020C8260020C426002070
:107D8800C026002084B001900023039316E0104A17
:107D9800039B9B0013449A78019B9B789A420AD1D3
:107DA8000B4A039B32F82320019B1B889A4202D17D
:107DB800084B1B6808E0039B01330393064B1B68C1
:107DC800039A9A42E3D30023184604B0704700BFD1
:107DD8002C270020442700204C27002000B583B022
:107DE800019000910198FFF7CDFF0346002B01D0C9
:107DF800002314E00C4B1B68052B0FD80A4B1B689B
:107E08000A4A01999B0013440A4610681860064BF9
:107E18001B680133044A1360002300E0042318465A
:107E280003B05DF804FB00BF4C2700202C2700207E
:107E380000B585B001900023039311E0019A039BDC
:107E4800DB01134403F553731B68039AD20102F54F
:107E5800347201990A4410469847039B01330393EF
:107E6800064B1B68039A9A42E8D3019B0022C3F889
:107E7800CC2200BF05B05DF804FB00BF4C270020F2
:107E880000B5A3B001900B46ADF8023003AB7C22DD
:107E9800002118460AF0F2F8BDF80230ADF80E30AD
:107EA80003238DF80C30019B0493064B1B68002BB1
:107EB80004D0044B1B6803AA1046984700BF23B0A0
:107EC8005DF804FB4427002000B5A7B00390029199
:107ED8001346ADF80630039B93F8C6321A4676234C
:107EE80002FB03F3039A13442593259B1846FFF7D7
:107EF80049FF2490249B002B12D005AB7C22002143
:107F080018460AF0BBF801238DF81430BDF8063086
:107F1800ADF81630029B069305AA249B1046984795
:107F280000BF27B05DF804FB00B587B0039002914D
:107F38001346ADF80630029B0593059B002283F893
:107F4800C822BDF806301A4603990598FFF7BCFF0A
:107F5800BDF8063019460598FFF792FF00BF07B035
:107F68005DF804FB00B585B001900B468DF8033031
:107F78001346ADF80030019B93F8C6321A467623B3
:107F880002FB03F3019A13440393039B1846FFF77C
:107F9800F9FE0290029B002B52D0019BD3F8CC3201
:107FA800052B4DD8019BD3F8CC32019ADB01134441
:107FB80003F2D223BDF800201A80019BD3F8CC32FB
:107FC800019ADB01134403F53473039A0433114611
:107FD800762218460AF01CF89DF80330002B0AD0C8
:107FE800019BD3F8CC32019ADB01134403F53473B7
:107FF80000221A7009E0019BD3F8CC32019ADB0108
:10800800134403F5347302221A70019BD3F8CC325F
:10801800019ADB01134403F55373029A1A60019B1A
:10802800D3F8CC325A1C019BC3F8CC22019BD3F85D
:10803800CC22054B1B689A4202D10198FFF7F8FE43
:1080480000BF05B05DF804FB4C27002000B58DB0DB
:1080580001900B46ADF8023002AB202200211846F1
:108068000AF00CF8019B93F8C7320133DAB2019B8E
:1080780083F8C722019B93F8C7321A462A4B1B681C
:108088009A4244D2019B002283F8C522019B93F8AF
:10809800C6320133DAB2019B83F8C622019B93F8FA
:1080A800C6321A46762302FB03F3019A13440B9354
:1080B800019B93F8C6320B991C4A9B00134418681D
:1080C80008600B9B00221A7102238DF808300123E7
:1080D800ADF818300B9A0DF11A0312681A60019B5B
:1080E8000593134B0493134B1B68BDF8022002A998
:1080F800184601F01BFB0A900A9B002B11D0BDF813
:1081080002301A4601990A98FFF70EFF09E0019B11
:10811800002283F8C822BDF8023019460198FFF7FB
:10812800AFFE0DB05DF804FB4C2700202C27002083
:10813800317F02004827002082B001900091009B07
:108148001A89019B93F8C63218460199762300FBD9
:1081580003F30B4408331B889A4201D2012300E041
:108168000023184602B0704784B003900291019230
:108178000093019B002B25D1029B1A89039B93F83E
:10818800C63218460399762300FB03F30B440833E1
:108198001B889A4201D100232AE0029B1B890133E4
:1081A8009AB2009B1A80039B93F8C6321946039A29
:1081B800762301FB03F3134408331A88009B5A8083
:1081C800012315E0029B1B890133019AD28893424F
:1081D80001D100230CE0029B1B8901339AB2009B5A
:1081E8001A80019BDB88013B9AB2009B5A800123CD
:1081F800184604B07047000000B58FB001900B46D8
:10820800ADF8023002AB20220021184609F036FFF3
:108218000AAB04220021184609F030FF019B93F8AD
:10822800C6321A46762302FB03F3019A13440D93D0
:10823800019B93F8C532002B21D0019B93F8C532DE
:10824800013B8DF83330019B93F8C6321A467623EA
:1082580002FB03F3019A13440D939DF83320134650
:10826800DB0013445B0008330D9A134402330B936D
:108278000B9B1B8901339BB2ADF8283003E00D9BA3
:10828800DB88ADF828300D9B1B89ADF82A30032315
:108298008DF808300A9B0693019B0593074B0493BE
:1082A800074B1B68BDF8022002A9184601F03EFAE8
:1082B800034618460FB05DF804FB00BF317F02008B
:1082C8004827002000B593B0039002911346ADF8FB
:1082D800063000238DF8433005AB202200211846D4
:1082E80009F0CCFE039B93F8C6321A46762302FBAC
:1082F80003F3039A13440E93039B93F8C5321A466B
:108308001346DB0013445B0008330E9A1344023310
:108318001193039B93F8C53201330E9A1279934255
:1083280009D10DAB002211990398FFF71DFF0346F1
:108338008DF843303DE0039B93F8C5328DF8423009
:1083480031E09DF842200E9B1B79013B9A4202D1F5
:1083580000230F930BE09DF842305A1C1346DB00B4
:1083680013445B0008330E9A134402330F930DAB8A
:108378000F9A11990398FFF7F7FE0346002B03D0D5
:1083880001238DF8433014E00F9B1193039B93F85E
:10839800C5320133DAB2039B83F8C5229DF8423017
:1083A80001338DF842300E9B1B799DF842209A428A
:1083B800C7D39DF8433083F00103DBB2002B04D010
:1083C800029B01221A70002314E0029B00221A70FB
:1083D80004238DF814300D9B0993039B0893074BD6
:1083E8000793074B1B68BDF8062005A9184601F03E
:1083F8009DF90346184613B05DF804FB317F02006F
:108408004827002000B587B001900091019B93F8A0
:10841800C6321A46762302FB03F3019A13440393E8
:10842800009B1A88019BB3F8CA329A4261D1009B1B
:108438005B88002B4FD1009B06330593039B059A5D
:108448000633063212681A60019B93F8C4328DF81D
:108458001330059B1B888DF812309DF813209DF86A
:1084680012301344062B0ADC019B93F8C4229DF8B2
:1084780012301344DAB2019B83F8C42219E0019B3D
:10848800062283F8C4221D4A1D4BD31ADB081B049D
:1084980043F002031B49184608F0D0FB174A184B53
:1084A800D31ADB081B0443F002031749184608F0E7
:1084B800C5FB009B1B8819460198FFF79DFE02909B
:1084C800029B002B16D0009B1B881A460199029824
:1084D800FFF72AFD0EE0009B1B881A460021019831
:1084E800FFF740FD009B1B8819460198FFF7AEFD7A
:1084F80000E000BF07B05DF804FB00BF6028030080
:1085080020280300842A0300A42A030000B58DB0A4
:108518000190009100238DF82F30009B1A88019B51
:10852800B3F8CA329A4240F0FC80019B93F8C632F5
:108538001A46762302FB03F3019A13440893009B1F
:108548005B88002B40F0BC80009B06330793089B98
:108558001B798DF81B30079B1B888DF81A309DF806
:108568001B209DF81A301344062B08DC089B1A7947
:108578009DF81A301344DAB2089B1A711AE0089B66
:1085880006221A71694A6A4BD31ADB081B0443F0A6
:108598000200089B1B881A46664908F05DFB634A7F
:1085A800634BD31ADB081B0443F0020362491846E5
:1085B80008F044FB9DF81B300A930023099345E01B
:1085C80008990A9A1346DB0013445B000B4403F135
:1085D80008010798099A13469B0013445B00C218C8
:1085E8008B1C0232106851681860596012891A8110
:1085F80008990A9A1346DB0013445B000B441433B2
:1086080000221A8008990A9A1346DB0013445B007B
:108618000B44163300221A8008990A9A1346DB0085
:1086280013445B000B44183300221A8008990A9AF5
:108638001346DB0013445B000B441A3300221A80F4
:108648000A9B01330A93099B01330993089B1B7901
:108658001A460A9B9342B3D30A9B5A1E1346DB0061
:1086680013445B000833089A1344023305930599B1
:108678000198FFF761FD034683F00103DBB2002B8D
:1086880003D1089B1B79062B03D101238DF82F30CA
:1086980019E0089B1A79019B83F8C522009B1B8867
:1086A80019460198FFF7A8FD0490049B002B0AD0F7
:1086B800009B1B881A4601990498FFF735FC31E0A6
:1086C80001238DF82F309DF82F30002B2AD0019BE5
:1086D800002283F8C522009B1A880DF10F03194662
:1086E8000198FFF7EFFD0490049B002B07D0009B37
:1086F8001B881A4601990498FFF716FC12E09DF8AA
:108708000F30002B0ED0009B1B881A4601210198C0
:10871800FFF728FC009B1B8819460198FFF796FC79
:1087280000E000BF0DB05DF804FB00BF6028030047
:1087380020280300EC2A0300342B030000B589B07D
:1087480001900091009B1A88019BB3F8CA329A42A3
:1087580040F0CC80019B93F8C6321A46762302FB80
:1087680003F3019A13440693009B06330593019B78
:1087780093F8C5321A461346DB0013445B000833EE
:10878800069A134402330493009B5B88002B70D134
:108798000023079365E00599079A13465B00134485
:1087A8005B000B4404331B88A3F52453082B45D8DE
:1087B80001A252F823F000BFFD87020015880200CD
:1087C800E5870200458802004588020045880200C6
:1087D80045880200458802002D8802000599079AFD
:1087E80013465B0013445B000B4402331A88049B56
:1087F8005A8123E00599079A13465B0013445B00EE
:108808000B4402331A88049B9A8117E00599079A4A
:1088180013465B0013445B000B4402331A88049B25
:10882800DA810BE00599079A13465B0013445B0055
:108838000B4402331A88049B1A8200BF049B5B898D
:10884800002B0BD0049B9B89002B07D0049BDB8952
:10885800002B03D0049B1B8A002B09D1079B0133F3
:108868000793059B1B881A46079B934293D300E006
:1088780000BF00238DF80B30019B93F8C5320133FC
:10888800069A1279934203D101238DF80B301BE02D
:10889800019B93F8C5320133DAB2019B83F8C522F4
:1088A800009B1A880DF10B0319460198FFF70AFD82
:1088B8000390039B002B07D0009B1B881A46019945
:1088C8000398FFF731FB12E09DF80B30002B0ED018
:1088D800009B1B881A4601210198FFF743FB009B68
:1088E8001B8819460198FFF7B1FB00E000BF09B0EB
:1088F8005DF804FB84B0019000230393019B002BD7
:1089080001D10E231AE0019B1B68002B01D10E2315
:1089180014E0019B5B68002B01D10E230EE0094B8C
:1089280000221A60084B01221A70019B1B68074A33
:108938001360019B5B68064A1360039B184604B0EA
:10894800704700BF4C2700205027002044270020F4
:108958004827002000B583B00190019B002B01D16E
:108968000E230FE0094B1B7883F00103DBB2002BC9
:1089780001D0082306E0064B1B6819460198FFF74B
:108988002DFA0346184603B05DF804FB5027002073
:108998004427002000B58FB001900B46ADF8023097
:1089A8004FF4BA620021019809F068FB03AB20225A
:1089B8000021184609F062FB2D4B1B68BDF8022008
:1089C8001146184600F050FF0D900D9B0C930C9B20
:1089D800002B01D00C9B47E0019BBDF80220A3F8B7
:1089E800CA22019B0022C3F8CC22019B002283F8F3
:1089F800C722019B002283F8C622019B002283F82C
:108A0800C522019B93F8C6321A46762302FB03F36C
:108A1800019A13440B93019B93F8C6320B99154A9C
:108A28009B0013441868086002238DF80C3001235A
:108A3800ADF81C300B9A0DF11E0312681A60019BE9
:108A480006930D4B05930A4B1B68BDF8022003A93A
:108A5800184600F06BFE0D900D9B002B03D1019B77
:108A6800012283F8C8220D9B18460FB05DF804FB5D
:108A7800482700202C270020317F020000B583B052
:108A880001900B46ADF80230019B002B01D10E235B
:108A98001CE0104B1B7883F00103DBB2002B01D0E4
:108AA800082313E00C4B1B68002B01D108230DE0B1
:108AB800019B93F8C832002B01D0112306E0BDF8C2
:108AC800023019460198FFF765FF0346184603B0C0
:108AD8005DF804FB502700204C27002082B001904D
:108AE8000091009B1A88019BB3F8CA329A4208D1B8
:108AF800019B002283F8C822019B4FF6FF72A3F85E
:108B0800CA2200BF02B0704700B585B0019000913D
:108B1800019B002B36D0009B002B33D01B4B1B78BE
:108B280083F00103DBB2002B2CD1009B0393019B44
:108B38001B88332B17D0332B23DC322B0CD0322B52
:108B48001FDC112B16D0302B1BD1019B0433194687
:108B58000398FFF757FC15E0019B04331946039867
:108B6800FFF7D4FC0EE0019B043319460398FFF786
:108B7800E5FD07E0019B043319460398FFF7AEFFB4
:108B880000E000BF05B05DF804FB00BF50270020DF
:108B980090DF704700BF1846A5DF704700BF184632
:108BA800B5DF704700BF184682B00190019B1722BD
:108BB8001A80019B17225A80019B00221A71019B7F
:108BC80000225A71019B1B229A71019B1B22DA71A8
:108BD80000BF02B07047000030B589B003460A46AE
:108BE800ADF806301346ADF80430BDF80430ADF8E2
:108BF8001430BDF80430ADF816300023ADF8183045
:108C08000023ADF81A3003AB00221A609A8003AA39
:108C180005A9BDF806301846FFF7BAFF0790079B6D
:108C2800002B39D01E4A1F4BD31ADB081B0443F014
:108C38000104BDF80650079807F0CAFA03462A4609
:108C48001949204608F019F8BDF80C30002B03D15B
:108C5800BDF80E30002B0ED0114A124BD31ADB0888
:108C68001B0443F00100BDF80C301A46BDF80E3065
:108C78000E4908F002F8BDF81030002B0CD0084A55
:108C8800084BD31ADB081B0443F00103BDF810207E
:108C98000749184607F0E0FF079B184609B030BDA2
:108CA8008828030020280300A02B0300EC2B0300D6
:108CB8002C2C030010B586B001900091009B9B8876
:108CC800ADF80E30BDF80E30DB00019A13440633C0
:108CD8000593019B1A79059B9A71009BDB7B012BFD
:108CE80002D0022B05D009E0019B1A88059B1A8047
:108CF80004E0019B5A88059B1A8000BF059B1A88CF
:108D0800059B5B889A4226D9059B1A88BDF80E30C8
:108D180011461846FFF740FF0490049B002B03D12F
:108D2800059B01225A7116E0049B112B03D1059B68
:108D380001221A710FE0114A114BD31ADB081B04E8
:108D480043F00104049807F043FA03461A460D4914
:108D5800204607F081FF059B9A79059BDB799A42AB
:108D680008D9059B9B799AB2BDF80E301146184672
:108D7800FFF732FF00BF06B010BD00BF8828030010
:108D880020280300842C030000B583B001900091D3
:108D9800009B9B88DB00019A134406331846FFF7B3
:108DA80003FF00BF03B05DF804FB00B587B0019076
:108DB8000091009B9B88ADF81630009B5B89ADF84D
:108DC8001430BDF81630DB00019A134406330493BF
:108DD800049B1B88BDF81420934228BF13469AB2FF
:108DE800049B5A80049B5B88172B38BF17239AB2C1
:108DF800049B5A80019B1B69002B15D0049B5B794F
:108E0800002B11D040F67723ADF80830BDF81630A6
:108E1800ADF80A30049B5B88ADF80C30019B1B69E8
:108E280002AA114601989847049B00225A71049B94
:108E380000221A7100BF07B05DF804FB10B588B0B6
:108E480001900091009B9B88ADF81A30009BDB884D
:108E5800ADF81830BDF81A30DB00019A1344063318
:108E68000593BDF81830172B38BF1723ADF8183005
:108E7800059B1B88BDF81820934228BF13469AB259
:108E8800059B5A80059B00221A71059B1A88BDF81C
:108E98001A3011461846FFF783FE0790079B002BF0
:108EA8000FD0174A174BD31ADB081B0443F00104F1
:108EB800079807F08DF903461A461349204607F02C
:108EC800CBFE059B5B79002B16D1019B1B69002B00
:108ED80013D040F67723ADF80C30BDF81A30ADF852
:108EE8000E30059B5B88ADF81030019B1B6903AA07
:108EF80011460198984700E000BF08B010BD00BFB8
:108F08008828030020280300B82C030030B591B04E
:108F180001900091009B04AC1D1D0FCD0FC40FCD17
:108F28000FC495E8070084E80700BDF81030ADF8D5
:108F38003E30BDF81420BDF83E30D1B2019ADB00B6
:108F480013440A465A73019B1B69002B19D002ABC4
:108F580000221A609A804DF67A23ADF80830BDF8E1
:108F68003E30ADF80A30BDF83E30019ADB001344BC
:108F78005B7B8DF80C30019B1B6902AA1146019896
:108F8800984700BF11B030BD00B587B0019000917F
:108F9800009B04330593059B1B88DB00019A13444F
:108FA80006330493059B9B888DF80F30049B9B79AF
:108FB8009DF80F20934228BF13468DF80E30059B6D
:108FC8001B889DF80E2092B211461846FFF704FE42
:108FD80000BF07B05DF804FB00B585B001900091B3
:108FE800019B002B01D10E231DE0019B009A1A6101
:108FF800019B17221A80019B17225A80019B1B2272
:109008001A71002303930AE0039BDB00019A1344BF
:1090180006331846FFF7C8FD039B01330393039BF0
:10902800002BF1D00023184605B05DF804FB0000C2
:1090380010B586B001900091009B0593019B9B8819
:10904800ADF81230BDF81230002B40F09880019B2B
:109058001B88552B48D0552B55DC242B32DC102B84
:1090680051DB103B142B4ED801A252F823F000BF5D
:10907800D3900200DD9002000F9102000F910200D0
:109088000F9102000F9102000F9102000F91020050
:109098000F9102000F9102000F9102000F91020040
:1090A8000F9102000F9102000F9102000F91020030
:1090B8000F9102000F9102000F910200059102002A
:1090C800FB9002003A2B0AD01DE001990598FFF7A2
:1090D800F1FD19E001990598FFF756FE14E0019992
:1090E8000598FFF762FE0FE001990598FFF7A6FEC5
:1090F8000AE001990598FFF709FF05E0019905982D
:10910800FFF742FF00E000BFBDF81230059ADB0010
:1091180013449B7A002B33D0BDF81230059ADB003C
:109128001344DA88BDF8123011461846FFF734FDAB
:109138000390039B002B0ED1BDF81230059ADB007B
:10914800134400229A72BDF81230059ADB001344CA
:109158000122DA7214E0039B112B11D0094A0A4B41
:10916800D31ADB081B0443F00104039807F030F816
:1091780003461A460549204607F06EFD00E000BF89
:1091880006B010BD8828030020280300842C0300A3
:109198009BDF704700BF18469DDF704700BF184629
:1091A8009EDF704700BF1846A1DF704700BF184612
:1091B800A3DF704700BF1846AEDF704700BF1846F0
:1091C80000B585B001900091009B10330393039B79
:1091D800DB88102B01D9092319E0039BDB8819468A
:1091E800019806F0D0FA0246009B5A60009B5B6823
:1091F800002B01D104230AE0009B5868039B99685F
:10920800039BDB881A46002306F00AFC0023184655
:1092180005B05DF804FB00B585B001900091009B96
:1092280010330393039B9B681B88102B01D90923D8
:1092380024E0039B9B681B8802331946019806F0BB
:10924800A2FA0246009B5A60009B5B68002B01D182
:10925800042313E0009B5868039B996800230222AB
:1092680006F0DEFB009B5868039BD968039B9B684C
:109278001B881A46022306F0D3FB0023184605B0C4
:109288005DF804FB00B587B005900B460392ADF876
:109298001230039B002B1ED0114A124BD31ADB0845
:1092A8001B0443F00100059B1B781946BDF81220EA
:1092B800039B009313460A460B4907F0F2FC059BF3
:1092C8009B68002B07D0059B9B68059AD168BDF861
:1092D80012200398984700BF07B05DF804FB00BF51
:1092E8009028030020280300F42C030000B597B051
:1092F80001900B46ADF802300CAB012219460198DB
:1093080006F08CFD1590159B002B40F0AC809DF865
:109318003030052B7ED801A252F823F03D9302008D
:10932800539302007D93020095930200AB930200D1
:10933800C1930200BDF84010BDF84220BDF80230CC
:109348001846FFF731FF159071E008AB12930D989E
:109358001299BDF846301A46002306F07FFB0CAB85
:1093680003F11002BDF8023011461846FFF720FF3E
:1093780015905CE0BDF840100CAB03F11202BDF88B
:1093880002301846FFF704FF159050E00CAB03F1CC
:109398001002BDF8023011461846FFF7FDFE159081
:1093A80045E00CAB03F11002BDF802301146184637
:1093B800FFF7F6FE15903AE004AB13930D980DF104
:1093C8000E010023022206F049FB0DF10E03129351
:1093D8000D981399129B1B881A46022306F03EFB30
:1093E800BDF80E30ADF852300CAB03F11002BDF8E9
:1093F800023011461846FFF7DFFE1590159B002B2B
:1094080014D1BDF80E30BDF852209A420ED00C236C
:1094180015930BE0164A174BD31ADB081B0443F0CD
:1094280002031549184607F009FC00E000BF159B28
:10943800112B18D09DF830301A46104B53F82230B3
:10944800002B03D00D9B184606F0F4F90CAB002254
:109458001946019806F0E2FCBDF802100CAB159A0B
:109468001846FFF70FFF00BF17B05DF804FB00BFF9
:109478009028030020280300402D03005C2D0300E2
:1094880000B58FB00190019BDB680DF12E01002221
:10949800184606F0C3FC0D9031E0019B9A68BDF8B0
:1094A8002E3019460B469B000B449B0013440C932B
:1094B80003AB002219460C9806F0B0FC0D9012E0A0
:1094C8009DF80C301A46124B53F82230002B03D06B
:1094D800049B184606F0AEF903AB002219460C9817
:1094E80006F09CFC0D900D9B002BE9D0019BDB68DE
:1094F8000DF12E010022184606F090FC0D900D9BF0
:10950800002BCAD000BF00BF0FB05DF804FB00BF3E
:109518005C2D030000B585B001900B46ADF8023014
:1095280000230393019B1B78052B63D801A252F8F3
:1095380023F000BF559502006B950200819502004B
:1095480099950200AF950200C5950200019B198A02
:10955800019B5A8ABDF802301846FFF725FE039092
:1095680055E0019B03F11002BDF802301146184680
:10957800FFF71EFE03904AE0019B198A019B03F145
:109588001202BDF802301846FFF702FE03903EE0D3
:10959800019B03F11002BDF8023011461846FFF78F
:1095A800FBFD039033E0019B03F11002BDF802308C
:1095B80011461846FFF7F4FD039028E0019B9B69CC
:1095C8001B88ADF80A30019B03F11002BDF8023088
:1095D80011461846FFF7F0FD0390039B002B15D1A9
:1095E800019B9B691B88BDF80A209A420ED00C2368
:1095F80003930BE00E4A0F4BD31ADB081B0443F00E
:1096080002030D49184607F019FB00E000BF039B51
:10961800112B01D1002307E0BDF80230039A194647
:109628000198FFF72FFE0123184605B05DF804FBEB
:109638009028030020280300402D030084B00190E7
:109648000B46ADF802300023ADF80E3012E0019B56
:109658005A68BDF80E305B0013441B88BDF8022021
:109668009A4202D1BDF80E300CE0BDF80E3001333D
:10967800ADF80E30019B1B88BDF80E209A42E6D348
:10968800BDF80E30184604B0704784B001900B4600
:10969800ADF802300023ADF80E301AE0019B5A688D
:1096A800BDF80E305B0013441B884FF6FF729342DF
:1096B8000AD1019B5A68BDF80E305B001344BDF80F
:1096C80002201A8000230BE0BDF80E300133ADF8FC
:1096D8000E30019B1B88BDF80E209A42DED304236E
:1096E800184604B0704784B001900023ADF80E30DE
:1096F80011E0019B5A68BDF80E305B0013441B88CB
:109708004FF6FF72934201D001230BE0BDF80E30F3
:109718000133ADF80E30019B1B88BDF80E209A422C
:10972800E7D30023184604B07047000000B589B09D
:10973800039002911346ADF8063000230693039B6D
:10974800002B01D10E2389E0029B002B01D10E23AF
:1097580084E00398FFF794FEBDF806301946039895
:10976800FFF76CFF0346ADF81E30029B1B78052BF4
:1097780005D8039B1B88BDF81E209A4201D10723F8
:109788006CE0039B9968BDF81E2013469B001344A8
:109798009B000B44184606F0DBFB0346002B0ED05B
:1097A800BDF8063019460298FFF7B4FE03468DF857
:1097B80017309DF81730002B01D0069B4EE0029B16
:1097C8001B781A46274B53F82230002B18D0039BDE
:1097D8001B69002B01D10E2340E0029B1B781A461F
:1097E800204B53F82230039A126902991046984781
:1097F8000690069B0493049B002B01D0049B2DE04C
:10980800039B9968BDF81E2013469B0013449B00D8
:109818000B440299184606F049FA0690069B002B5D
:109828000CD0029B1B781A460E4B53F82230002BA3
:1098380004D0029B5B68184605F0FCFF039B9968FF
:10984800BDF81E2013469B0013449B000B44BDF833
:10985800062011461846FFF749FD069B184609B031
:109868005DF804FB5C2D030000B587B001900B4642
:10987800ADF8023000230593019B002B01D10E2384
:109888002FE00198FFF7FCFDBDF80230194601985A
:10989800FFF7D4FE0346ADF81230019B1B88BDF8D4
:1098A80012209A421CD10198FFF71DFF034683F04E
:1098B8000103DBB2002B05D0019B1B69184605F09C
:1098C80057FF0590BDF8023019460198FFF7DDFEF5
:1098D8000590059B0393039B002B01D0039B00E09D
:1098E800059B184607B05DF804FB00B587B00190EA
:1098F8000091009B0493019B002B5AD0049B002BE2
:1099080057D0019B1B88112B04D1019B9B88ADF874
:10991800163018E0019B1B882F2B08D9019B1B8848
:109928004F2B04D8019B9B88ADF816300BE0019BA8
:109938001B884F2B3FD9019B1B886F2B3BD8019B62
:109948009B88ADF81630BDF8163019460498FFF715
:1099580075FE0346ADF80E30049B1A88BDF80E302C
:109968009A422AD0019B1B88112B11D1049B5A685B
:10997800BDF80E305B0013444FF6FF721A80049B4B
:10998800DB680DF10E021146184606F08FF915E056
:10999800049B9A68BDF80E3019460B469B000B4491
:1099A8009B001344BDF8162011461846FFF79EFC8D
:1099B80004E000BF02E000BF00E000BF07B05DF8B0
:1099C80004FB8ADF704700BF18468BDF704700BF73
:1099D80018468CDF704700BF184600B58DB001905F
:1099E8000091009B02330993019B2E330893019B3E
:1099F80024330B93019B93F82C308DF82B30019B6B
:109A080093F8233083F00103DBB2002B21D100F05F
:109A180035FA02AB14220021184608F02FFB9DF8F6
:109A28002B300B9A08990998FFF7D3FF0790052365
:109A38008DF80830079B0393079B002B0AD0019BE6
:109A4800DB6B002B06D0019BDB6B02AA1046984704
:109A580000E000BF0DB05DF804FB00B587B00190D1
:109A68000091009B0493009B93F820308DF80F30F1
:109A7800019B9B8BADF80C3000238DF8173015E057
:109A8800019B98699DF817305B01049A1A44BDF848
:109A98000C301946FDF7B8FF0346002B01D001230F
:109AA8000BE09DF8173001338DF817309DF817201B
:109AB8009DF80F309A42E3D30023184607B05DF8AB
:109AC80004FB10B586B001900091019B20330493EC
:109AD800009808F06DFA03468DF80F309DF80F30A6
:109AE800002B03D09DF80F30202B01D90C2333E035
:109AF800049B1B78002B01D004232DE000238DF854
:109B0800173012E09DF817305B01019A1344009951
:109B1800184608F019FA0346002B01D100231BE070
:109B28009DF8173001338DF817309DF81730002B4A
:109B3800E8D0049B1B785A1CD1B2049A11705B01BF
:109B4800019AD418009808F033FA03461A46009987
:109B5800204608F05DFA0023184606B010BD00B58F
:109B680087B003900B4601928DF80B30039B002BB6
:109B780001D10E2311E0019B002B01D10E230CE033
:109B88009DF80B30002B07D1019B0593059903988D
:109B9800FFF797FF034600E00723184607B05DF874
:109BA80004FB000000B585B001900B468DF803302A
:109BB80013468DF80230019B002B01D10E233DE0A6
:109BC8009DF8033003F00203002B19D19DF80330F0
:109BD80003F00103002B13D19DF8033003F00403B5
:109BE800002B0DD19DF8033003F01003002B07D193
:109BF8009DF8033003F00803002B01D107231DE073
:109C0800019800F021F80390039B002B04D00D4924
:109C180040F2AF20FCF7D8FB019B02939DF803307C
:109C280003F00103002B03D0029B012283F82120BB
:109C3800029B9DF8022083F822200023184605B0D5
:109C48005DF804FB802D030084B00190019B002B7C
:109C580001D10E2306E0019B21330393039B0022CD
:109C68001A700023184604B0704700B58BB00190F5
:109C7800009100238DF8273000238DF8263003ABA0
:109C880014220021184608F0F9F9019B2E33079396
:109C9800019800F081F80346002B14D002238DF8B8
:109CA8000C30009B0493019BDB6B03AA104698477A
:109CB800019B603319460020FFF783FE0099019845
:109CC800FFF78BFE65E0019B93F822308DF8243076
:109CD80000238DF82530019B93F821308DF823302F
:109CE8009DF82330002B19D09DF8273001338DF8CB
:109CF800273001990098FFF7B0FE0346002B0DD0DE
:109D08009DF8263001338DF826309DF8143043F045
:109D180001038DF8143001238DF82530009B04933E
:109D28009DF82430002B0DD09DF826209DF8273073
:109D38009A4207D100238DF80C3000990198FFF75B
:109D48004CFE17E09DF8243083F00103DBB2002BB2
:109D58000BD09DF82530002B07D000238DF80C3050
:109D680000990198FFF739FE04E003238DF80C30C1
:109D7800009B0493019BDB6B002B04D0019BDB6BE6
:109D880003AA10469847019B603319460020FFF745
:109D980018FE0BB05DF804FB82B00190019B93F8AC
:109DA8002E3003F01803DBB2082B07D0019B93F881
:109DB8002E3003F01803DBB2182B01D1012300E089
:109DC8000023184602B0704782B00190019A92F8B9
:109DD8002E3043F0040382F82E30019BA0221A860D
:109DE800019B50225A86019B00229A86019A92F87A
:109DF8002E306FF3C40382F82E30019B012283F8C2
:109E08002F2000BF02B0704782B00190019B4FF431
:109E1800C8725A85019B06229A84019B1822DA840B
:109E2800019B00221A8500BF02B0704700B589B0B7
:109E380001900091009B0433079302AB1422002188
:109E4800184608F01BF9079B1B78012B12D1019BC0
:109E5800DB6B002B0ED004238DF80830019B2E33CA
:109E68000693079B1B788DF80C30019BDB6B02AACD
:109E78001046984700BF09B05DF804FB08B5FFF726
:109E8800A4FD00BF08BD10B584B0039002910192F3
:109E9800039B002B01D10E234DE0039B019ADA634B
:109EA800039B23220021184608F0E8F8029B002BA8
:109EB8002DD0029B1A79039B83F82320029B1A7BDF
:109EC800039B83F82C20029B1B68002B0CD0029B61
:109ED8001A68039B2E331468506891681C60586098
:109EE800996092899A8102E00398FFF76DFF029BBF
:109EF8009B68002B07D0029B9A68039B2433106849
:109F0800516803C30DE00398FFF77EFF09E003984B
:109F1800FFF75AFF0398FFF777FF039B002283F8A8
:109F28002320039B03F14002039B1A66039B1F2215
:109F3800A3F864200023184604B010BD00B589B00A
:109F48000190019B002B01D10E2338E002AB1422B3
:109F58000021184608F092F8FFF790FF0198FFF7E4
:109F68001BFF0346002B0BD0019BDB6B002B07D09C
:109F780001238DF80830019BDB6B02AA1046984735
:109F8800019B03F12E02019B603319461046FFF72F
:109F980018FD0790079B082B10D0079B002B0DD0AE
:109FA800094A0A4BD31ADB081B0443F00103079A3A
:109FB8000749184606F050FE079B00E000231846A4
:109FC80009B05DF804FB00BF7828030020280300CF
:109FD800B82D030000B589B00190009103AB14229D
:109FE8000021184608F04AF806238DF80C30009B2B
:109FF80004330493009B1B88ADF81430019B2E3367
:10A008000793019BDB6B002B04D0019BDB6B03AA3E
:10A018001046984700BF09B05DF804FB00B587B04B
:10A0280001900091009B0593019B08330493019BC9
:10A0380004330393019B1B881D2B06D01D2B13DCB7
:10A04800102B0CD01B2B05D00EE004990598FFF7B8
:10A058000CFE0AE003990598FFF7E8FE05E003996E
:10A068000598FFF7B7FF00E000BF00BF07B05DF835
:10A0780004FB62DF704700BF184600B587B0039045
:10A0880002911346ADF80630029B0593059B1B69A8
:10A09800002B03D0059B1B690398984700BF07B0A6
:10A0A8005DF804FB00B58BB00190009103AB14225E
:10A0B8000021184607F0E2FF009B0E330893009B2F
:10A0C8001B78002B57D1009B9B88012B53D1009BF9
:10A0D8009A79019B1B789A424DD10023099333E06A
:10A0E800099A1346DB0013445B001A46089B134485
:10A0F8001B88022B02D0032B0CD022E0099A1346AE
:10A10800DB0013445B001A46089B13441B89ADF817
:10A118001E3016E0099A1346DB0013445B001A460A
:10A12800089B13441B89ADF81A30099A1346DB00C3
:10A1380013445B001A46089B13445B89ADF81C3036
:10A1480000BF099B01330993009B1B7A1A46099BA0
:10A158009342C5D3019BDB68002B0CD0009B5B8826
:10A16800ADF80E3000238DF80C30019BDB6803AA94
:10A1780011460198984700BF0BB05DF804FB00B585
:10A1880089B001900091019B9B88002B19D0009BFE
:10A198005A89019B9B889A4213D1019BDB68002B4B
:10A1A8000FD001238DF80C30009B10330593009BD2
:10A1B800DB89ADF81830019BDB6803AA11460198CA
:10A1C800984700BF09B05DF804FB000010B58AB0DD
:10A1D80001900091234B03AC0FCB84E80F00019B47
:10A1E800002B01D10E233AE0009B002B01D10E2356
:10A1F80035E0009B9B68002B01D10E232FE0019ACC
:10A2080003AB11461846FFF734FF0990099B0893E2
:10A21800089B002B01D0089B21E0019B1B788DF83F
:10A228001E300123ADF81C30019B4FF6FF725A8097
:10A23800009B1A68019BDA60009B5A68019B1A61AF
:10A24800019B00229A80019B00221A81009B9A6838
:10A25800019B5A6107AB1846FEF77CFB034618467C
:10A268000AB010BD042E030000B589B0019000911A
:10A27800009B0793079B002B31D0019B002B2ED00E
:10A28800079B5B884FF6FF7293422AD0079B5A8838
:10A29800019B9B889A4224D1019B1B88112B06D0D5
:10A2A800392B20D101990798FFF769FF1EE0019B20
:10A2B8009A88079B5B889A4217D1079BDB68002B1B
:10A2C80013D002238DF80830079B4FF6FF725A808F
:10A2D800079BDB6802AA11460798984705E000BF6C
:10A2E80004E000BF02E000BF00E000BF09B05DF875
:10A2F80004FB000000B58DB0039002911346ADF841
:10A308000630039B002B01D10E234CE004AB202226
:10A318000021184607F0B2FEBDF80630142B0CD900
:10A32800234A244BD31ADB081B0443F002032249B7
:10A33800184606F083FC072335E0039B5B884FF63D
:10A34800FF7293420CD11A4A1A4BD31ADB081B042A
:10A3580043F002031949184606F070FC082322E06E
:10A3680001238DF81030164B0693039B0793039B2C
:10A378001B89ADF82230BDF80630ADF82630002331
:10A38800ADF82430029B0A9302238DF82030012374
:10A398008DF82130039B5869039B5A8804AB1946F2
:10A3A800FFF7C4F9034618460DB05DF804FB00BF7B
:10A3B8007028030020280300142E0300282E030011
:10A3C80083A0020000B585B003900B460192ADF85A
:10A3D8000A30039B002B01D10E231BE0039BBDF821
:10A3E8000A205A80019B002B0BD0019B5A88039BA3
:10A3F800DA80019B1A88039B9A80019B9A88039BA9
:10A408001A81039B5B69BDF80A2011461846FFF7BD
:10A418002BFA0346184605B05DF804FB82B00346E4
:10A428008DF807309DF90730002B13DB9DF80730B6
:10A4380003F01F0209499DF907305B09012000FA62
:10A4480002F2203341F82320BFF34F8F00BFBFF340
:10A458006F8F00BF00BF02B0704700BF00E100E08F
:10A46800044BD3F80034002B14BF01230023DBB2C4
:10A47800184670470000014008B507F0FBF903468D
:10A4880083F00103DBB2002B03D109497B20FBF7E2
:10A498009BFFFFF7E5FF034683F00103DBB2002BC8
:10A4A80004D000F041FB034B00229A7000BF08BDA6
:10A4B8004C2E03005427002000B583B000230193DD
:10A4C800184B1B78002B02D0852301931CE0154BF9
:10A4D80000229A60134B00225A60124B00221A6124
:10A4E800104B0022DA60104800F0E4FA019007F0FF
:10A4F800C1F9034683F00103DBB2002B01D000F061
:10A50800FFFA084B01221A70FFF7AAFF0346002B37
:10A5180002D0044B01229A70019B184603B05DF8E3
:10A5280004FB00BF5427002009A6020084B0019054
:10A53800019B1B680393039B002B03D0039B1A68A2
:10A54800019B1A60039B184604B0704700B583B09E
:10A55800164B1B78002B04D1154940F21710FBF756
:10A5680033FF124BDB68002B04D111494FF48C7078
:10A57800FBF72AFF00238DF807300DF10703184673
:10A5880003F0EEFD094BDB68013B084AD360074B3B
:10A59800DB68002B01D1FFF76FFF9DF807301846E5
:10A5A80003F0F4FD00BF03B05DF804FB542700205E
:10A5B8004C2E030000B585B003468DF807309DF892
:10A5C8000730002B02D10C4B039301E00B4B039394
:10A5D8000398FFF7ABFF0290029B002B06D0029B6B
:10A5E8005B689DF8072010469847F1E700BF00BF59
:10A5F80005B05DF804FB00BF5C270020642700203D
:10A6080000B583B003468DF807309DF80730002B5E
:10A6180005D10A4B01225A700020FFF7CBFF9DF8A5
:10A628000730012B05D1054B01229A700120FFF755
:10A63800C1FF00BF03B05DF804FB00BF5427002032
:10A6480000B583B001900091019B002B05D1054B0B
:10A6580001225A700020FFF7ADFF00BF03B05DF87C
:10A6680004FB00BF5427002000B585B003460091C5
:10A678008DF807309DF80730032B29D0032B35DCE4
:10A68800002B02D0012B04D030E00020FFF7C6FEDB
:10A698002DE000238DF80F300DF10F03184603F05D
:10A6A8005FFD154B1B7883F00103DBB2002B01D053
:10A6B800FFF702FF104BDB6801330F4AD3600E4BE4
:10A6C80001229A709DF80F30184603F05FFD0EE0E6
:10A6D800094B1B78002B04D1084940F25220FBF7A4
:10A6E80073FE00F00DFAFFF731FF00E000BF00BF76
:10A6F80005B05DF804FB00BF542700204C2E030072
:10A7080000B589B001900091009B0793019B1B78CD
:10A718008DF80C30019B5B680493019B9B68DBB24E
:10A728008DF81430019BDB680693074A079B52F8A3
:10A7380023300649079A51F8221003AA1046984771
:10A7480000BF09B05DF804FB682700206C270020D3
:10A7580000B589B001900091009B0793019B1B787D
:10A768008DF80C30019B5B680493019B9B68DBB2FE
:10A778008DF81430019BDB680693074A079B52F853
:10A7880023300649079A51F8221003AA1046984721
:10A7980000BF09B05DF804FB682700206C27002083
:10A7A80030B58FB0039002910192039B1B780C93F4
:10A7B80026490C9B019A41F82320029B1A692449D7
:10A7C8000C9B41F82320029B5B7F1946214A0C9B76
:10A7D80013440A461A70029B04AC1D460FCD0FC4E1
:10A7E80095E80F0084E80F000C9B089300230D9355
:10A7F800039B1B781A46174B9B5C002B0DD0039BC1
:10A80800181D019B002B01D0134A00E0002204AB65
:10A81800194602F0F7F90D9014E0039B1B781A46CD
:10A828000C4B9B5C002B0DD1039B03F10C00019B8F
:10A83800002B01D0094A00E0002204AB194601F0C0
:10A848006FFB0D900D9B18460FB030BD6827002098
:10A858006C2700207027002009A7020059A70200D2
:10A8680082B003468DF807309DF90730002B0CDBCA
:10A878009DF8073003F01F0205499DF907305B0971
:10A88800012000FA02F241F8232000BF02B070470D
:10A8980000E100E082B0034600918DF807309DF991
:10A8A8000730002B0ADB009BDAB20C499DF9073010
:10A8B8005201D2B20B4483F800230BE0009BDAB2BA
:10A8C80007499DF8073003F00F03043B5201D2B249
:10A8D8000B441A7600BF02B0704700BF00E100E0E9
:10A8E80000ED00E082B00190019B1B0B5BB21846A3
:10A8F80002B0704700B583B003460A468DF80730AA
:10A9080013468DF806309DF80630012B03D99DF8C3
:10A918000630032B0BD99DF80630042B03D99DF87C
:10A928000630072B03D908496B20FBF74DFD9DF82E
:10A9380006209DF9073011461846FFF7ABFF00BF08
:10A9480003B05DF804FB00BF802E030000B583B0A0
:10A9580003468DF807309DF907301846FFF780FF4A
:10A9680000BF03B05DF804FB82B003468DF80730E2
:10A978000F4A9DF90730002B00DA1F335B115BB2D9
:10A9880052F823209DF90730594203F01F0301F0C4
:10A998001F0158BF4B425BB222FA03F303F00103D5
:10A9A800002B14BF01230023DBB2184602B0704706
:10A9B80000E100E082B001904FF08042019BC2F8B4
:10A9C800083300BF02B0704782B003468DF80730E5
:10A9D8009DF8073003F1804301221A6000BF02B0DE
:10A9E800704784B00346ADF80630BDF8063003F171
:10A9F800804300221A60BDF8063003F180431B68CB
:10AA08000393039B00BF04B0704782B00346ADF8C0
:10AA18000630BDF8063003F180431B68002B14BFD5
:10AA280001230023DBB2184602B0704782B00190C0
:10AA38004FF08042019BC2F8183500BF02B0704742
:10AA48004FF08043D3F818341B0C03F00103002B9C
:10AA580014BF01230023DBB21846704700B583B04A
:10AA680006238DF807304FF08040FFF73BFF034681
:10AA78001846FFF779FF034683F00103DBB2002B8A
:10AA880013D04FF08040FFF72DFF03461A469DF87C
:10AA9800073019461046FFF72DFF4FF08040FFF7AB
:10AAA80021FF03461846FFF751FF00BF03B05DF8CA
:10AAB80004FB000000B585B00190019B002B03D179
:10AAC8000D49A420FBF780FC002303930B4B1B7953
:10AAD800002B02D08523039308E0084A019B1360EA
:10AAE800064B01221A71054B00225A71039B184626
:10AAF80005B05DF804FB00BFB02E030074270020EA
:10AB080008B5074B1B79002B03D10649BD20FBF77D
:10AB18005BFCFFF7A3FF0120FFF788FF00BF08BD1C
:10AB280074270020B02E030008B50D4B1B79002BAD
:10AB380003D10C49F720FBF747FC0220FFF73AFF47
:10AB48004FF48270FFF74DFF0C20FFF73DFF00BF69
:10AB5800FFF776FF0346002BFAD100BF00BF08BD00
:10AB680074270020B02E030008B54FF48070FFF75B
:10AB78004CFF0346002B14D04FF48070FFF731FFD1
:10AB88000120FFF717FF114B5B7983F00103DBB25C
:10AB9800002B06D00D4B01225A710C4B1B6800206C
:10ABA80098474FF48270FFF730FF0346002B0AD016
:10ABB8004FF48270FFF715FF0220FFF7FBFE034BEF
:10ABC8001B680120984700BF08BD00BF74270020FC
:10ABD80082B003468DF807309DF90730002B0CDB57
:10ABE8009DF8073003F01F0205499DF907305B09FE
:10ABF800012000FA02F241F8232000BF02B070479A
:10AC080000E100E082B0034600918DF807309DF91D
:10AC18000730002B0ADB009BDAB20C499DF907309C
:10AC28005201D2B20B4483F800230BE0009BDAB246
:10AC380007499DF8073003F00F03043B5201D2B2D5
:10AC48000B441A7600BF02B0704700BF00E100E075
:10AC580000ED00E082B00190019B1B0B5BB218462F
:10AC680002B0704700B583B003460A468DF8073036
:10AC780013468DF806309DF80630012B03D99DF850
:10AC88000630032B0BD99DF80630042B03D99DF809
:10AC98000630072B03D908496B20FBF795FB9DF875
:10ACA80006209DF9073011461846FFF7ABFF00BF95
:10ACB80003B05DF804FB00BFE42E030000B583B0C9
:10ACC80003468DF807309DF907301846FFF780FFD7
:10ACD80000BF03B05DF804FB00B583B00346ADF8D0
:10ACE8000630BDF80630184600F026F803461B6803
:10ACF800012B0CBF01230023DBB2184603B05DF81B
:10AD080004FB00B585B00346ADF80630BDF8063043
:10AD1800184600F011F803461A4600231360BDF8E0
:10AD28000630184600F008F803461B680393039B97
:10AD380000BF05B05DF804FB82B00346ADF80630ED
:10AD4800BDF8063003F1804303F5C043184602B04E
:10AD58007047000082B00190034A019BC2F8043397
:10AD680000BF02B0704700BF0060004082B0019091
:10AD7800034BD3F80423019B1340184602B07047D5
:10AD88000060004084B00390029113468DF80730AC
:10AD9800144A039B03F5A27352F82330114923F494
:10ADA800473323F44073039A02F5A27241F8223024
:10ADB8000C4A039B03F5A27352F82320029B1B0243
:10ADC80003F4F8519DF807301B0403F440330B4398
:10ADD80004491A43039B03F5A27341F8232000BFDB
:10ADE80004B070470060004082B00190054A019BA2
:10ADF80003F5A27352F823301B0A03F01F03184609
:10AE080002B070470060004082B00190064A019B82
:10AE180003F5A27352F823301B0C03F00303DBB2D3
:10AE2800184602B0704700BF0060004000B583B00C
:10AE38000190019B1B68184600F015F90346002B8A
:10AE480004D105494FF4F670FBF7BEFA4FF0A04362
:10AE5800184603B05DF804FB0C2F030000B585B05D
:10AE68000190084611461A4603468DF803300B46F2
:10AE78008DF8023013468DF8013001AB1846FFF704
:10AE8800D5FF03909DF803209DF802305B001A431C
:10AE98009DF801309B001A439DF818301B0242EAC6
:10AEA80003019DF81C301B04019A1943039B02F50A
:10AEB800E07243F8221000BF05B05DF804FB00B54E
:10AEC80085B003900B468DF80B309DF80B300022AF
:10AED800019200220092002200210398FFF7BEFF92
:10AEE80000BF05B05DF804FB00B585B0019001AB6B
:10AEF8001846FFF79BFF0390019A039B02F5E07247
:10AF080053F8223023F002030293019A039B02F5BF
:10AF1800E072029943F8221000BF05B05DF804FB07
:10AF280000B585B001900B468DF8033001AB18468B
:10AF3800FFF77CFF0390019A039B02F5E07253F838
:10AF48002230019A23F44031039B02F5E07243F862
:10AF58002210019A039B02F5E07253F822309DF803
:10AF6800032012041146019A1943039B02F5E0726B
:10AF780043F8221000BF05B05DF804FB00B585B0AA
:10AF8800019001AB1846FFF751FF0390039800F0BA
:10AF980020F80246019B22FA03F303F00103184646
:10AFA80005B05DF804FB00B585B0019001AB18460B
:10AFB800FFF73CFF0390019A039B02F5E07253F8F8
:10AFC80022301B0C03F00303DBB2184605B05DF812
:10AFD80004FB82B00190019BD3F81035184602B0EB
:10AFE800704786B00390029101924FF0A0430493FA
:10AFF800039B059319E0059B9B0018336B4453F89A
:10B00800083CD3F82025019B1A60059B9B00183348
:10B018006B4453F8083C019A1268C3F82025019B39
:10B0280004330193059B01330593039A029B134450
:10B03800059A9A42DFD300BF00BF06B0704700B53B
:10B0480085B0019001AB1846FFF7F0FE0390019B15
:10B05800012202FA03F31A46039BC3F8202500BF16
:10B0680005B05DF804FB84B00190019B5B09029375
:10B0780000230393029B002B03D14FF0FF3303936C
:10B0880000BF019B03F01F030193039A019B22FA5F
:10B0980003F303F00103002B14BF01230023DBB2E9
:10B0A800184604B0704784B001900091009B039348
:10B0B800019BDB080293019B03F007030193012224
:10B0C800019B02FA03F30399029A0A441278134087
:10B0D800184604B0704784B001900091009B039318
:10B0E800019BDB080293019B03F007030193039A7A
:10B0F800029B13441B785AB20121019B01FA03F306
:10B108005BB2134359B2039A029B1344CAB21A7032
:10B1180000BF04B07047000082B00190064A019B4E
:10B128001344303393F90030DB43DBB2DB09DBB285
:10B13800184602B0704700BF7C27002084B00390F7
:10B14800029101928DF80330029B59B20E4A039B7B
:10B15800134430330A461A700B49029B019A41F88E
:10B1680023209DF8033083F00103DBB2002B08D0C5
:10B17800029B083B039A51B2034A13440A4683F8D8
:10B18800502000BF04B070477C27002082B0019097
:10B19800044A019B13443033FF221A7000BF02B0E7
:10B1A800704700BF7C27002000B583B00190044998
:10B1B8000198FFF790FF00BF03B05DF804FB00BFE4
:10B1C800D027002082B00190044A019B13443033F9
:10B1D80093F90030184602B0704700BF7C27002062
:10B1E80082B00190034A019B52F82330184602B0FE
:10B1F800704700BF7C27002084B00190074A019B5C
:10B208001344503393F900308DF80F309DF80F3008
:10B2180023F0C003184604B0704700BF7C27002005
:10B2280084B00190074A019B1344503393F90030CE
:10B238008DF80F309DF80F309B09DBB2184604B02B
:10B24800704700BF7C27002000B589B003900291A9
:10B2580013468DF80730FF238DF81F309DF807300F
:10B26800002B01D0002300E0082305939DF8073048
:10B27800002B01D0082300E00C230493059B0693C0
:10B2880014E00F4A069B52F82330B3F1FF3F0AD16E
:10B298009DF80730029A06990398FFF74FFF069B1F
:10B2A8008DF81F3006E0069B01330693069A049B2F
:10B2B8009A42E6D39DF91F30184609B05DF804FBA1
:10B2C8007C27002082B003468DF807309DF80730B0
:10B2D800094A4FF0FF3142F823109DF80730072B39
:10B2E80007D99DF80730083B034A1344FF2283F827
:10B2F800502000BF02B070477C27002000B583B003
:10B308002D4B93F85830002B03D008230093009B53
:10B318004EE000238DF8073011E09DF807301846FD
:10B32800FFF7A1FE0346002B04D09DF8073018460E
:10B33800FFF72CFF9DF8073001338DF807309DF893
:10B3480007301F2BE9D900238DF8073009E09DF855
:10B3580007301846FFF7B6FF9DF8073001338DF820
:10B3680007309DF807300B2BF1D904220021134830
:10B3780006F084FE1248FFF76DFC034606211846C6
:10B38800FFF770FC0E48FFF765FC03461846FFF709
:10B3980095FC4FF4BE70FFF7B4FC4FF00040FFF788
:10B3A800D9FC054B012283F8582000230093009B09
:10B3B800184603B05DF804FB7C270020D027002046
:10B3C80000600040044B93F85830002B14BF012351
:10B3D8000023DBB2184670477C27002000B587B0F1
:10B3E8000390029101920398FFF73DFE0346002B5C
:10B3F80004D136494FF40C70FAF7E6FF00230593A1
:10B408000398FFF789FE0346002B02D00823059313
:10B4180057E0029B9B78C3F34003DBB21A460199BD
:10B428000398FFF711FF03468DF813309DF9133089
:10B43800B3F1FF3F43D0029B9B78C3F38003DBB299
:10B4480083F00103DBB2002B13D0029B9B7803F03F
:10B458000103DBB2002B03D00398FFF745FD05E09D
:10B46800029B5B7819460398FFF729FD0398FFF7BD
:10B478009BFE029B9B7803F00203DBB2002B08D0F3
:10B488009DF91300029B1B781A460399FFF77AFC73
:10B4980017E09DF91330083B0D4A134493F95010F7
:10B4A800029B1B789B015AB29DF91330083B0A4353
:10B4B80051B2074A13440A4683F8502001E0042396
:10B4C8000593059B184607B05DF804FB3C2F030065
:10B4D8007C27002000B583B001900198FFF7C3FDD9
:10B4E8000346002B04D1094940F2B220FAF76CFF59
:10B4F8000198FFF743FD0346002B14BF01230023E7
:10B50800DBB2184603B05DF804FB00BF3C2F030014
:10B5180000B585B00190019A01210020FFF761FD77
:10B52800002303930BE0039B9B00019A13441B68C1
:10B53800002B01D0012306E0039B01330393039BF7
:10B54800002BF0D00023184605B05DF804FB00007E
:10B5580000B587B00190002305935BE0344A059B52
:10B568001344503393F90030B3F1FF3F4ED00598A0
:10B57800FFF742FE049001990498FFF794FD0346F3
:10B58800002B44D00598FFF74BFE03468DF80F308B
:10B598000498FFF708FD03468DF80E309DF80E302D
:10B5A800022B01D1032300E002238DF80D309DF812
:10B5B8000D3019460498FFF7B3FC0498FFF73FFDD8
:10B5C8000498FFF7FFFD03461846FFF709FE0290AF
:10B5D800029B002B1BD09DF80F30032B0FD09DF83A
:10B5E8000E30022B03D19DF80F30012B07D09DF8A8
:10B5F8000E30032B0BD19DF80F30022B07D19DF88D
:10B608000F20029B11460498984700E000BF059B55
:10B6180001330593059B032BA0D90198FFF778FF09
:10B628000346002B97D100BF00BF07B05DF804FBAD
:10B638007C27002000B589B00023069300230093DF
:10B648004FF48073ADF8123001230793002305935C
:10B6580021E0BDF812301846FFF73EFB0346002BE9
:10B668000ED00798FFF782FB0346002B08D0BDF8E1
:10B6780012301846FFF745FB069A079B13430693BB
:10B68800079B5B000793BDF812300433ADF8123006
:10B69800059B01330593059B072BDAD94FF4BE7040
:10B6A800FFF71AFB0346002B0DD04FF4BE70FFF7CF
:10B6B80028FB069B43F0004306936B461A4601217C
:10B6C8000020FFF78EFC069BDBB2002B29D001235C
:10B6D80007930023059321E0079A069B1340002B4C
:10B6E80016D00598FFF780FB03900598FFF78CFBB1
:10B6F80003468DF80B300598FFF772FD0190019B0A
:10B70800002B05D09DF80B20019B11460398984704
:10B71800079B5B000793059B01330593059B072B4C
:10B72800DAD9069B002B03DA6B461846FFF710FFA1
:10B7380000BF09B05DF804FB08B5064B1B68002B79
:10B7480003D105495120FAF73FFE024B1B68984781
:10B7580008BD00BFD8270020742F030082B00190D5
:10B76800019B044A934201D1034B00E00023184691
:10B7780002B0704700200040D827002000B587B0ED
:10B7880001900091019B002B03D11C497720FAF707
:10B798001BFE0198FFF7E2FF0590059B002B25D0C3
:10B7A80000238DF8133000238DF80B300DF10B03B7
:10B7B800184602F0D5FC059B1B79002B03D001230A
:10B7C8008DF8133005E0059B009A1A60059B01224D
:10B7D8001A719DF80B30184602F0D8FC9DF813300A
:10B7E800002B03D011230393039B02E00023039350
:10B7F800039B184607B05DF804FB00BF742F0300D5
:10B8080000B585B00190019B002B03D10A499B200C
:10B81800FAF7DAFD0198FFF7A1FF0390039B002BCD
:10B8280005D0039B00221A60039B00221A7100BFF7
:10B8380005B05DF804FB00BF742F030082B0034617
:10B848008DF807309DF90730002B0CDB9DF8073089
:10B8580003F01F0205499DF907305B09012000FA32
:10B8680002F241F8232000BF02B0704700E100E077
:10B8780082B003468DF807309DF90730002B13DBA3
:10B888009DF8073003F01F0209499DF907305B094D
:10B89800012000FA02F2203341F82320BFF34F8F32
:10B8A80000BFBFF36F8F00BF00BF02B0704700BF7B
:10B8B80000E100E082B0034600918DF807309DF961
:10B8C8000730002B0ADB009BDAB20C499DF90730E0
:10B8D8005201D2B20B4483F800230BE0009BDAB28A
:10B8E80007499DF8073003F00F03043B5201D2B219
:10B8F8000B441A7600BF02B0704700BF00E100E0B9
:10B9080000ED00E082B00190019B1B0B5BB2184672
:10B9180002B0704700B583B003460A468DF8073079
:10B9280013468DF806309DF80630012B03D99DF893
:10B938000630032B0BD99DF80630042B03D99DF84C
:10B948000630072B03D908496B20FAF73DFD9DF80F
:10B9580006209DF9073011461846FFF7ABFF00BFD8
:10B9680003B05DF804FB00BFA82F030000B583B047
:10B9780003468DF807309DF907301846FFF75EFF3C
:10B9880000BF03B05DF804FB00B583B003468DF833
:10B9980007309DF907301846FFF76AFF00BF03B06C
:10B9A8005DF804FB84B001900B46ADF80230BDF899
:10B9B8000230019A134400221A60BDF80230019A3D
:10B9C80013441B680393039B00BF04B0704782B005
:10B9D80001900B46ADF80230BDF80230019A1344CD
:10B9E8001B68002B14BF01230023DBB2184602B0EA
:10B9F800704782B001900091019B009AC3F804231C
:10BA080000BF02B0704782B001900091019BD3F84B
:10BA18000423009B1340002B14BF01230023DBB237
:10BA2800184602B0704782B001900091019B009ABD
:10BA3800C3F8082300BF02B0704784B00190019B8F
:10BA4800D3F880340393019B039AC3F88024039BA3
:10BA5800184604B0704782B00190019B0422C3F8D5
:10BA6800002500BF02B0704782B00190019B002200
:10BA7800C3F8002500BF02B0704784B0039002915C
:10BA88000192039B019AC3F81425039B029AC3F8F9
:10BA98000C2500BF04B0704700B583B001904FF08B
:10BAA800FF324FF0FF310198FFF7E7FF00BF03B007
:10BAB8005DF804FB82B00190019BD3F80C35184661
:10BAC80002B0704782B00190019BD3F81435184634
